S00E0000726F6D6D6F6E2E737265637E
S3150800000044760120D5010008250F00083D0F000899
S31508000010550F00086D0F0008850F00080000000046
S315080000200000000000000000000000002102000897
S315080000309D0F000800000000B50F00082102000807
S3150800004021020008210200082102000821020008F6
S3150800005021020008210200082102000821020008E6
S3150800006021020008210200082102000821020008D6
S3150800007021020008210200082102000821020008C6
S3150800008021020008210200082102000821020008B6
S3150800009021020008210200082102000821020008A6
S315080000A02102000821020008210200082102000896
S315080000B02102000821020008210200082102000886
S315080000C02102000821020008210200082102000876
S315080000D0210200082102000849110008210200082F
S315080000E02102000821020008210200082102000856
S315080000F02102000821020008210200082102000846
S315080001002102000821020008210200082102000835
S315080001102102000821020008210200082102000825
S315080001202102000821020008210200082102000815
S315080001302102000821020008210200082102000805
S3150800014021020008210200082102000821020008F5
S3150800015021020008210200082102000821020008E5
S3150800016021020008210200082102000821020008D5
S3150800017021020008210200082102000800000000F0
S30D08000180210200082102000813
S315080001C04021000800700120007001200070012005
S315080001D044720120DFF830D0002103E00B4B5B5856
S315080001E0435004310A480B4B42189A42F6D30A4A3E
S315080001F002E0002342F8043B084B9A42F9D301F087
S3150800020041FB00F003F9FEE744760120402100088F
S315080002100070012000700120007001204472012046
S31508000220FEE7A0F13200002800DC7047A0F130009C
S315080002300028FBDC7047000010B55320084C00E08E
S315080002401C4601F061F86078631C0028F8D10A2082
S3150800025001F05AF8A07802340028F2D110BD00BF88
S31508000260E01C000870B50C4608468021266800F098
S315080002703DFC23689E420ABF084B05465D6800F0B0
S3150800028045FE064801F0F8FAA84700F03FFE044884
S3150800029001F0F2FABDE8704000F03EBE0000002012
S315080002A0000000082DE9F04F524B534F61220026FB
S315080002B01A5483B00446B9463546B046204600F07F
S315080002C047FC21464FF0FF3000F052FC0090002812
S315080002D0F7D0431C00930378532BEFD1831C0221DC
S315080002E001A8019300F002FC019B023B82460193A0
S315080002F04FF0000B022101A800F0F8FBBAF1010A41
S315080003008344F7D50BF1FF33DBB2FD2B06D83B5DF3
S31508000310002B41D1F12309F80430B046009B5A1C42
S3150800032000920221684693F800B000F0DFFBBBF1AB
S31508000330310F824616D0BBF1320F2FD0BBF1330FE7
S3150800034030D0BBF1370F4BD0BBF1380F2ED0BBF1F5
S31508000350390F4AD0ABF1370BBBF1020FAED84FF0CD
S31508000360000928E06FF001060421684600F0BEFB8C
S315080003700AF1FF333344002D08BF0546002B064615
S31508000380E8DDC61882460221684600F0AFFB0AF887
S31508000390010B5645F7D1DDE7B046BFE76FF0020619
S315080003A00621E2E76FF003060821DEE76846062124
S315080003B000F09CFB81462946104801F027FA314691
S315080003C00F4801F023FA49460E4801F01FFA3B5D33
S315080003D01BB141460C4801F019FA03B0BDE8F08F8D
S315080003E06846042100F082FBE4E76846082100F02D
S315080003F07DFBDFE71470012018700120301F00080C
S31508000400481F0008601F0008781F000808B516482E
S3150800041001F032FA154B1B6803B19847002000F02B
S3150800042003FC134B134D144C14491B684FF0005230
S3150800043061202A602260087003B1984700F06CFDBD
S31508000440002000F07DFF0E4800F046FF002000F077
S3150800045051F800230B4A1846137000F079FB002068
S3150800046000F044FAFBE700BF000000088C1F0008F4
S31508000470881F0008107001201C70012014700120CC
S31508000480E01C00081870012010B5044600F032F888
S31508000490034B00221A552046BDE8104000F058BB11
S315080004A018700120F8B50C4607460846154600F0B0
S315080004B03BFB20468021266800F018FB286023684D
S315080004C09E420DD0204600F02FFB8021204625684D
S315080004D000F00CFB23689D4208BF4FF48070F8BDFE
S315080004E0034B53F827302B604FF48070F8BD00BFDC
S315080004F01C70012008B5164B1B5C652B01460ED1F6
S31508000500144B1B5C012B1AD0042B134B0FD053F83A
S31508000510211012480A88BDE8084001F077B910484A
S3150800052001F074F93A20BDE8084000F0EDBE53F832
S3150800053021100C480A68BDE8084001F067B9064B67
S31508000540094853F82110BDE808400A7801F05EB959
S31508000550147001200070012010700120B01F0008DF
S31508000560901F0008A01F0008941F000870B50D46CC
S315080005700446802128462E6800F0B8FA2B680749F9
S31508000580074A9E42074B08BF53F8240043F8240045
S31508000590652001230855135570BD00BF147001204E
S315080005A0007001201070012070B50D4604468021A8
S315080005B028462E6800F09AFA2B680749074A9E4291
S315080005C0074B08BF53F8240043F82400652002238C
S315080005D00855135570BD00BF147001200070012026
S315080005E01070012070B50D460446802128462E68F5
S315080005F000F07CFA2B680749074A9E42074B08BF5A
S3150800060053F8240043F8240065200423085513559D
S3150800061070BD00BF14700120007001201070012009
S315080006202DE9F04F83B001AA8046FFF73BFFB0F1F2
S31508000630000A53DD354B019943F8281001F00F0BDA
S3150800064021F00F01324801F0E1F80BEB4B010131C3
S31508000650202000F073FA019ECBF110090AF1FF344D
S31508000660013609F1FF35274603E00136013D013F12
S3150800067073B1072D4FF0200140463AD000F0B6FB83
S3150800068016F8011C234801F0C1F83B46002DECD1B1
S315080006900BF102012020C9EB0A0500F04FFA01E030
S315080006A0631C18D0019B5A1C01921978A1F12003EA
S315080006B05E2B88BF2E21404600F098FBAC42A2462E
S315080006C004F1FF34ECD10A2000F01EFE35B1019981
S315080006D04FF0000BB4E70A2000F016FE0E490F4B48
S315080006E06420012201F8080003F8082003B0BDE8D9
S315080006F0F08F7B1C9A45C1D02D2100F077FB16F8A8
S31508000700011C044801F082F83B46AEE71C70012044
S31508000710BC1F0008C41F00081470012000700120C7
S315080007202DE9F04383B001AA8046FFF7BBFE0028F7
S3150800073044DD019B2E4A23F00101013020F0010718
S3150800074042F828103E46019103F00E0921F00F01E8
S31508000750284801F05BF809EBD971491001EB8101D2
S315080007600131202000F0EAF9002EC9F1100422DD3B
S31508000770023CB51E05E0002EA4F10204A5F102050F
S3150800078019DD062C4FF020002E4622D000F0BCFDC5
S31508000790019B1948198801F039F8019BB4F1000941
S315080007A003F102030193E6DC0A2000F0ADFD002EFA
S315080007B004DD0199CAE70A2000F0A6FD0F49104B8F
S315080007C06420022201F8080003F8082003B0BDE8F7
S315080007D0F083AB1C9F42D9D02D2000F095FD019BDC
S315080007E00548198801F012F8019B02330193C2E704
S315080007F01C700120BC1F0008CC1F000814700120C3
S31508000800007001202DE9F04383B001AA0746FFF7DF
S3150800081049FE002849DD019B304A23F003010330D5
S3150800082020F0030842F827104646019103F00C0908
S3150800083021F00F012A4800F0E9FFB9F1000F4946F7
S31508000840B8BF09F10301891001EBC101013120206C
S3150800085000F074F9002EC9F1100423DD043C351F9D
S3150800086005E0002EA4F10404A5F104051ADD042C04
S315080008704FF0200138462E4620D000F0B7FA019BEB
S315080008801748196800F0C2FF019BB4F1000903F18B
S3150800089004030193E5DC0A2000F036FD002E04DD92
S315080008A00199C5E70A2000F02FFD0E490E4B64207A
S315080008B00422C855DA5503B0BDE8F0832B1D9845C8
S315080008C0DBD02D2100F092FA019B0548196800F04B
S315080008D09DFF019B04330193C3E700BF1C700120F1
S315080008E0BC1F0008147001200070012070B5014675
S315080008F082B0054600F03CF9009090B1037893B9B0
S315080009004A4B5B5D642B4CD0652B07D1484A494B53
S3150800091052F825105B5D0B4442F825302846FFF750
S31508000920B3FD02B070BD414A515D652946D0431CEE
S3150800093000934378017843EA0121CBB93E4A1388EC
S315080009405BB1994218BF002402D114E0994213D032
S3150800095032F8023F0134002BF8D13F2000F0D4FCD6
S315080009600121364800F052FF2846FFF78DFDD8E7EB
S3150800097002300090E2E70024684600F0D5F8304BD4
S31508000980694653F82430284698472E4B5C5D002C60
S31508000990C4D03F2000F0B8FC2146284800F036FFB6
S315080009A0BCE7244B5B5D012B2CD0022B2FD0042BEC
S315080009B0B4D169462846FFF725FFAFE72E2B15D099
S315080009C01C4B1B4C5B5D0190012B4FF0800101A86D
S315080009D054F8256020D0042B0BD000F087F854F883
S315080009E025303080023344F8253097E76123535584
S315080009F094E700F07BF854F825303060043344F867
S31508000A0025308BE769462846FFF70AFE86E76946DA
S31508000A102846FFF785FE81E700F068F8307054F83D
S31508000A202530013344F8253078E700BF14700120DB
S31508000A301070012000700120F01E0008D41F000865
S31508000A40081F0008187001202DE9F04182B001AA9C
S31508000A500C46FFF727FD0646204600F065F880217C
S31508000A602046276800F042F823689F4214BF0746CD
S31508000A700027204600F058F880212046256800F017
S31508000A8035F823689D4214BF05460025204600F028
S31508000A904BF820468021D4F8008000F027F8236818
S31508000AA0984518D0002813DD06F1FF3E05FB0EFE1B
S31508000AB0002E0BDD3A460023019901334C1C9E4259
S31508000AC001940A702A44F7D12F4477440138EFD1AC
S31508000AD002B0BDE8F0810120E6E700BF00F00F0094
S31508000AE0092894BF30305730704700BFF0B4074626
S31508000AF00468002014F8013B602B84BF203BDBB25E
S31508000B00A3F13002D5B2092DA3F1410605D9052E68
S31508000B1001D9F0BC7047A3F137020029F9DD013984
S31508000B2002EB00103C60E5E703681A78202A04D136
S31508000B30013303601A78202AFAD0704738B50C1E9C
S31508000B4005DD0546284600F0DFFB013CFAD138BD35
S31508000B50054A064B10B402EB80010024145403EB3B
S31508000B60C0134B6010BC7047047001202070012030
S31508000B702DE9F84FDFF89490234E19F8013006EB6B
S31508000B80C116BBB94FEA810A09EB0A0380465F68BA
S31508000B900D4606F17F0B284600F060F90828044642
S31508000BA00BD00D2822D00A28F5D0B0B90646D14474
S31508000BB0C9F804703046BDE8F88FB742EBD901464C
S31508000BC0404600F013F94046202100F00FF921466F
S31508000BD04046013F00F00AF9DDE70146404600F0CD
S31508000BE005F97B1C5B453C701F46D4D30D21404656
S31508000BF000F0FCF840460A2100F0F8F8BB1B00227A
S31508000C0009F805303A70D2E72070012004700120F7
S31508000C10002A07DD0438043A51F8043B40F8043F3B
S31508000C20002AF8DC704700BF1A4ADFF898C01A494C
S31508000C30F0B50027194C1A4E0CF80070194D1754C8
S31508000C40C2013754DFF880E0161945F82060451CC4
S31508000C50ED014EF82060DFF874E02C440A444EF8A3
S31508000C6020402944104C114D44F8201045F82060C6
S31508000C700F4C104D1049114E45F820202754104DA1
S31508000C800F5446F8202045F82020BDE8F04000F033
S31508000C909DB900BF4071012048710120B470012040
S31508000CA0AC700120CC7101203C7101203871012003
S31508000CB0C8710120D071012034710120A47001206F
S31508000CC0A070012044710120A8700120B070012095
S31508000CD038B5044600F054FA10F47F4F25D0C0B258
S31508000CE0132823D011282DD01A4B1B4D53F8242036
S31508000CF0511C43F82410107053F8241055F824207A
S31508000D00914204D3154A52F8242043F82420144B60
S31508000D101A5D120603D41A5D0132D2B21A551B5D4A
S31508000D20532B02D90F4B1A5D1AB138BD0E4B185505
S31508000D3038BD0E4913220A551A552046BDE83840D3
S31508000D4000F02ABA084B00221A552046BDE838405A
S31508000D5000F022BA38710120B0700120CC71012050
S31508000D6044710120AC70012034710120C871012042
S31508000D7038B5184B195C044631BB174D2B5C4BB97B
S31508000D802B5D13B1154B1B5DEBB12046BDE8384012
S31508000D9000F00EBA124B134A53F8201052F82000EE
S31508000DA04A1C43F824208242097804D30E4A52F892
S31508000DB0242043F82420204600F006FA2B5D013B48
S31508000DC0DBB22B55DCE738BD00221A54024D00F081
S31508000DD0FBF9D5E7C8710120407101203471012063
S31508000DE0A47001203C710120D0710120002829DB64
S31508000DF070B5154D2B5C1B06FCD4144B144C53F8DC
S31508000E002020561C43F82060117053F8201054F81F
S31508000E102020914204D30F4A52F8202043F820207C
S31508000E20044600F073F82B5D0133DBB22B5500F056
S31508000E3073F8094B1B5D03B170BD2046BDE87040D1
S31508000E4000F0AAB9704700BF40710120A0700120C8
S31508000E503C710120D07101203471012038B51A4D3A
S31508000E602A5C1AB902F0FF03184638BD044600F09A
S31508000E704DF82B5D013BDBB22B5500F04DF82B5D91
S31508000E802A2B0ED8114B1A5D5AB100221A5500F0BA
S31508000E903DF80F4B112220461A5500F07DF900F057
S31508000EA03BF80C4B0C4A53F8241052F824504A1CB1
S31508000EB043F82420AA420878D7D3084A52F82420AF
S31508000EC043F8242038BD00BF44710120AC700120CE
S31508000ED0C8710120A8700120B0700120CC710120D2
S31508000EE0084A13685906FCD5074BC2B20A281A6085
S31508000EF000D07047034A13685B06FCD5024B0D22E7
S31508000F001A6070471C44004028440040014B4022A8
S31508000F101A60704784E100E0014B40221A6070476E
S31508000F2004E100E008B5044C4E20FFF7D9FF14F899
S31508000F30010F0028F9D1FEE7E81F000808B5044CA0
S31508000F404820FFF7CDFF14F8010F0028F9D1FEE776
S31508000F500420000808B5044C4D20FFF7C1FF14F81B
S31508000F60010F0028F9D1FEE72420000808B5044C33
S31508000F704220FFF7B5FF14F8010F0028F9D1FEE764
S31508000F804820000808B5044C5520FFF7A9FF14F8B7
S31508000F90010F0028F9D1FEE76820000808B5044CBF
S31508000FA04420FFF79DFF14F8010F0028F9D1FEE74A
S31508000FB08C20000808B5044C5020FFF791FF14F860
S31508000FC0010F0028F9D1FEE7B020000800B17047EC
S31508000FD0F0B54D4C4D4F23684D484E4A4E4E4F493D
S31508000FE04F4D43F4003323603B684E4C43F00103F6
S31508000FF03B604FF0904785B03B6823F0300343F0E1
S3150800100020033B60036843F030030360136823F052
S3150800101004031360336823F0300343F0100333608E
S315080010203B6823F0C00343F080033B6007683E4BF0
S3150800103047F0C0070760176827F008071760326887
S3150800104022F0C00242F0400232600A6822F470625E
S3150800105042F4E0620A600A6822F4704242F4E0420E
S315080010600A602A6822F440522A60226800F1784011
S31508001070134000F5884043F00C032360036823F40B
S3150800108040730360684600F005FD284B1B68C3F3F0
S315080010908103022B34D0032B28D0012B32D0039A9C
S315080010A0204B1B681B0424D5214B520802F56142CC
S315080010B0A3FB0232110C4FF6F073C2F342420B4007
S315080010C013431C49174A0B6013681B481B491C4DE0
S315080010D043F020031360002440232D6804600B604E
S315080010E0136843F00103136005B0F0BD4FF40042E6
S315080010F0D6E70F4B02F56142A3FB02231B0CE0E780
S31508001100104ACDE7009ACBE7581002404C1002402F
S3150800111008000048040000480C0000482000004869
S315080011200444004000440040F3E9FFEF8810024001
S31508001130C5B3A2910C44004098E400E004E100E045
S315080011400CED00E00024F4000B4A38B514680B4B8C
S31508001150A0061D6801D5A90609D4220601D52B06C5
S3150800116000D438BD0020BDE83840FFF701BE002096
S31508001170FFF7AEFDF1E700BF004400401C44004005
S3150800118000EB4000034B53F82030586A60F0FF002C
S3150800119080B27047DC1F0008044B00EB400053F890
S315080011A02020136843F0800313607047DC1F000893
S315080011B0044B00EB400053F82020136823F080030B
S315080011C013607047DC1F000800EB4000024B53F821
S315080011D020309962704700BFDC1F000800EB400012
S315080011E0034B53F820201C3213685B06FCD5704766
S315080011F0DC1F000800207047F8B50F4649B10546C0
S315080012001446561814F8011B2868FFF7EFFDB44278
S31508001210F8D13846F8BD00BFC9B20068FFF7E6BD89
S3150800122010B504462068FFF719FE0028FAD010BD4D
S31508001230F8B50F4659B10446154656182068FFF703
S315080012400DFE0028FAD005F8010BB542F6D138464E
S31508001250F8BD00BF0A2838B505460C4605D0A06972
S31508001260E36829469847012038BDCB6888690D216F
S315080012709847F4E7034B002808BF18464368806977
S31508001280184700BFD4710120054B002A18BF134622
S3150800129010B49C6802469869234610BC184700BFDC
S315080012A0D471012010B4064C002B08BF234602FB5C
S315080012B001F19C6802469869234610BC184700BF8E
S315080012C0D471012010B41C6902FB01F10246986929
S315080012D0234610BC184700BF38B5054600F090FCF9
S315080012E0084C2A460146E36A606B9847A36A054696
S315080012F00D21606B9847606BA36A0A2198472846B8
S3150800130038BD00BFD47101200A2838B50546064CF9
S3150800131005D0606BA36A29469847012038BD0D2180
S31508001320A36A606B9847F4E7D4710120034B002841
S3150800133018BF034618465B69184700BFF0710120BD
S31508001340C8B90D4A0D4BF0B5DFF844E00C4F0D4E09
S315080013500D4D0E4C10604FF6FF7103F15400598085
S31508001360C3F804E09F60DE601D615C619A611C330E
S315080013708342F4D1F0BD70470C700120D47101206E
S315080013803112000819120008F9110008F5110008B1
S3150800139021120008024BC0EBC00003EB8000704727
S315080013A0D47101202DE9F04F87B00DF10C09CC4618
S315080013B0129FDDF84C80002600E05646B0FBF1F49B
S315080013C001FB140006F1010A105C0CF8010B20461B
S315080013D0002CF2D1109A002AC2EB030B36DD119BC2
S315080013E0002B2FDD41462D20B847DA4538DA012390
S315080013F01A46119B0196002BCCBF3023202300935D
S315080014001546164600E0264641460098741CB8471D
S315080014100AEB0401491B8B45F5DC109B002B35466E
S31508001420019E02DD119B002B13DD09EB0A0515F859
S31508001430010D4146B8474D45F9D1601C304407B007
S31508001440BDE8F08FDA4509DA0246D2E7DA45FBDB72
S31508001450EBE7AC1C41462D20B847E6E70124F9E73F
S315080014600124E2E7FFF750BF2DE9F04F80461078D8
S3150800147085B015460F469946002648B125280BD053
S315080014803946C04768786C1C013625460028F5D1D0
S31508001490304605B0BDE8F08F6B78302B00F0A6809B
S315080014A002350021A3F13002092A4FF000040BD8B7
S315080014B004EB840403EB440415F8013BA3F1300262
S315080014C0092AA4F13004F3D9782B00F28D80DFE8DD
S315080014D013F0EB008B008B008B008B008B008B00CE
S315080014E08B008B008B008B008B008B008B008B0096
S315080014F08B008B008B008B008B008B008B008B0086
S315080015008B008B008B008B008B008B008B008B0075
S315080015108B008B008B008B008B008B00E5008B000B
S315080015208B008B008B008B008B008B008B008B0055
S315080015308B008B008B008B008B008B008B008B0045
S315080015408B008B008B008B008B008B008B008B0035
S315080015508B008B008B008B008B008B008B008B0025
S315080015608B008B008B008B008B008B008B008B0015
S315080015708B008B008B008B008B008B008B008B0005
S315080015808B00E1008B008B008B008B008B008B009F
S315080015908B008B008B008B00D8000A018B008B0018
S315080015A08B00EF000A018B008B001E018B008B005D
S315080015B0C4008B008B008B00A5008B0091008B006C
S315080015C08B007900D9F800008D4A01914FF0000E82
S315080015D003972346CDF80880CDF800E01021FFF7E1
S315080015E0E1FE09F104090644287846E7AB780121AB
S315080015F0033557E74FF0000ED9F80000814A0191EC
S3150800160003972346CDF80880CDF800E00A21FFF7B6
S31508001610C9FE09F10409064428782EE7D9F80030EE
S31508001620187809F1040903F1010B50B1C3EB060A56
S315080016303946C0470BEB0A061BF8010B013C00288C
S31508001640F6D1002CD0DDA24639462020C047BAF193
S31508001650010AF9D1264428780FE74FF0000ED9F889
S315080016600000684A019103972346CDF80880CDF813
S3150800167000E00821FFF796FE09F1040906442878D8
S31508001680FBE699F800003946C04709F10409013616
S315080016902878F2E6D9F800005B4A96E7252039460D
S315080016A0C04701362878E8E615F8010C013DE4E65E
S315080016B02B78692B05F1010A6FD06AD9752B35D0BD
S315080016C0782B00F091806F2B2DD1B9F8000001918D
S315080016D04FF0000E4B4A03972346CDF80880CDF805
S315080016E000E008212FE0D9F80000002809F10409D4
S315080016F061DB00220397CDF808800191234600920A
S315080017000A21404AFFF74EFE06442878B5E62B78AC
S31508001710692B05F1010A29D020D9752B1BD0782B06
S3150800172069D06F2B64D068785546A6E6B9F80000EC
S31508001730344A01914FF0000E03972346CDF80880EE
S31508001740CDF800E00A21FFF72DFE09F10409064449
S315080017506878554691E6D9F80000E9E7582B40D055
S31508001760642B03D0002B3FF493AEDCE7D9F80000D6
S31508001770002809F1040916DB00220397CDF8088032
S315080017800191234600920A211E4AFFF70BFE0644E2
S31508001790C9E7582B17D0642BE4D1B9F90000002803
S315080017A009F10409E8DA01220397CDF808800191C6
S315080017B023464042E6E701220397CDF808800191C7
S315080017C0234640429BE7B9F800000F4A01914FF0C3
S315080017D0000E03972346CDF80880CDF800E01021C7
S315080017E0B1E7D9F80000F0E7B9F80000044AEDE7D8
S315080017F0D9F800006BE7D9F80000014AE6E700BF10
S31508001800DC200008D0200008F02000080FB400B53E
S3150800181083B004AB002153F8042B04480193FFF767
S3150800182023FE03B05DF804EB04B0704765140008A6
S315080018300E4B1A68D2000DD50D4B1B680D4B1A6856
S3150800184022F007021A60186810F0070018BF012076
S31508001850404270471A68064942F080521A600A6880
S315080018601A6822F080521A60E8E700BF5810024052
S315080018700070004000200240014B1860704700BF0E
S3150800188008ED00E0784B79491A68002042F0010219
S3150800189070B51A6008601A68754D764C22F0A85221
S315080018A022F4A0224FF480561A602E601A6822F499
S315080018B080221A6020600A6812F00C0F1A6840F03D
S315080018C08C80110757BF6C4B1B681B681B1103F0F4
S315080018D0F0035F2B00F29680FFF7AAFF002878D165
S315080018E0614A6649136843F008031360136823F0D6
S315080018F0F00343F0600313600B6823F47F430B6027
S315080019005A4B1B6803F00C030C2B62D0564D2B6800
S3150800191023F080732B602B68980148BF40F2D1747E
S3150800192002D408E0013C54D04FF47A70FEF779FCF3
S315080019302B689A01F6D44E4B4B4D514A1A602A68C9
S3150800194042F080722A601A6842F080721A602B6828
S31508001950990158BF40F2D17402D508E0013C38D04D
S315080019604FF47A70FEF75DFC2B689B01F6D5454A65
S31508001970136803F00703032B5ADD3C4D2B6823F04D
S31508001980F0032B602B6843F003032B602B6803F0EE
S315080019900C030C2B0CD03C4C01E0013C19D04FF445
S315080019A07A70FEF73EFC2B6803F00C030C2BF4D17F
S315080019B0344A136803F00703042B48DD136823F041
S315080019C0070343F004031360136803F00703042BAB
S315080019D03DD02E4B2E4A1A6070BD42F001021A60A5
S315080019E01A6892073FF57CAF1D4640F2D17401E0B4
S315080019F0013CEED04FF47A70FEF713FC2B689E0775
S31508001A00F6D56DE7184A1D49136843F008031360B5
S31508001A10136823F0F00343F0600313600B6823F4A4
S31508001A207F430B60FFF704FF00283FF469AFD0E758
S31508001A30136823F0070343F004031360136803F0E5
S31508001A400703042B99D0114B114A1A6070BD074B36
S31508001A501A6822F4E0621A601A6822F460521A6060
S31508001A600A4B0B4A1A6070BD00100240081002406B
S31508001A700C10024018100240941002400410024054
S31508001A800128200000200240414B4C0008ED00E0F0
S31508001A9000000008494B1A6812F00C0F30B437D012
S31508001AA01B6803F00C030C2B29D0444A136803F077
S31508001AB00C03042B71D0136803F00C03082B79D0A0
S31508001AC000233F4D1C463D4A116801F00C010C29C4
S31508001AD036D03A4A036043601168C1F302212944AB
S31508001AE091F8301023FA01F181601268C2F3C2221C
S31508001AF02A4430BC92F83020D340C360704703F1C3
S31508001B00804303F504331B6803F00303012BCCD190
S31508001B102C4B1A68120733D42B4B1B68C3F30323C9
S31508001B20264A274D126855F8234012F00C0F234A0F
S31508001B30116801F00C010CBF234600230C29C8D1FB
S31508001B4001F1804101F504310A680B6802F00302CD
S31508001B50C3F30213022A03F1010322D0032A13D086
S31508001B60B4FBF3F40A68C2F3062304FB03F4174B29
S31508001B701B68C3F3416301335B00B4FBF3F3A8E7C7
S31508001B801B68C3F30313CBE70968114AB2FBF3F4E6
S31508001B90C1F3062304FB03F4E9E70E4B084D0024C2
S31508001BA091E709680B4AB2FBF3F4C1F3062304FB79
S31508001BB003F4DCE7064B024D002484E708100240D4
S31508001BC00421000800100240941002400C10024044
S31508001BD000127A000024F400000000000000000053
S31508001BE000000000000000000000000000000000E7
S31508001BF000000000000000000000000000000000D7
S31508001C0090F800F06DE9024520F007016FF0000C2E
S31508001C1010F0070491F820F040F049804FF00004D6
S31508001C206FF00700D1E9002391F840F000F10800B1
S31508001C3082FA4CF2A4FA8CF283FA4CF3A2FA8CF3E9
S31508001C404BBBD1E9022382FA4CF200F10800A4FA50
S31508001C508CF283FA4CF3A2FA8CF3E3B9D1E90423A4
S31508001C6082FA4CF200F10800A4FA8CF283FA4CF3DB
S31508001C70A2FA8CF37BB9D1E9062301F1200182FA95
S31508001C804CF200F10800A4FA8CF283FA4CF3A2FA9B
S31508001C908CF3002BC6D0002A04BF04301A4612BAA9
S31508001CA0B2FA82F2FDE8024500EBD2007047D1E9AC
S31508001CB0002304F00305C4F100004FEAC50514F03B
S31508001CC0040F91F840F00CFA05F562EA05021CBF0C
S31508001CD063EA050362464FF00004A9E70000000026
S31508001CE053544D33324C343736204E75636C656F1A
S31508001CF02D3634204D6F6E69746F722076312E3012
S31508001D00320D0A436F70797269676874202843290F
S31508001D1020313939392D3230303420435345205457
S31508001D206F6D616B6F6D6169204E43540D0A436F89
S31508001D3070797269676874202843292032303036F2
S31508001D402D32303137205249434F4820434F4D50AA
S31508001D50414E592C4C54442E002D2D2D2D2D2D2D14
S31508001D602D2D2D2D2D2D2D2D2D2D2D2D2D2D2D2D95
S31508001D702D2D2D2D2D2D2D2D2D2D2D2D2D2D2D2D85
S31508001D802D2D2D2D2D2D2D2D2D2D2D2D2D2D2D2D75
S31508001D902D2D2D2D2D2D2D2D2D2D2D2D2D2D2D2D65
S31508001DA02D2D2D2D2D006C64202020202020202074
S31508001DB020202020206C6F61642070726F6772612A
S31508001DC06D202020202020202020207C20676F5B8B
S31508001DD03C61643E5D20202020202020676F207013
S31508001DE0726F6772616D0064625B3C61643E5B3C66
S31508001DF06C6E3E5D5D2064756D7020627974652039
S31508001E002020202020202020202020207C206477CD
S31508001E105B3C61643E5B3C6C6E3E5D5D2064756D4B
S31508001E207020776F726400646C5B3C61643E5B3C57
S31508001E306C6E3E5D5D2064756D70206C6F6E6720FC
S31508001E40776F726420202020202020207C20656265
S31508001E505B3C61643E5D20202020202020656E7456
S31508001E60657220627974650065775B3C61643E5BE8
S31508001E703C6C6E3E5D5D20656E74657220776F7290
S31508001E80642020202020202020202020207C20655F
S31508001E906C5B3C61643E5D20202020202020656E1E
S31508001EA0746572206C6F6E6720776F726400666265
S31508001EB05B3C61643E5B3C6C6E3E5B3C696E3E5BC4
S31508001EC03C69633E5B3C72703E5D5D5D5D5D2066B0
S31508001ED0696C6C2062797465003F202020202020E0
S31508001EE0202020202020202068656C70000000003B
S31508001EF06C65776562656C64776462646266646C57
S31508001F006F67003F00000000E5050008A905000806
S31508001F106D050008050800082107000821060008C5
S31508001F20490A0008A50200086502000839020008E7
S31508001F3053746172742041646472657373203D2022
S31508001F40253038780A000000456E64202020416458
S31508001F506472657373203D20253038780A000000C6
S31508001F60456E7472792041646472657373203D20EE
S31508001F70253038780A0000004572726F72203D20BD
S31508001F80253038780A000000000000000000000034
S31508001F90257800002530386C783A253032783A00B2
S31508001FA02530386C783A2530386C783A00000000CD
S31508001FB02530386C783A253034783A002530386C34
S31508001FC0780000002530327800000000253034788B
S31508001FD000000000253032780A0000000044004066
S31508001FE026000000020000004E4D49204578636532
S31508001FF07074696F6E206F63637572732E20210A81
S315080020000000000048617264204661756C742045C2
S315080020107863657074696F6E206F63637572732E6B
S3150800202020210A004D656D6F7279204D616E6167DA
S31508002030657220457863657074696F6E206F636397
S315080020407572732E20210A00427573204661756CDD
S315080020507420457863657074696F6E206F63637565
S3150800206072732E20210A0000557361676520466148
S31508002070756C7420457863657074696F6E206F633C
S31508002080637572732E20210A00000000446562758C
S3150800209067204D6F6E69746F72204578636570743A
S315080020A0696F6E206F63637572732E20210A0000B4
S315080020B050656E6420535620457863657074696F61
S315080020C06E206F63637572732E20210A000000006C
S315080020D0303132333435363738390000303132331F
S315080020E03435363738396162636465660000000046
S315080020F03031323334353637383941424344454630
S3150800210000000000A0860100400D0300801A0600AA
S3150800211000350C0040420F0080841E0000093D0077
S3150800212000127A000024F40000366E010048E80127
S31508002130006CDC020000000001020304000000003D
S705080001C031
