S00B00006173702E73726563D5
S31508000000901800208D010008E5250008E525000860
S31508000010E5250008E5250008E5250008E52500088A
S31508000020E5250008E5250008E52500085B27000802
S31508000030E5250008E5250008E525000863260008EB
S31508000040632600086326000863260008632600085E
S31508000050632600086326000863260008632600084E
S31508000060632600086326000863260008632600083E
S31508000070632600086326000863260008632600082E
S31508000080632600086326000863260008632600081E
S31508000090632600086326000863260008632600080E
S315080000A063260008632600086326000863260008FE
S315080000B063260008632600086326000863260008EE
S315080000C063260008632600086326000863260008DE
S315080000D063260008632600086326000863260008CE
S315080000E063260008632600086326000863260008BE
S315080000F063260008632600086326000863260008AE
S31508000100632600086326000863260008632600089D
S31508000110632600086326000863260008632600088D
S31508000120632600086326000863260008632600087D
S31508000130632600086326000863260008632600086D
S31508000140632600086326000863260008632600085D
S31508000150632600086326000863260008632600084D
S31508000160632600086326000863260008632600083D
S31508000170632600086326000863260008632600082D
S3150800018063260008632600086326000871B64FF048
S31508000190000080F31488BFF36F8F1848016881F355
S315080001A0088817484FF47001026842EA01020260A3
S315080001B04FF0404013490860134800B180474FF09C
S315080001C000001249124A914204D2086001F1040162
S315080001D09142FAD30F49104A914208D20F4B086848
S315080001E0186001F1040103F104039142F7D30C48A6
S315080001F000B1804702F0DCFCFEE70000886B0008CF
S3150800020088ED00E034EF00E07513000800000020D8
S31508000210BC5E0020486F0008486F000800000020F8
S31508000220000000002DE9F04F994B064693E80700B9
S315080002308FB003AB83E8070003F0E6FF002806DA71
S315080002400090944B94499722032001F065F8751E97
S315080002500EAB03EB8503002453F82CBCDFF878A219
S31508000260DFF87882DFF8789227460134234632464B
S31508000270CDF800B04946052000F0D8FF0297029B4A
S31508000280DAF80020934205D2029B01330293029BBF
S315080002909342F9D318F8053008F80570533B272B15
S315080002A0E3D801A252F823F0150400086B020008EF
S315080002B06B0200086B0200086B0200086B0200085C
S315080002C0F1030008C10300086B0200086B0200086E
S315080002D06B0200086B0200086B0200086B0200083C
S315080002E06B0200086B0200086B02000899030008FD
S315080002F0490300086B0200086B0200086B0200083D
S315080003006B0200086B0200086B0200086B0200080B
S315080003106B0200086B0200086B0200086B020008FB
S315080003206B0200086B020008750300086B020008E0
S315080003306B0200086B0200086B0200086B020008DB
S315080003404D0400083D04000832465449062000F0D2
S315080003506DFF03F0DBF90028C0F292804E48089042
S315080003604F480A900222A22306A900200692099362
S3150800037001F0D4FB32464B49062000F057FF03F044
S315080003804BFB0028BFF671AF0090474B4249A522A8
S31508000390032000F0C1FF68E732464449062000F012
S315080003A045FF42F2107003F0F3FD0028BFF65DAF7B
S315080003B000903F4B3849AD22032000F0ADFF54E7CB
S315080003C004F0CCFE002853DB32463A49052000F0FB
S315080003D02DFF02EE101F04F0FDFE0028BFF645AF04
S315080003E00090354B2C49C022032000F095FF3CE7CE
S315080003F032463249062000F019FF03F005FF0028AF
S31508000400BFF633AF0090234B2349B522032000F0F3
S3150800041083FF2AE732462A49062000F007FF42F200
S31508000420107003F03DFB0028BFF61FAF0090254B68
S315080004301949A922032000F06FFF16E732461D4925
S31508000440052000F0F3FE02EE101F0EE732461E49A5
S31508000450062000F0EBFE03F0A5FE0028BFF605AF68
S3150800046000901A4B0C49B122032000F055FFFCE618
S315080004700090174B0849BD22032000F04DFFA3E763
S315080004800090144B0449A122032000F045FF65E7BC
S31508000490A85A0008405B0008B45A0008E05A000849
S315080004A0F05A0008F45A0008F85A0008185B0008C1
S315080004B01C5B00084C5B0008705B00083C5B00088E
S315080004C0045B0008085B00082C5B0008305B00082A
S315080004D0645B0008E45A0008A05C00209C5C0020CD
S315080004E0C05A000830B503468DB00A4604460D4684
S315080004F00520194900F09AFE0023184A0393039B26
S315080005001268934205D2039B01330393039B9342DC
S31508000510F9D3230401D40DB030BD2A46104906206C
S3150800052000F084FE03F0F2F800280DDB02220D4BE2
S3150800053004920D4C0694D72204A90020079208932A
S3150800054001F0ECFA0DB030BD0090084B0649D622F2
S31508000550032000F0E1FEE9E77C5B0008985C0020D8
S31508000560E05A0008F05A0008B45A0008E45A00088D
S3150800057070B502468AB03B490446052000F056FE8F
S3150800058004F0BEFE012803D03749042000F04EFED1
S3150800059004F0CCFE012803D03449042000F046FEBE
S315080005A004F0B6FE054604F0BBFE064603F068FEF8
S315080005B02A4633462E490090062000F037FE20468C
S315080005C005F050F80546204605F066F82A46034623
S315080005D02849062000F02AFE204605F05DF870B985
S315080005E002AC204604F088FD002822DB4FF40041C7
S315080005F0029803F07BFD002823DB0AB070BD1E4974
S31508000600052000F013FE02F0E3FA002822DB02AC14
S3150800061002221A4B02922146F622194D0592002013
S315080006200693049501F07AFA204604F065FD002841
S31508000630DCDA0090134B1249F922032000F06CFE15
S31508000640D4E70090104B0E49FA22032000F064FE0E
S315080006500AB070BD00900D4B0949F522032000F041
S315080006605BFED4E7A05B0008CC5B0008FC5B0008D7
S315080006702C5C0008545C0008705C0008F05A0008FE
S31508000680B45A0008A05C0008B45C0008945C000832
S3150800069000B5092083B004F0CDFC002817DB0A203A
S315080006A004F0C8FC00281FDB0B2004F0C3FC00285C
S315080006B002DB03B05DF804FB0090104B104940F2D2
S315080006C00912032000F028FE03B05DF804FB009031
S315080006D00C4B0B4940F20712032000F01DFE0A20BE
S315080006E004F0A8FC0028DFDA0090074B04494FF411
S315080006F08472032000F010FED6E700BF005D0008F4
S31508000700B45A0008D05C0008E85C000800B5092067
S3150800071083B004F08FFC002817DB0A2004F08AFC5B
S3150800072000281FDB0B2004F085FC002802DB03B041
S315080007305DF804FB0090104B10494FF48B720320B0
S3150800074000F0EAFD03B05DF804FB00900C4B0B4982
S315080007504FF48A72032000F0DFFD0A2004F06AFCD9
S315080007600028DFDA0090074B044940F215120320EF
S3150800077000F0D2FDD6E700BF005D0008B45A0008B5
S31508000780D05C0008E85C00082DE9F041012192B030
S3150800079004467F2001F072FA0028C0F23B83224605
S315080007A0CA49052000F042FD012001F0F3FA041EB3
S315080007B0C0F21A834FF4A261012001F0C7FC002899
S315080007C0C0F23183C24CC34B236006A804F02EF84E
S315080007D00028C0F2828300230593059B22689A426B
S315080007E005D9059B01330593059B9342F9D307A8C1
S315080007F004F01CF80028C0F279830698079AB649CF
S31508000800B64B121A0220B3FBF2F323FA00F2236066
S315080008100A6002F09BFE0028C0F27183032002F0F2
S3150800082095FE0028C0F27983042002F08FFE002886
S31508000830C0F24A83AA4FAB4EDFF8D88201240225BC
S31508000840012210460DF10F0101F0B2FB0028C0F29B
S31508000850D1809DF80F30A3F13102492A00F2AC800D
S3150800086001A151F822F000BF3D080008070A000858
S31508000870E30D0008B9090008B9090008B909000814
S31508000880B9090008B9090008B9090008B909000832
S31508000890B9090008B50D0008870D0008590D0008AC
S315080008A0B9090008B9090008330D0008090D000840
S315080008B0DF0C0008B9090008B9090008B9090008D9
S315080008C0B50C0008B9090008B9090008B9090008F3
S315080008D0B9090008B9090008B9090008B9090008E2
S315080008E0B9090008B9090008B9090008B9090008D2
S315080008F0AB0C0008B9090008B909000891090008F5
S31508000900850C0008570C0008AB0C0008AB0C000857
S31508000910B9090008B9090008B9090008B9090008A1
S31508000920B9090008B90900082B0C0008FD0B0008D6
S31508000930D30B0008AB0C0008AB0C0008B90900087B
S31508000940B9090008B9090008B9090008B909000871
S31508000950B9090008A70B00087B0B0008B9090008AD
S31508000960B9090008B90900085B0B0008190B00084B
S31508000970AB0C0008A10A0008770A0008550A000807
S315080009802B0A00080D0A0008AB0C0008AB0C00087F
S3150800099008A803F075FF0028C0F20F8309A803F022
S315080009A06FFF0028C0F20083099B089A4E4905206C
S315080009B000F03CFC9DF80F30032B02D0512B7FF43E
S315080009C03FAF4A49052000F031FC02F001F9002842
S315080009D0C0F217820222464B0A92424C0C9440F20D
S315080009E015220AA900200D920E9301F097F812B06D
S315080009F0BDE8F08100903B4640F27B123146032069
S31508000A0000F08AFC25E70224032519E7224639491E
S31508000A10062000F00BFC0121284603F009FB0028FC
S31508000A20C0F28D829DF80F30C6E72246324906206D
S31508000A3000F0FCFB284603F07DF80028F2DA009067
S31508000A402E4B40F2B7123146032000F065FC9DF8A4
S31508000A500F30B1E701217F2001F010F90028E1DA13
S31508000A600090274B4FF4FC723146032000F054FCEB
S31508000A709DF80F30A0E722462249062000F0D6FB53
S31508000A80284603F0D5F90028CCDA00901E4B4FF41F
S31508000A90E3723146032000F03FFC9DF80F308BE7E8
S31508000AA022461A49062000F0C1FB284602F07AFEC3
S31508000AB00028B7DA0090164B4FF4D072314603205F
S31508000AC000F02AFC9DF80F3076E700BF505D00085D
S31508000AD0A05C002040420F00985C00200084D717D5
S31508000AE03C5E0008B45A0008D46100082C6200086D
S31508000AF0F05A00085C600008B45F0008C45F00088C
S31508000B00185D00081C6000082C600008A85E000834
S31508000B10B85E0008F0610008C749062000F086FBA9
S31508000B20092004F04FFA0028C0F200820A2004F0D7
S31508000B3049FA0028C0F219820B2004F043FA00286B
S31508000B40BFF670AF0090BD4B4FF4EC7231460320F0
S31508000B5000F0E2FB9DF80F302EE701213F2001F05F
S31508000B608DF80028BFF65EAF009043464FF4FE723C
S31508000B703146032000F0D0FB54E72246B049062050
S31508000B8000F054FB284603F0B5F90028BFF64AAF33
S31508000B900090AC4B4FF4E5723146032000F0BCFBE5
S31508000BA09DF80F3008E72246A749062000F03EFBCD
S31508000BB0284603F0B5F80028BFF634AF0090A34BDB
S31508000BC04FF4E1723146032000F0A6FB9DF80F3082
S31508000BD0F2E69F49062000F029FB012003F024FFD6
S31508000BE00028BFF61FAF00909A4B4FF4EE723146BD
S31508000BF0032000F091FB9DF80F30DDE696490620AC
S31508000C0000F014FB41F28831012004F04FF8002867
S31508000C10BFF608AF0090914B4FF4F27231460320AD
S31508000C2000F07AFB9DF80F30C6E622468C4906206E
S31508000C3000F0FCFA284602F089FC0028BFF6F2AE5E
S31508000C400090884B40F295123146032000F064FB71
S31508000C509DF80F30B0E622468349062000F0E6FAF2
S31508000C600221284603F0E4F90028BFF6DBAE00901F
S31508000C707E4B4FF4E9723146032000F04DFB9DF898
S31508000C800F3099E622467A49062000F0CFFA284620
S31508000C9002F0FEFF031EC0F25D812246754905205B
S31508000CA000F0C4FA9DF80F3086E6734A224402F82B
S31508000CB0013C83E622467149062000F0B7FA04A9EA
S31508000CC0284602F039FE0028C0F26381049B6C496D
S31508000CD02246052000F0AAFA9DF80F306CE669490D
S31508000CE0062000F0A3FA012003F006FF0028BFF64D
S31508000CF099AE0090644B4FF4F0723146032000F031
S31508000D000BFB9DF80F3057E66049062000F08EFA77
S31508000D10012004F093F80028BFF684AE00905C4BDF
S31508000D204FF4F4723146032000F0F6FA9DF80F30BE
S31508000D3042E622465749062000F078FA284602F08D
S31508000D40A3FC031EC0F21A8122465349052000F06F
S31508000D506DFA9DF80F302FE622465049062000F01E
S31508000D6065FA0921284602F095FD0028BFF65AAE15
S31508000D7000904B4B4FF4D2723146032000F0CCFA68
S31508000D809DF80F3018E622464649062000F04EFA2E
S31508000D900A21284602F07EFD0028BFF643AE0090E1
S31508000DA0414B4FF4D4723146032000F0B5FA9DF852
S31508000DB00F3001E622463D49062000F037FA0B219E
S31508000DC0284602F067FD0028BFF62CAE0090384B87
S31508000DD04FF4D6723146032000F09EFA9DF80F3084
S31508000DE0EAE5032404252BE563B229333FF4E2AC94
S31508000DF000F0B2FA231202462E49032000F016FA32
S31508000E00D8E400902C4B2D494FF40572032000F0CE
S31508000E1083FADFE500902A4B284940F22B1203207B
S31508000E2000F07AFABBE40090264B244940F23B12C4
S31508000E30032000F071FAC5E4BC60000808610008E8
S31508000E403C6000084C600008FC5F00080C60000865
S31508000E50206100082C6100086061000874610008C0
S31508000E60605E0008705E00088C600008A4600008D8
S31508000E70D45F0008786200089C5C00207C5F00084C
S31508000E805C620008406100084C6100088C6100083B
S31508000E9098610008805E000844620008C85E000881
S31508000EA0E45E0008045F0008205F0008405F000851
S31508000EB05C5F0008745D0008945C0008B45A00087A
S31508000EC0185D00089C5D00080090404B404940F2C0
S31508000ED07512032000F020FAACE400903D4B3C4923
S31508000EE04FF4B472032000F017FA74E400903A4BFA
S31508000EF037494FF4B572032000F00EFA7DE40090EE
S31508000F00364B334940F27312032000F005FA0320EA
S31508000F1002F01CFB0028BFF687AC0090304B2C492A
S31508000F204FF4BA72032000F0F7F97DE400902D4BD8
S31508000F304FF4EB723146032000F0EEF9F6E5009027
S31508000F40294B4FF4E7723146032000F0E5F99DF886
S31508000F500F3031E5009340F2BB12244B3146032093
S31508000F6000F0DAF99DF80F3026E50090204B40F2A4
S31508000F70D7123146032000F0CFF9DDE5009340F2A1
S31508000F8099121C4B3146032000F0C6F99DF80F3024
S31508000F9012E50090184B4FF4D8723146032000F042
S31508000FA0BBF99DF80F3007E50090144B4FF4F77224
S31508000FB03146032000F0B0F9F6E40090104B40F2F9
S31508000FC0ED123146032000F0A7F9E7E42C5E00088D
S31508000FD0B45A0008E45D0008F85D00080C5E0008D5
S31508000FE01C5E0008D860000874600008E45F00080A
S31508000FF0F0600008905E0008945F0008C061000871
S31508001000AC6100082DE9F04FB0FBF1F485B001FBA7
S31508001010140004AE105C06F80C0DDDF83880DDF817
S315080010203C90109D1F46B6462346012453B1B3FB98
S31508001030F1F001FB10330134D35C0EF8013F0B2CA1
S315080010400346F3D1B8F1000F13D02FB1013FB9F120
S31508001050000F0CD1A7420ED82D20A847344414F807
S31508001060010DA847B442FAD105B0BDE8F08F2D208E
S31508001070A847A742F2D9B9F1000F14BF4FF0300BB9
S315080010804FF0200BA2460AF1010A5846A847BA456E
S31508001090F9D3B8F1000FE1D0B9F1000FDED12D2058
S315080010A0A847DBE72DE9F0474C4F84B004460D46C8
S315080010B0164607F10C0907F12008207830B12528D3
S315080010C007D00134B04720780028F8D104B0BDE82D
S315080010D0F0876078302837D002340021A0F1300339
S315080010E0092B4FF000030BD803EB830300EB4303F4
S315080010F014F8010BA0F13002092AA3F13003F3D941
S315080011006C2804BF20780134642825D00CD82528FB
S3150800111030D01DD958282FD06328CED1287805F18C
S31508001120040AB0475546C8E7732830D049D9752808
S315080011303AD1002228680191009202963A460A217D
S315080011400435FFF75FFFB8E7A07801210334C5E748
S315080011500028B2D1013CB0E72868002805F104054B
S3150800116032DB00220191009202963A460A21FFF7E5
S3150800117049FFA2E7B047A0E700222868019100923C
S315080011800296424610210435FFF73CFF95E72B6887
S315080011901878043503F1010A00288ED0B0471AF8EA
S315080011A0010B0028FAD188E7782886D1002228681A
S315080011B00191009202964A4610210435FFF722FF54
S315080011C07BE77028F2D078E7012201910092029617
S315080011D040423A460A21FFF715FF6EE7A06200086B
S315080011E00368012B08D0022B05D10A4600F1080135
S315080011F00448FFF757BF70470A4600F10C0180689C
S31508001200FFF750BFD462000810B582B002AB0A4699
S3150800121043F8040D0C4604481946FFF743FF0A2015
S31508001220A04702B010BD00BFF46200080EB470B546
S315080012308BB00FAE012456F8041B04910B78019667
S3150800124002943BB1052C05D8252B0BD011F8013F8C
S31508001250002BF7D102A900F061FC0BB0BDE8704085
S3150800126003B070474B78A3F13005092D01F102024E
S3150800127005D812F8013BA3F130010929F9D96C2BDD
S315080012800AD0642B29D01ED8582B26D0632B0FD012
S31508001290B3B313781146D4E71378642B02F101012E
S315080012A01CD026D9732B02D02ED8702B26D10A46ED
S315080012B00AAB03EB8403316843F8181C013404367F
S315080012C013781146BDE7732BF2D002D8702BEFD0F6
S315080012D0DFE7752B01D0782BDBD111460AAB621CF0
S315080012E003EB840435680B7844F8185C0436144616
S315080012F0A7E7582BF2D0632BD9D053B15378A0E780
S3150800130012F8013C511E9CE7752BE7D0782BE5D0E7
S31508001310F4E70A46F6E700BF2DE9F04788B08246AB
S31508001320109C0C4E20460F469046994600F014F83D
S3150800133024120390012550466946CDF8149004946A
S31508001340CDF8188007970296009500F0E7FB08B0DD
S31508001350BDE8F0870C6300083A30C0B23A289ABF55
S31508001360024B53F820000248704700BF3C63000850
S3150800137028640008F8B5484B484C1A684848494F4D
S31508001380494E4A4942F0010200251A6025601A684A
S3150800139022F0847222F480321A6007601A68444F79
S315080013A022F480221A6035600B6843F080530B6084
S315080013B00B683B6823F4404343F400433B603B68B7
S315080013C0236813F00C0336D0082B31D0334B1B6837
S315080013D003F00C03082B22D0364B2F4E364D002235
S315080013E01A6040F2E93403E001F01CFA013C1ED011
S315080013F0336899012846F7D4294A2E4B2F4911609C
S3150800140001221A6040F2E934234E2B4D03E001F025
S3150800141009FA013C0BD033689A012846F7D5284BC0
S3150800142002221A701B6803F0070393420BD0F8BD1B
S3150800143003685802CAD4184A136823F0F80343F01D
S3150800144080031360C2E7154D134A2B6823F0F00397
S315080014502B6013689B01EAD52B68174E23F003030C
S3150800146043F002032B604CF2513403E001F0DAF941
S31508001470013CDCD02B6803F00C03082B3046F5D171
S315080014802B6823F4E05343F480532B602B6823F432
S3150800149060432B60F8BD00BF0038024008380240A0
S315080014A004380240103000240C380240403802400C
S315080014B00070004060004742A086010010540107F2
S315080014C0003C024038B540B20D4601F009FA20202A
S315080014D001F006FA1C2445FA04F000F00F0009286A
S315080014E0CCBF37303030043C01F0FAF9231DF2D175
S315080014F00A20BDE8384001F0F3B900BF30B4084A05
S31508001500084B02F1100502F10804002102F17400EB
S3150800151083E824001C615861D960D96130BC7047E2
S31508001520E8640008A45C0020824B013800012DE91C
S31508001530F04F1C1853F800E06368A1605A69D4F8A4
S315080015400C8089B0002A00F0C180D96B002900F010
S31508001550BD80D3F800C05E68DCF800703E43CCF866
S315080015600060D3F808C0DE68DCF800703E43CCF8AB
S3150800157000601768DD691E6A2F403E43166097684B
S315080015805D6A9E6A2F403E4396605768DD6A1E6B09
S315080015902F403E435660D7685D6B9E6B2F403E4397
S315080015A0D6605D6C0F689E6C2F403E430E60DD6C06
S315080015B08F681E6D2F403E438E604F685D6D9E6D31
S315080015C02F403E434E60CF68DD6D1E6E2F403E4372
S315080015D0CE601E7E93F810A0770807F00407203720
S315080015E006F0070657F802C0B6004FF00F0909FAC9
S315080015F006FB2CEA0B0C0AFA06F64CEA0606BE505F
S3150800160093F840201F7C560806F00406203602F0A0
S3150800161007039B00725809FA03F99F4022EA090357
S315080016203B437350DEF80060B38923F400531B0470
S315080016301B0CB381338A23F440531B041B0C3382DF
S31508001640B38923F4B05323F00C031B041B0C43F09B
S315080016500C03B381B38A23F440731B041B0CB382B7
S31508001660354B9E424AD0354F354A03F580639E4234
S3150800167008BF1746B3891B0444D4324BDFF8D8C0D9
S3150800168031497A0BA3FB0232642303FB02F3ACFB5A
S315080016900757C3EB97431B013233A1FB0313C3F36D
S315080016A0431343EA02139BB23381B389214A9BB29F
S315080016B0104443F020030122B381C260B8F1000F41
S315080016C008D0B3899BB243F40053B381204609B0CE
S315080016D0BDE8F08FDEF8040003F0B8FE0028F0D06D
S315080016E002221A4D1A4B0092404640F27D12694674
S315080016F002950392049300F011FAE2E7B389104FBA
S315080017001B04BAD5134A144BDFF83CC0390BA2FBAD
S315080017100121642202FB01F2A3FB0753C2EB5343E8
S31508001720DB003233ACFB0323C3F3421343EA011352
S31508001730B9E700BFA45C00200010014080BA953EBE
S3150800174000752B7D9FA60B001F85EB51C065000811
S31508001750F06500089EA60B00C5B3A291C36810B534
S3150800176004461BB10368586803F010FE0023E360C3
S3150800177010BD00BF013870B504011E4D2B591B68FA
S3150800178099891E88B6B2320788B005EB04001CD1C9
S3150800179089B289061A4603F10C030CD419881388F2
S315080017A00A069BB205D55B0603D52C44A06800F053
S315080017B015FD08B070BDB106F0D5806800F044FD8F
S315080017C02B591A6802F10C03E8E70B4801F02AF8CE
S315080017D02A590A4B5268039269460122062000924A
S315080017E00293049600F09AF92B591A68938802F125
S315080017F00C03D3E7A45C0020A0860100006600085D
S3150800180003681A689089138810F080009BB205D087
S3150800181013F0400002D089B291800120704700BFC2
S3150800182003681B6830B59A891C88A4B2250789B055
S315080018300CD192B2910603D44FF0FF3009B030BDF7
S31508001840A206F9D59888C0B209B030BD05460B483E
S3150800185000F0E8FF2A680A4B52680392694601229B
S31508001860062002930494009200F058F92B681B682E
S315080018709B884FF0FF3009B030BD00BFA08601003D
S315080018800066000801290AD0022907D103681A68E8
S3150800189093899BB243F0200393817047704703688E
S315080018A01A6893899BB243F080039381704700BFFF
S315080018B001290BD0022908D103681A68938923F0F5
S315080018C020031B041B0C93817047704703681A6832
S315080018D0938923F080031B041B0C9381704700BF78
S315080018E00139094B53F8312080B282B090801388B1
S315080018F05B06FCD540F62C230193019B5A1E0192E8
S31508001900002BFAD102B07047E86400082DE9F043CD
S31508001910694CDFF8C4E10138642303FB004303F193
S3150800192034011F695E693A68D3F818C0DD69324325
S315080019303A60DCF800605A6ADF6A3543CCF8005032
S3150800194016681D6B37403D431560A2C996680E4060
S315080019503543956055681E6C2F403E4303F144019C
S315080019605660C2C9D5680D402E43D6603E68596D8B
S315080019709D6D0E4035433D60BE681D6ED96D54F8A9
S315080019803040586E93F828C00E403543BD607E68D7
S315080019909D6E304005437D60F868DE6E1D6F4FEA28
S315080019A05C08064008F00408354308F12008FD6085
S315080019B00CF0070058F8025093F8206093F850305E
S315080019C04FF00F09800009FA00FC25EA0C0506FA13
S315080019D000F028435D0805F0040548F8020005F103
S315080019E0200203F00703D0599B0009FA03F19E4031
S315080019F020EA01033343D351238A23F440531B04BB
S31508001A001B0C2382A38923F4B05323F00C031B0475
S31508001A101B0C43F00C03A381A38A23F440731B0415
S31508001A201B0C7445A3822CD0244B2549254A9C427D
S31508001A3008BF1146A3891B0427D4234B234D2448EA
S31508001A404A0BA3FB02326423A5FB015103FB02F3F5
S31508001A50C3EB91431B013233A0FB0313C3F34313B8
S31508001A6043EA02139BB22381A38923F0A0031B0434
S31508001A701B0CA381A3899BB243F40053A381BDE841
S31508001A80F083A3890F491B04D7D5124A0F4B104D73
S31508001A90080BA2FB0020642202FB00F2A3FB011341
S31508001AA0C2EB5343DB003233A5FB0323C3F34213D4
S31508001AB043EA0013D6E700BFE864000800140140B3
S31508001AC080BA953E00752B7D9FA60B00C5B3A291E3
S31508001AD01F85EB519EA60B000010014030B589B05A
S31508001AE001230322064D0093092469460520039322
S31508001AF002950494059200F011F809B030BD00BFB4
S31508001B0028660008044B00221A605A609A60DA6058
S31508001B101A615A61704700BF000000202DE9F041A4
S31508001B208E46EFF31183102B254C46D01022A36165
S31508001B3082F311884FF00008224A23691268CEF80A
S31508001B400420012787401F4218D076460FCED4F8C6
S31508001B5008C004EB4C151C350FC596E80F000CF1B0
S31508001B6001061F2E85E80F0084BF0023A3602368A3
S31508001B7098BFA6601F2B16D801332360636937EA1E
S31508001B80030308D1B8F1000F02D1A36983F31188C2
S31508001B900020BDE8F08170460B49FFF721FB0A20BB
S31508001BA000F09EFEEEE7E368A26862600133E36038
S31508001BB0636937EA0303E5D0EDE74FF00108BBE7B1
S31508001BC000000020B05E0020E1280008F0B50546B8
S31508001BD0EFF31183102B284E28D01022B36182F31D
S31508001BE01188D6F800E0BEF1000F41D0776806EB01
S31508001BF047141C340FCC0FC594E80F0001370EF1BB
S31508001C00FF341F2F86E8900085E80F0007D90023C8
S31508001C10F0687360F360B36983F31188F0BD00233D
S31508001C20F068F360B36983F31188F0BDD6F800E075
S31508001C30BEF1000F14D0776806EB47141C340FCC9E
S31508001C400FC594E80F0001370EF1FF341F2F86E801
S31508001C50900085E80F0006D80023F068F360F0BD11
S31508001C606FF02800F0BD0023F0687360F360F0BDE4
S31508001C706FF02800CFE700BF00000020024BC943E1
S31508001C8018615961002070470000002030B4EFF356
S31508001C901182102A104B12D010219A6181F31188F3
S31508001CA05A691D68DC6819690560D2434460816019
S31508001CB0C2609B6983F31188002030BC70475A695B
S31508001CC01D68DC6819690560D2434460C26081609A
S31508001CD030BC0020704700BF000000200A2970B5FC
S31508001CE00E4604462ED003F039FA00283FDB236B54
S31508001CF0D3B12268E36A5269D6542368E26A256B2F
S31508001D001B69013201359A422563A3EB0505E26298
S31508001D10B5FA85F504BF0022E2626D0903F05AFAA6
S31508001D20002824DB284670BD656B002DE1D13146BD
S31508001D306068FFF765FD0028F0D101216068FFF7AC
S31508001D40A1FDD6E70369DB06CDD50D21FFF7C6FF52
S31508001D50051EE7DBC7D02368586802F0D9FB051EC5
S31508001D60C1DA6BB213F1330FDCD03133DAD0012389
S31508001D70E3606FF00405D5E70449054B002201F13D
S31508001D801800986319609A601A647047DC6700083F
S31508001D901C04002070B5064603F0C8FA002840D196
S31508001DA0731E012B36D8234CC3EBC30304EBC304C1
S31508001DB003F03EFA002837DBA5683DB16FF0280529
S31508001DC003F062FA00282FDB284670BD40F2115353
S31508001DD06561A561E56184F820506562A562E562E2
S31508001DE025636563236103F0B9F9002816DB3046DD
S31508001DF02146FFF799FB012602216060FFF742FDA5
S31508001E00E560A66003F0E6F90028D9DAE6606FF027
S31508001E100405D5E76FF01105284670BD6FF0040577
S31508001E20CEE76FF01805CFE70123E3606FF00405EE
S31508001E30CAE700BF1C0400202DE9F843044603F056
S31508001E4075FA002845D1013C012C36D8814603F0A5
S31508001E50EFF9E700DFF88C803D1B002808EBC50585
S31508001E603ADBAB6843B96FF0280603F00DFA002891
S31508001E7032DB3046BDE8F88303F070F93C1B0646B2
S31508001E806868FFF76BFCE400C5F8089003F0A2F950
S31508001E9058F8043000285868ACBFF60F012602F03F
S31508001EA021FC58F80430002818680BDB02F01AFCED
S31508001EB0002809DB002ED8D006E06FF01106304660
S31508001EC0BDE8F88302F00EFC0123EB606FF0040610
S31508001ED0CBE76FF01806CCE70123EB606FF004063A
S31508001EE0C7E700BF1C0400202DE9F84F81460D46C0
S31508001EF0174603F01BFA00284AD109F1FF39B9F150
S31508001F00010F35D84FEAC90ADFF8A0B0AAEB0906CF
S31508001F100BEBC606B368002B3ED0F468002C3FD105
S31508001F20002F41D00120B04630B1D8F800305868AB
S31508001F3002F0EEFA00280DDB15F8011B3046FFF714
S31508001F40CDFE002810DB0134A742EDD1A0B1204612
S31508001F50BDE8F88F43B213F1330F05D0313303D000
S31508001F600123F3606FF00400002CF0D1BDE8F88F70
S31508001F706FF01100BDE8F88FAAEB09095BF8393054
S31508001F80586802F0EFF90028E1DA0123F360DEE78A
S31508001F906FF01800BDE8F88F6FF02800BDE8F88FDD
S31508001FA06FF00400BDE8F88F3846DFE71C04002010
S31508001FB02DE9F04F83B082460F46904603F0B6F9F6
S31508001FC0002840F0B6800AF1FF33012B009300F297
S31508001FD0A680DA00A2EB03095B4B019203EBC90961
S31508001FE0D9F80830002B00F0A780D9F80C50002D3E
S31508001FF040F0A580B8F1000F00F0A4804FF0010A68
S31508002000CB46BAF1000F06D0DBF80030186802F0AC
S315080020107FFA00287CDB03F0A1F8002861DBDBF8F7
S315080020200020DBF81430D1689268CE5CDBF81C40DF
S3150800203001339342CBF8143008BF002304F1FF3470
S3150800204008BFCBF81430DBF82430CBF81C40B4FAC0
S3150800205084FA4FEA5A1A13B1B4EB520F2CD903F08B
S31508002060B9F800283DDB07F8016BDBF81030DB0711
S3150800207005F1010507D4A845C3D1002C3BD1284654
S3150800208003B0BDE8F08FDBF80030586802F040FA7C
S31508002090002847DB31464846FFF720FE0028EEDBDE
S315080020A0E9D1DBF80030586802F05CF90028E2DA7A
S315080020B00123C9F80C30E2E71121D9F80400FFF72B
S315080020C09FFB38B90121D9F80400FFF7DBFB112380
S315080020D08BF820300023CBF8243003F07BF8002857
S315080020E0C1DA0123C9F80C306FF00400002DC6D1FF
S315080020F003B0BDE8F08F9DE80C00A3EB020A124B73
S3150800210053F83A30186802F02DF90028B7DACFE705
S3150800211043B213F1330FE9D03133E2D1E6E76FF07A
S315080021201100ADE740B210F1330FA8D03130BFD15E
S31508002130A5E76FF01800A3E76FF02800A0E76FF097
S3150800214004009DE740469BE71C04002038B504467A
S315080021500D4603F0EBF880B9601E01280AD80B4B30
S31508002160C0EBC00003EBC0039A684AB1D86850B9FF
S315080021701D6138BD6FF0110038BD6FF0180038BD0D
S315080021806FF0280038BD6FF0040038BD1C0400202D
S3150800219038B504460D4603F0C9F898B9601E0128FB
S315080021A00DD80D4BC0EBC00003EBC0039A6862B1B3
S315080021B0D86868B9DA691B6B85E80C0038BD6FF01A
S315080021C0110038BD6FF0180038BD6FF0280038BD13
S315080021D06FF0040038BD00BF1C04002038B590F825
S315080021E02010044649B9456B0DB9036B63B960689D
S315080021F00121BDE83840FFF75BBB4068FFF700FBED
S31508002200002384F8203038BD0268836A5269406822
S31508002210D15CFFF7F5FA2168A36A0A69013393428C
S31508002220A362236B08BFA5629A4202D0013B2363CF
S3150800223038BD486802F0FEF80028B7BF0122236BB4
S31508002240236BE260F2E700BF38B504464068FFF743
S31508002250E7FA2369DD05C0B20ED5132858D0626B9C
S31508002260002A38D0112801D0990508D5236B0025F6
S315080022706563002B37D138BD626B002AF2D123681B
S31508002280E1699A689142F6D0DA68A369D05422685F
S31508002290A369916801338B42A36104BF0023A3613C
S315080022A0E369002B37D0226901335205E361E2D591
S315080022B0626A002ADFD12268926802EB4202B3EB17
S315080022C0920FD8D313216068FFF79AFA00282CD00A
S315080022D00123636238BD1128CDD02368E1699A6865
S315080022E09142D1D1C7E72268A36A52696068D15C76
S315080022F0FFF786FA18B32168A36A0A69013393427D
S31508002300A3621AD0236B9A421FD0013B236338BDC0
S315080023100123636338BD106802F08CF80028B7BF44
S315080023200122E369E369E260BDE701216068FFF71E
S31508002330A9FA132384F82030CAE7A562E2E76068A1
S315080023400121BDE83840FFF79DBA486802F072F8E7
S315080023500028B7BF0122236B236BE260D5E700BFD5
S31508002360421E012A01D900207047F0B4D700BC1AD2
S315080023700E4DE4002E19B068B0B1306BA0B12859E3
S31508002380B36A4069C35C0B702959B36A096901339A
S31508002390BA1A8B4205EBC205B36204BF0023B362C7
S315080023A02B6B013B01202B63F0BC70471C040020FB
S315080023B000B583B002A9054B01F8010D0122186882
S315080023C0FFF792FD03B05DF804FB00BF8C08002000
S315080023D030B587B0044602F0A9FF10BB124D0FE0D6
S315080023E0029BA34207D8ACB92868FFF7D1FE00289C
S315080023F00CDB019B73B1012001F0CAFD00280CDB40
S3150800240002A8FFF743FC00286946E9DA6FF00400E2
S3150800241007B030BD002007B030BD10F1310FF5D13F
S31508002420F6E76FF01800F3E78C080020F0B51E4EAB
S315080024301E4D30608BB0FFF7ADFC01213F20FFF742
S315080024401DFC32681A4B059202A901220520029248
S315080024500493FFF763FB0A27002402E0029B044467
S315080024604BB902A8FFF7B2FB0028F7DA8CB90A20A5
S3150800247001F08EFDF0E78CB9294602A8FEF7B0FEFA
S3150800248001220DF1070130688DF80770FFF72CFD62
S31508002490E2E720462946FEF7B7FEE8E72046294642
S315080024A0FEF7B2FEE8E700BF8C080020B12300085B
S315080024B00C68000830B5194C8BB003E09DF907008D
S315080024C000F00EFA0DF107012068FFF749FF0546EF
S315080024D00028F3D102A8FFF779FB041E01DA0BB036
S315080024E030BD0F4A0F4829461546FEF7DBFD04E0C6
S315080024F002A8FFF76BFB041EF1DB204629460CB148
S31508002500FEF782FE029B002BF2D002A82946FEF7B0
S3150800251067FE0A2000F0E4F9EAE700BF8C0800200D
S31508002520E1280008386800080220FFF723B900BF31
S315080025300120FFF71FB900BF08B500F0BBFB01F08B
S31508002540F9FE02F037FA02F099FB02F00BFFBDE83C
S31508002550084003F073B800BF08B5002000F08AF9F8
S315080025600020FFF7CFFA0020FFF7B8FA0020FEF7A1
S31508002570C5FF0020BDE80840FFF7FEBB08B50020F0
S31508002580FFF798FF0020BDE8084000F08DB900BFAE
S315080025902DE9F04FEFF3148010F0040F01D02DED64
S315080025A0108A01B4A3480168C1F818D0DFF888E298
S315080025B0C1F81CE0EFE008BC13F0040F01D0BDEC35
S315080025C0108ABDE8F04F887B10F0040F08D0086920
S315080025D0004205D099490868004201D0984800474A
S315080025E0704700BFEFF31382C2B9EFF311801028CA
S315080025F014D01EF0040F08D0EFF3098323E9014035
S3150800260083F3098801B5184601E001B56846EFF37A
S3150800261005838C4951F8232090473DE01EF0040FAE
S3150800262008D0EFF3098323E9014083F3098801B54C
S31508002630184601E001B56846EFF30583814951F86C
S315080026402320904771B60ABC13F0040F00D105E0A9
S31508002650EFF3098202F1080282F3098881F31188EF
S315080026601847EFF311801EF0040F08D0EFF3098323
S3150800267023E9014083F3098801B5184601E001B54D
S315080026806846EFF305836F4951F823206E4951F8E0
S3150800269023E08EF31188904771B60ABC13F0040F35
S315080026A000D108E06948026842B9EFF3098202F1ED
S315080026B0080282F3098881F3118818474FF0000150
S315080026C00160102181F311884FF001016048016013
S315080026D000216048016060484FF08071EFF309827D
S315080026E022E90300183A82F309886FF002000047CE
S315080026F05048016859480268DAB159480268914257
S3150800270017D0019B13F0100F01D12DED108A08B4D4
S315080027102DE9F00FC1F818D0DFF848E1C1F81CE040
S3150800272039E0BDE8F00F08BC13F0100F01D1BDEC7D
S31508002730108A887B10F0040F08D0086930B13F4929
S31508002740086818B117EE903A00F0A2FCEFF314836C
S3150800275023F0040383F3148800DF71B6EFF30980CE
S315080027602030B0E8024080F309884FF0000038496D
S315080027700860002181F3118870473B48016881F39E
S315080027800888102181F3118861B64FF0020080F3A2
S315080027901488BFF36F8FEFF3148323F0040383F3D6
S315080027A014882F480168234A116019B1D1F818D046
S315080027B0D1F81CF04FF0000080F31488BFF36F8F38
S315080027C04FF000041025214E214F3C6072B684F369
S315080027D0118830BF62B685F3118830680028F5D0B5
S315080027E034604FF0020080F31488BFF36F8F4FF008
S315080027F001023A6017480460D3E74FF0000080F3FF
S315080028001488BFF36F8F194800474FF00000104C2B
S31508002810206080F31188DFF858E08A68506891686C
S31508002820084700BF6438002800DC7047663800286F
S31508002830FCDC7047A45E0020B7250008A85E0020CF
S3150800284091300008FC69000854680008145E0020EE
S315080028500C5E0020085E0020F0260008985E002026
S31508002860105E002023270008886B0008F12B00085B
S315080028700D370008084B09481A68094910B4094C6D
S3150800288022F001021A60216001601A685DF8044BA3
S3150800289042F005021A60704710E000E018E000E018
S315080028A01F48010014E000E0014B00221A6070473F
S315080028B010E000E0014B1B6800F0B8BD10E000E036
S315080028C008B500F07DF80120FFF720F8014BE0225B
S315080028D01A7008BD23ED00E008B500F0A3F8FEE77E
S315080028E00A2810B5044605D020460121BDE8104047
S315080028F0FEF7F6BF01210D20FEF7F2FF2046012163
S31508002900BDE81040FEF7ECBF031F0B2B13D80F4B87
S31508002910820853F822301A6800F0030010B4C00089
S31508002920FF24844001FA00F022EA040108435DF816
S31508002930044B18607047A0F11003522BFAD823F005
S31508002940030303F1604303F56443E4E71C6D0008E1
S31508002950052810D0062808D0042800D07047094A50
S31508002960136843F4803313607047064A136843F4C8
S31508002970802313607047034A136843F400331360D7
S31508002980704700BF24ED00E0052810D0062808D0BF
S31508002990042800D07047094A136823F4803313606B
S315080029A07047064A136823F4802313607047034A66
S315080029B0136823F400331360704700BF24ED00E06A
S315080029C0124A134B1349144830B411601968134D51
S315080029D0134C21F0FF011960196821F47F41196031
S315080029E0196821F47F0119602B6823F07F432B6057
S315080029F0936923F0FF0393619369012523F47F0309
S31508002A00002193612560016030BC704708ED00E045
S31508002A1018ED00E000000008085E00201CED00E04C
S31508002A200C5E002000B583B0044B0193019B0BB1EB
S31508002A30019B984703B05DF804FB00BF0000000047
S31508002A402DE9F043A0F10F03532B89B005460F4635
S31508002A5014464BD804F10F030E2B3AD84FEA5519F2
S31508002A60DFF8D08005F01F0658F82920012303FA5D
S31508002A7006F616420AD00F2D45D0A5F1100202F02F
S31508002A801F0027495209834041F822306142C9B2E2
S31508002A90C1F1100109012846FFF736FFFB0702D4EA
S31508002AA009B0BDE8F08358F829301E42F8D00F2D3A
S31508002AB02FD0103D6B099B0003F1604303F561437A
S31508002AC0012205F01F0502FA05F51D6009B0BDE8EB
S31508002AD0F0830222134E144B00926946F522002019
S31508002AE0029603920493FFF719F8B7E702220D4EF0
S31508002AF00E4B00926946F422002002960392049334
S31508002B00FFF70CF8A6E70A4A136823F002031360D6
S31508002B10BCE7074A136843F002031360C0E700BF27
S31508002B2080E100E02C6D0008786D00085C6D0008F7
S31508002B3010E000E0E06900082DE9F041044684B0A1
S31508002B40D0F80080066A476AEFF305850749002032
S31508002B50FEF76CFB3346C5F30802054902940020CC
S31508002B608DE88001FEF762FBFFF7B6FEA86D000848
S31508002B70C86D00082DE9F041044684B0D0F80080FD
S31508002B80066A476AEFF3058507490020FEF74EFBFC
S31508002B903346C5F308020549029400208DE88001F2
S31508002BA0FEF744FBFFF798FE186E0008C86D00088C
S31508002BB008B5FFF785FE00F0E1FAFFF7BDFCFFF761
S31508002BC0CBFC024B01221A60FFF7D7FD905C002070
S31508002BD008B5EFF31183102B02D0102383F3118865
S31508002BE0024B00221A60FFF708FE00BF905C002027
S31508002BF008B5FFF7C3FCFFF76FFE00BF30B5144BEF
S31508002C001C8889B0A4B114F0FF0F1DD0002114F060
S31508002C100F03104A104808BFC4F303131A4408BF29
S31508002C20043112F8013C0B4450F8330009B030BDAA
S31508002C3002220A4D0A4B00926946AC2220460295AA
S31508002C4003920493FEF76AFF240A0821DFE700BF10
S31508002C509C5E0020386E0008185E0020486E00084A
S31508002C60606E0008F0B40F4A417B0F4D0F4E2F8857
S31508002C7002EBC10432686368436001238B403B431F
S31508002C8067680460386060602B8012B1537B994294
S31508002C9004D2074B30601868F0BC70470020F0BCBF
S31508002CA0704700BF185E00209C5E0020105E002062
S31508002CB0985E00202E492F482DE9F84F00222E4F06
S31508002CC02E4E2F4D2F4C304B0A6001213A60326050
S31508002CD02A602160016003F180025B601B60083393
S31508002CE09A42FAD1294A2A4BD2F800A000241C801D
S31508002CF0BAF1000F39D0274FDFF8A0B0264EDFF81B
S31508002D00A09025464FF0010801E0A2452DD057F8BE
S31508002D10043B013B5B010BEB030106EB030E91F849
S31508002D200EC0DEF80C20F3584A736FF3000C5FFAF6
S31508002D308CF202F0FD0265F382029B07C1F808E0F7
S31508002D400D7304F101048A730D61DED5DEF81430C3
S31508002D50DEF81020C1F81C901344084681F80C8050
S31508002D608B61FFF77FFFA245D1D1BDE8F88F00BF81
S31508002D70A45E0020985E0020105E0020145E0020ED
S31508002D80A05E0020A85E0020185E0020186D0008CE
S31508002D909C5E0020646C0008786C0008685D002062
S31508002DA00B280008F0B543680268457B264E1A6072
S31508002DB0016856F835204B6006EBC5039A4289B080
S31508002DC006D0224B1968884238D0002009B0F0BDD9
S31508002DD05B689A4204460BD002221D4F1D4B009297
S31508002DE0694697220020029703920493FEF796FEFF
S31508002DF01948164F03883968012202FA05F523EAAD
S31508002E0005058C420580E0D19DB115F0FF0F06BF80
S31508002E102D0A08210021114A15F00F0308BFC5F332
S31508002E2003131A4408BF043112F8013C0B4456F840
S31508002E3033500B4B3D60186809B0F0BD08491A605D
S31508002E40086809B0F0BD00BF185E0020105E0020BB
S31508002E50706E00088C6E00089C5E0020386E0008B4
S31508002E60985E0020837B81680022027303F0FD03CD
S31508002E70C968417362F3820302618373704700BFB6
S31508002E8081684A6909690A44012110B4034C01732F
S31508002E90C46182615DF8044BFFF7E4BE0B280008A5
S31508002EA02DE9F043037B467B4173DA0789B02ED5BB
S31508002EB090E80C00DFF854811A600F46016858F84C
S31508002EC036204B6008EBC603934204464BD048486D
S31508002ED00388DFF83C9108EBC7020125BD4051681D
S31508002EE061602B439DB2D9F80030516822609C423C
S31508002EF00C60546005804CD05B7B9F420BD23D4BE7
S31508002F00C9F800401B68184609B0BDE8F08303F00D
S31508002F1078031F2B04D80023184609B0BDE8F083B0
S31508002F20436959688B681B68DB07F4D542680368F0
S31508002F30136004680B68626099420D46447B03D1AE
S31508002F4006E01B68994203D05A7BA242F9D91D466E
S31508002F506B6843606A6805600023106068601846FD
S31508002F6009B0BDE8F0835A6893420BD00222224882
S31508002F70224B0092029097226946002003920493FE
S31508002F80FEF7CCFD1A4801220388B24023EA020361
S31508002F909FE7BE42BFD8DDB115F0FF0F24D0002150
S31508002FA015F00F03164A08BFC5F303131A4408BFE2
S31508002FB0043112F8013C0B4458F83330C9F8003094
S31508002FC09C42A8D00B4B1B68002BA4D00123A3E777
S31508002FD002220C480C4B00920290AC226946284605
S31508002FE003920493FEF79AFD2D0A0821D8E700BF3D
S31508002FF09C5E0020985E0020706E00088C6E0008AB
S31508003000386E0008486E0008606E0008185E0020DA
S31508003010105E0020194970B551F8303001EBC00236
S315080030209A4288B01AD01C68A2420DD041F83040A6
S315080030301D68134C6A6055685D60256856681A6095
S315080030409D423360536002D0002008B070BD0D4B1E
S3150800305051F830201868226008B070BD53689A424B
S31508003060F2D00222084C094B0092694697220020AA
S31508003070029403920493FEF751FDE5E7185E0020DB
S31508003080105E0020985E0020706E00088C6E0008A6
S315080030902DE9F04FDFF8D490DFF8D4A0D9F8002056
S315080030A0DAF80060917B10692D4C2E4FDFF8C4804A
S315080030B0DFF8C4B083B0B6FA86F36FF382015B0912
S315080030C091730193002518E082F311880123C8F84B
S315080030D00030D9F80020DBF80010937B00916FF3DD
S315080030E082039373009B20480199CAF800609A42AC
S315080030F0016000D02EB3106950B3156125603B6896
S3150800310083F31188D9F800309B68DA6959689047C3
S31508003110236853B9EFF311835A1E0F2A02D91022D6
S3150800312082F311883B6001232360D8F80030002B16
S31508003130CFD12268002AC7D03B60102383F31188B9
S31508003140C4E7FFF725FAD9F8002010690028D4D17A
S31508003150937B43F00403937303B0BDE8F08F00BF7D
S315080031600C5E0020085E0020985E0020A45E002009
S31508003170A05E0020A85E0020105E002030B406483D
S31508003180064D074C074A002301212B602360036084
S31508003190116030BC704700BFB85E0020B05E0020EA
S315080031A0AC5E0020B45E00200128F0B5044627D99D
S315080031B04208561E134D144855F83630D0F800C04C
S315080031C0A3EB0C03A1EB0C0E734507D818E055F8D2
S315080031D03630A3EB0C03734510D93A4605EBC60304
S315080031E093E80300631E570805EBC303012A83E827
S315080031F0030007F1FF360C601446E8D11046F0BD0F
S315080032002246FBE71C5D0020AC5E00201E4B2DE924
S31508003210F041D3F800E04200964530D31B4B1C4ED4
S31508003220D3F800C00746A1EB0C0815E056F8334062
S315080032301546A4EB0C017C1E884506EBC30306EB7A
S31508003240C4044FEA45021BD993E80300724584E893
S3150800325003000F602F4613D8551C754502F1FF333E
S31508003260E4D856F8334056F83200A4EB0C01A0EB2C
S315080032700C0088423ABF134601461546DBE7074667
S315080032803846BDE8F08100BFB85E0020AC5E00207D
S315080032901C5D00201F4B2DE9F0431C680134012CEE
S315080032A0804689461C6030D96208561E1A4D1B494D
S315080032B055F83630D1F800E0A3EB0E03A9EB0E0C57
S315080032C0634507D824E055F83630A3EB0E0363456B
S315080032D010D93A4605EBC60393E80300631E570860
S315080032E005EBC303012A83E8030007F1FF360C60E8
S315080032F01446E8D1531E05EBC30145F83390C1F8CF
S315080033000480C8F80020BDE8F0832246024DF1E7A4
S315080033102246EFE7B85E00201C5D0020AC5E002068
S315080033202DE9F843DFF8CC90304DD9F800700368E2
S31508003330013FC9F8007055F83710002F4CD0012B03
S315080033403AD95E08741E2A4855F83420D0F800C0C9
S31508003350A2EB0C02A1EB0C0890452DD2E200A918AD
S3150800336003C903F1FF3E05EBCE0E012E8EE80300DE
S315080033700B6036D09B0803F1FF3E55F83E10A1EBD3
S315080033800C01884508D32EE055F83E10A1EB0C0138
S31508003390884523D21346741E05EBCE0103C95A0885
S315080033A005EBC404012B84E8030002F1FF3E0E601E
S315080033B01E46E9D1002207E01846FFF727FFD9F88D
S315080033C00070421E0346D20005EBC70797E80300C4
S315080033D02A4482E803000B60BDE8F8835A1ED2002F
S315080033E0F2E73346E6E73346EEE700BF1C5D00200A
S315080033F0AC5E0020B85E00200268094B09480A49FD
S315080034001B680968013A10B450F83200CC1AC31A7E
S31508003410A3428CBF401A00205DF8044B704700BFDA
S31508003420AC5E00201C5D0020B45E00202DE9F0474C
S3150800343088B0EFF314839B070CD50222394C3A4B1C
S31508003440009269464FF4B2720020029403920493E4
S31508003450FEF764FB354F3B68002B54D1EFF311831D
S315080034605A1E0F2A02D9102282F31188DFF8D48057
S315080034700122C8F800303A602D4BDFF8CC90186866
S315080034802C4ED9F80010306082181A602A4D81B384
S315080034902A4C2A6823689B1A821A934207D928E07D
S315080034A02B6822683068D21AC31A9A4221D84B1E52
S315080034B0C9F8003054F83310D4F804A07BB10120C1
S315080034C0FFF7A4FED9F8003004EBC303024693E8DD
S315080034D00300531E04EBC30383E803000A60DAF80B
S315080034E00430DAF808009847D9F800100029D7D12F
S315080034F03068286000233B60D8F8003083F31188D1
S3150800350008B0BDE8F0870222064C0D4B00926946CA
S3150800351040F265120020029403920493FEF7FEFA25
S315080035209CE700BFA86E0008D86E00080C5E002055
S31508003530B45E0020B05E0020AC5E00201C5D00205A
S31508003540C86E0008085E0020B85E0020EFF31483FA
S315080035509B0702D46FF01800704770B51E4C23689D
S31508003560002B36D1002830DD1C4B1B68984221DC25
S315080035701B4B013803EB4010EFF311835A1E0F2A39
S3150800358002D9102282F31188164D01222B6022607F
S31508003590067B96B1827B12F0010305BF42F0010259
S315080035A082736FF02A001846002323602B6883F382
S315080035B0118870BD6FF0110070BDFFF761FC00281F
S315080035C0F2D0FEF7E5FF3046EEE7F3D1064B186872
S315080035D0D2E76FF0180070BD0C5E0020186D000869
S315080035E0685D0020085E0020A45E0020F8B5EFF3B1
S315080035F014839B0702D56FF01800F8BD1D4C23688D
S31508003600002BF8D1002832DD1B4B1B6898422EDCB4
S31508003610431EEFF31182511E0F2914D8174D0126A8
S315080036202A602660164800EB4310077BBFB1837BF0
S3150800363013F001030BD06FF02A00002323602B68D8
S3150800364083F31188F8BD102181F31188E6E700F1AC
S3150800365008021846937943F001039371EDE7FFF7E3
S315080036600FFC0028E9D0074B38461E60E5E76FF0E7
S315080036701100F8BD0C5E0020186D0008085E0020D9
S31508003680685D0020145E0020EFF314839B0702D4C4
S315080036906FF018007047184B1A68002AF8D10028EE
S315080036A026DD164A126890421FDC154A013802EBDD
S315080036B0401210B4EFF31180411E0F2902D91021D0
S315080036C081F311880F49012408601C60907B044629
S315080036D06FF30004947300F0010000221A600B686F
S315080036E083F311885DF8044B70476FF0110070473B
S315080036F0FBD1054A1268DCE70C5E0020186D00084D
S31508003700685D0020085E0020A45E0020EFF31483A5
S31508003710990724D51D4B1A6810B51AB31C4A1168A7
S3150800372009B1002111601B4A116841B91B6813B120
S3150800373019481023016083F3118801231360174C7D
S31508003740174B206801221A60FFF72CFB2068FFF749
S3150800375089FB2068837BDA0711D4FFF71CF86FF022
S3150800376018007047EFF31182511E0F2902D9102154
S3150800377081F311880848012102601960CEE76FF3CA
S3150800378000038373FFF77CFBE7E700BF0C5E0020AE
S31508003790A05E0020A85E0020085E0020A45E00202F
S315080037A0985E0020EFF314839B0702D46FF018008D
S315080037B070472DE9F041324E3368002B57D1002867
S315080037C051DD304B1B6898424DDC2F4B2F4D1B6843
S315080037D0013844012F199F424DD0EFF311835A1E29
S315080037E00F2A02D9102282F31188DFF8A480012259
S315080037F0C8F8003032602B191B7B4BB96FF02800D4
S3150800380000233360D8F8003083F31188BDE8F081CF
S31508003810D90718D49A070DD503F078030F2B04D9C6
S315080038207B682A591A602A5953607B69186808B157
S31508003830FFF776FD2C443846FFF714FBA37BDB071E
S3150800384005D40020DCE73846FFF7ACFAF2E7A37B9D
S315080038506FF300033846A373FFF712FB0028F0D076
S31508003860FEF796FEEDE76FF01100BDE8F0816FF008
S315080038701800BDE8F0816FF01B00BDE8F08100BFBD
S315080038800C5E0020186D0008A45E0020685D00200C
S31508003890085E002038B5EFF314839B0702D46FF057
S315080038A0180038BD1F4C2368002BF8D100282FDDDF
S315080038B01D4B1B6898421EDC10292FD81B4B01385C
S315080038C003EB4010D1B98368D968EFF311835A1E08
S315080038D00F2A02D9102282F31188154D01222B6076
S315080038E02260037B63B96FF02800002323602B68EE
S315080038F083F3118838BD6FF0110038BD0139E4E74C
S31508003900FFF7CEFA0028F0D0FEF742FE0020ECE7DB
S31508003910F1D1102902D8074B1868D3E76FF01000C9
S3150800392038BD00BF0C5E0020186D0008685D0020D9
S31508003930085E0020A45E0020EFF314839B0702D4E0
S315080039406FF018007047194B1A68002AF8D100283A
S3150800395027DD174A126890421DDC164A013802EB29
S31508003960401030B4EFF31184621E0F2A02D91022D8
S3150800397082F31188104A012514601D60047B6CB11E
S31508003980407B28440860002000211960136883F3EF
S31508003990118830BC70476FF0110070476FF028002F
S315080039A0F2E7F8D1054A1068DBE700BF0C5E002095
S315080039B0186D0008685D0020085E0020A45E0020DF
S315080039C0EFF314839B0702D46FF0180070470F4B70
S315080039D01A68002AF8D110B4EFF311814A1E0F2A8B
S315080039E002D9102282F31188094A012411601C6049
S315080039F008490968896849680160002018601368E1
S31508003A0083F311885DF8044B704700BF0C5E0020F5
S31508003A10085E0020A45E0020EFF314839B0702D4FF
S31508003A206FF018007047F0B5194C236883B063BB74
S31508003A30184B1B684BB3EFF311835A1E0F2A14D881
S31508003A40154D01222B602260144E3068837B13F0DB
S31508003A5002070ED06FF3410383730020002323600F
S31508003A602B6883F3118803B0F0BD102282F3118806
S31508003A70E6E70A230373FFF795F93368019701AA66
S31508003A805A61FEF785FD0198E8E76FF01800EAE746
S31508003A900C5E0020985E0020085E0020A45E0020D0
S31508003AA0EFF314839B0702D46FF01800704730B504
S31508003AB01C4C236885B07BBB1B4B1B6863B3411C3E
S31508003AC02DDBEFF311835A1E0F2A02D9102282F337
S31508003AD01188164D01222B602260154B19688B7BC5
S31508003AE09A0709D468B96FF03100002323602B6860
S31508003AF083F3118805B030BD6FF341038B73002043
S31508003B00F3E70A2302460B73684601A901F030FE63
S31508003B10FEF73EFD0098E8E76FF01800EAE76FF059
S31508003B201000E7E70C5E0020985E0020085E002083
S31508003B30A45E002038B5EFF314839B0702D46FF018
S31508003B40180038BD214C2368002BF8D100282CDD3D
S31508003B501F4B1B6898421DDC1E4B013803EB4013B4
S31508003B60EFF31182511E0F2902D9102181F3118812
S31508003B70194D01212A6021601A7B72B102F0780280
S31508003B80082A19D09A7B12F0020012D142F00202DA
S31508003B909A7304E06FF0110038BD6FF02800002317
S31508003BA023602B6883F3118838BDF3D10B4B1B6850
S31508003BB0D6E76FF02A00F2E7184601F00FFE002854
S31508003BC0EDD0FEF7E5FC0020E9E700BF0C5E00201B
S31508003BD0186D0008685D0020085E0020A45E0020BD
S31508003BE0EFF314839B0724D470B5244C2368002B69
S31508003BF040D100283BDD224B1B68984237DC013850
S31508003C00EFF311835A1E0F2A02D9102282F3118864
S31508003C101C4D01262B6026601B4B03EB4010037BD3
S31508003C2053B96FF02800002323602B6883F31188AB
S31508003C3070BD6FF01800704703F07803082B0ED09C
S31508003C40837B13F0020207D100F1080310469A7924
S31508003C5042F002029A71E6E76FF02A00E3E701F004
S31508003C60BDFD0028DFD0094B00201E60DBE76FF0A2
S31508003C70110070BD6FF0180070BD00BF0C5E00200B
S31508003C80186D0008085E0020685D0020145E00209C
S31508003C90EFF314839B0702D46FF0180070471B4B91
S31508003CA01A68002AF8D100282BDD194A12689042B2
S31508003CB021DC184A013802EB401210B4EFF31180E8
S31508003CC0411E0F2902D9102181F3118812490124B6
S31508003CD008601C60107B88B1907B04466FF3410432
S31508003CE09473C0F3400000221A600B6883F31188AE
S31508003CF05DF8044B70476FF0110070476FF02800AD
S31508003D00F1E7F8D1054A1268D7E700BF0C5E002034
S31508003D10186D0008685D0020085E0020A45E00207B
S31508003D2038B5EFF314839A0702D46FF0180038BD3C
S31508003D30184C2368002BF8D1002827DD164B1B6882
S31508003D40984223DC0138EFF311835A1E0F2A11D843
S31508003D50124D01222B602260114B03EB4010037BAE
S31508003D609B070BD46FF02800002323602B6883F38E
S31508003D70118838BD102282F31188E9E701F0A2FD07
S31508003D800028F1D0FEF704FC0020EDE76FF01100E3
S31508003D9038BD00BF0C5E0020186D0008085E0020C4
S31508003DA0685D0020EFF314839A0722D470B51B4C84
S31508003DB02368002B2FD100282ADD194B1B6898424F
S31508003DC026DC0138EFF311835A1E0F2A14D8154D35
S31508003DD001262B602660144B03EB4010037B9B07E0
S31508003DE00ED46FF02800002323602B6883F3118814
S31508003DF070BD6FF018007047102282F31188E6E74D
S31508003E0001F060FD0028EED0084B00201E60EAE7AE
S31508003E106FF0110070BD6FF0180070BD0C5E0020C9
S31508003E20186D0008085E0020685D0020145E0020FA
S31508003E3038B5EFF314839A0702D46FF0180038BD2B
S31508003E40264C2368002BF8D100282CDD244B1B6850
S31508003E5098421DDC234B244A013803EB4010EFF34C
S31508003E601183591E0F2902D9102181F311881F4D7C
S31508003E7001212B602160136898421DD0027B52B144
S31508003E80D30720D412F0040311D06FF02A0004E0FF
S31508003E906FF0110038BD6FF02800002323602B68EF
S31508003EA083F3118838BDF3D10F4A1068D7E742F07B
S31508003EB0040202731846F0E70D4B1B68002BDDD190
S31508003EC06FF01800E9E704230373FEF76BFF002879
S31508003ED0E3D0FEF75DFB0020DFE700BF0C5E0020A5
S31508003EE0186D0008685D0020A45E0020085E0020AA
S31508003EF0985E0020EFF314839B0702D46FF0180036
S31508003F00704770B51E4C2368002B35D1002830DD6C
S31508003F101C4B1B6898422CDC0138EFF311835A1EA0
S31508003F200F2A02D9102282F31188174D01212B601E
S31508003F302160164B03EB40131A7B500707D46FF02A
S31508003F402800002323602B6883F3118870BD12F0C4
S31508003F50020604D022F004021A730020F1E718467C
S31508003F601973FEF77FFE0028EBD0FEF711FB3046EB
S31508003F70E7E76FF0110070BD6FF0180070BD00BF65
S31508003F800C5E0020186D0008085E0020685D0020A1
S31508003F90EFF314839B0702D46FF018007047F0B54F
S31508003FA01D4D2B6885B0002B30D11C4B1B686BB39D
S31508003FB000282EDBEFF311835A1E0F2A22D8184E3B
S31508003FC00122336004462A60164F386802230373B9
S31508003FD0FEF7E8FE144B3A681968C2F814D001AB2C
S31508003FE018462144114F039200930297FFF752F99E
S31508003FF0FEF7CEFA009800232B60336883F3118806
S3150800400005B0F0BD102282F31188D8E76FF01800CA
S31508004010F6E76FF01000F3E70C5E0020985E0020CC
S31508004020085E0020A45E0020B45E00203D5800080B
S3150800403038B5EFF314839B0702D46FF0180038BD28
S31508004040244C2368002BF8D100282EDD224B1B6850
S31508004050984224DC002939D0204B013803EB401064
S31508004060EFF311835A1E0F2A02D9102282F3118800
S315080040701B4D01222B602260037B9BB18368DB69A1
S3150800408083B1184A0369126819439042016111D035
S315080040900020002323602B6883F3118838BD6FF056
S315080040A0110038BD6FF02800F3E7F8D171B10D4B58
S315080040B01868D5E7807B10F00400EAD00A4B186828
S315080040C00028E6D0FEF7E4FF0020E2E76FF01000D4
S315080040D038BD00BF0C5E0020186D0008685D002022
S315080040E0085E0020A45E0020A85E0020EFF314837B
S315080040F09B0702D56FF018007047234A1368002BF8
S31508004100F8D1002839DD214B1B68984235DC002997
S3150800411036D070B40138EFF311835C1E0F2C02D928
S31508004120102484F311881A4C012523601560194B55
S3150800413003EB4010037B5BB18368DB6943B1164E22
S31508004140036936681943864201610AD0002001E0F6
S315080041506FF0280000231360236883F3118870BC6E
S315080041607047B07B10F00400F4D00C4B1868002898
S31508004170F0D00B4B00201D60ECE76FF01100704784
S315080041806FF01000704700BF0C5E0020186D000825
S31508004190085E0020685D0020A45E0020A85E00205E
S315080041A0145E0020EFF314839B0702D46FF0180007
S315080041B07047124B1A68002AF8D1EFF31182511E84
S315080041C00F2913D80E4901200A6018600D4A126893
S315080041D09068C06970B1907B6FF38200907300207D
S315080041E000221A600B6883F311887047102181F347
S315080041F01188E7E76FF02800F2E700BF0C5E0020A1
S31508004200085E0020A45E002038B5EFF314839B07F0
S3150800421002D46FF0180038BD154C2368002BF8D16E
S31508004220EFF311835A1E0F2A17D8124D01222B605D
S315080042302260114B1B689A68D269B2B19A7B1869D9
S3150800424042F004029A7310B10C4B186848B900235F
S3150800425023602B6883F3118838BD102282F31188F6
S31508004260E3E7FEF715FF0020F1E76FF02800EEE719
S315080042700C5E0020085E0020A45E0020A85E0020D8
S31508004280054B1B682BB1987B80F00400C0F38000B7
S3150800429070470120704700BFA45E0020EFF3148327
S315080042A09B0702D46FF0180070471D4A1368002B4D
S315080042B0F8D1002830DD1B4B1B68984226DC1A4BC8
S315080042C0013803EB401030B4EFF31184631E0F2B53
S315080042D002D9102383F31188144B01251C6015603D
S315080042E0047BB4B18468E4699CB1847B0069486046
S315080042F014F0040F14BF284602200860002000218D
S3150800430011601B6883F3118830BC70476FF0110089
S3150800431070476FF02800F2E7F8D1054B1868D2E726
S315080043200C5E0020186D0008685D0020085E0020FD
S31508004330A45E0020084B186868B1084B084A03EBCE
S31508004340001051689A60D9605B601B601033834225
S3150800435002F10C02F5D17047606C0008DC5C0020A5
S31508004360306C0008EFF314839B0702D46FF0180033
S315080043707047F0B5294E336889B0002B4AD100281A
S3150800438045DD274B1B68984241DC0138EFF3118362
S315080043905A1E0F2A17D8234F01223B603260224D3E
S315080043A004012B192859834211D002682A51026840
S315080043B0536001F013FA30BB002333603B6883F384
S315080043C0118809B0F0BD102282F31188E3E75A6814
S315080043D093420BD002221548154B00920290972261
S315080043E06946002003920493FDF798FB2C44A268C3
S315080043F0E3689268934202D36FF02A00DCE7013340
S31508004400E3600020D8E7FEF7C3F80020D4E76FF092
S315080044101100D6E76FF01800D3E700BF0C5E002046
S31508004420606C0008085E0020DC5C0020706E0008E6
S315080044308C6E0008EFF314839B072DD42DE9F04109
S315080044402C4E336888B0002B51D100284CDD2A4BFE
S315080044501B68984248DC0138EFF311835A1E0F2A6D
S315080044601DD8264F4FF001083B60C6F80080244D42
S3150800447004012B19285983421AD002682A51026866
S31508004480536001F0ABF970B9002333603B6883F3DE
S31508004490118808B0BDE8F0816FF018007047102247
S315080044A082F31188DDE7174B0020C3F80080EBE79D
S315080044B05A6893420BD002221348144B009202907A
S315080044C097226946002003920493FDF727FB2C44A4
S315080044D0A268E3689268934202D36FF02A00D3E792
S315080044E00133E3600020CFE76FF01100D1E76FF0EA
S315080044F01800CEE70C5E0020606C0008085E0020FD
S31508004500DC5C0020145E0020706E00088C6E0008CB
S31508004510EFF314839B0702D46FF01800704730B589
S315080045201D4C236883B0002B30D11C4B1B686BB322
S3150800453000282EDD1A4B1B6898422ADC0138EFF357
S3150800454011835A1E0F2A12D8164D01222B6022609B
S31508004550154B03EB0010C3686BB1013BC360002029
S31508004560002323602B6883F3118803B030BD102223
S3150800457082F31188E8E70D4B1B6822221A736946F5
S3150800458001F0DCF9FEF704F80098E9E76FF0180087
S31508004590EBE76FF01100E8E70C5E0020985E00205C
S315080045A0606C0008085E0020DC5C0020A45E002029
S315080045B0EFF314839B0702D46FF018007047174A6D
S315080045C01368002BF8D1002824DD154B1B68984288
S315080045D020DC10B40138EFF31183591E0F2902D9D4
S315080045E0102181F311880F4901240B6014600E4BCA
S315080045F003EB0010C3684BB96FF03100002313605A
S315080046000B6883F311885DF8044B7047013BC36060
S315080046100020F3E76FF01100704700BF0C5E002022
S31508004620606C0008085E0020DC5C0020EFF3148351
S315080046309A0702D46FF01800704770B5234C2368A8
S3150800464086B0002B38D1224B1B68002B34D00028AB
S3150800465035DD204B1B68984231DC4B1C32DB0138B8
S31508004660EFF311835A1E0F2A02D9102282F31188FA
S31508004670194D01222B602260184A02EB0010C2680D
S315080046804AB961B96FF03100002323602B6883F3C0
S31508004690118806B070BD013AC2600020F4E7104ADE
S315080046A0126822260B46167301A903AA01F076F9A9
S315080046B0FDF76EFF0198E7E76FF01800E9E76FF07E
S315080046C01100E6E76FF01000E3E700BF0C5E00207C
S315080046D0985E0020606C0008085E0020DC5C002004
S315080046E0A45E0020EFF314839B0702D46FF0180032
S315080046F0704770B5174D2B684BBB002824DD164B49
S315080047001B68984220DC0138EFF311835A1E0F2AE2
S3150800471013D8124E012233602A60114C04EB0014A0
S31508004720204601F06BF9A3685B68E36048B900208E
S315080047302860336883F3118870BD102282F31188CC
S31508004740E7E7FDF725FFF2E76FF0110070BD6FF0A0
S31508004750180070BD0C5E0020606C0008085E002022
S31508004760DC5C0020EFF314839B0702D46FF018007B
S3150800477070472DE9F041264E336888B0002B43D1A7
S3150800478000283CDD234B1B68984238DC0138EFF3E0
S3150800479011835A1E0F2A1DD81F4F01223B600D4652
S315080047A03260DFF88480040108EB040258F804300C
S315080047B0934213D0194A9B1A5B11013344442B6068
S315080047C0E3686B60002030603B6883F3118808B0AB
S315080047D0BDE8F081102282F31188DDE75A6893421A
S315080047E010D002220E490F4B009202919722694679
S315080047F0002004930392FDF791F90023DEE76FF09A
S315080048001100E4E70023D9E76FF01800DFE700BFDF
S315080048100C5E0020606C0008085E0020685D0020C1
S31508004820706E00088C6E0008DC5C0020EFF31483C1
S315080048309B0702D46FF0180070470E4B1A68002ABF
S31508004840F8D110B4EFF311814A1E0F2A02D91022AB
S3150800485082F31188084A012411601C600749096817
S31508004860016000201860136883F311885DF8044B13
S31508004870704700BF0C5E0020085E0020B05E002076
S31508004880F0B4EFF31183102B29D01B4C10222360B0
S3150800489082F31188194B1A4D1A681A492D681A4E4F
S315080048A01F683668236805F080658C1AC91B83F370
S315080048B011884FF47A7303FB06F30DB1A14201D2B6
S315080048C0A3F57A734FF47A72104902FB04F2A1FB3E
S315080048D0021203EB92330360F0BC00207047074BCB
S315080048E0074C1A6807492568074C1B68266805F0AF
S315080048F080658C1AC91ADCE7945C002018E000E091
S3150800490004ED00E020480100B45E002009A4EE3161
S3150800491001688268244B2DE9F041CC68234D036178
S3150800492014440746406121460C30FEF7B3FC2B6859
S31508004930BC6063BBEFF311841D4EE4B22CB3C4F321
S3150800494007184FEA0814E4B2A8F1100800232B60F0
S31508004950336883F311883B689A68586890472B68D0
S315080049603BB9EFF311835A1E0F2A14D8012233607C
S315080049702A602B68B8F1000F08BF00247BB13460A9
S31508004980102383F31188BDE8F081A046DEE7084EC0
S315080049903468E4B2D2E7102282F31188E6E784F39A
S315080049A01188BDE8F08100BF114900080C5E00209F
S315080049B0085E00202DE9F047DFF86490D9F800304A
S315080049C03BB3154D154CDFF85C80002601270AE03D
S315080049D044F8083CD9F800300136B34205F114050D
S315080049E004F1180415D92B6844F80C5C13F002037B
S315080049F0EED0D5F810A044F8087CA4F10C03514673
S31508004A002046C4F80480A360FEF744FC44F804ACCE
S31508004A10E0E7BDE8F08700BF046C0008D05C002022
S31508004A20186C000811490008EFF314839B0702D499
S31508004A306FF0180070472DE9F047294F3B68002BA7
S31508004A4049D1002843DD274B1B6898423FDC461EA8
S31508004A507400A019DFF89880C00008EB000AEFF38D
S31508004A6011835A1E0F2A27D8DFF888900121C9F822
S31508004A7000303960A21908EBC2020C305368FBB942
S31508004A80404451603444E400174A58F80430126828
S31508004A901D69164BCAF814A0154444442946CAF899
S31508004AA01030FEF7F7FBA56000203860D9F8003013
S31508004AB083F31188BDE8F087102282F31188D3E7C3
S31508004AC008EB00052846FEF72BFC2846DAE76FF0C8
S31508004AD01100BDE8F0876FF01800BDE8F08700BF49
S31508004AE00C5E0020186C0008B45E0020114900080E
S31508004AF0C45C0020085E002038B5EFF314839B07DA
S31508004B0002D46FF0180038BD174C2368002BF8D173
S31508004B10002825DD154B1B68984221DC0138EFF388
S31508004B2011835A1E0F2A10D8114D01222B602260BC
S31508004B30104A00EB4000C0001318596849B9002014
S31508004B4020602B6883F3118838BD102282F3118800
S31508004B50EAE70C30104400225A60FEF7E1FBEEE764
S31508004B606FF0110038BD00BF0C5E0020186C0008FD
S31508004B70085E0020C45C0020EFF314839B0702D470
S31508004B806FF01800704770B5194C23686BBB002886
S31508004B9028DD184B1B68984224DC0138EFF3118393
S31508004BA05A1E0F2A11D8144D01222B602260134B6E
S31508004BB000EB4000C0001E18766856B90A6000204F
S31508004BC020602B6883F3118870BD102282F3118848
S31508004BD0E9E702220C3018440A600E46FEF70CFC80
S31508004BE07060ECE76FF0110070BD6FF0180070BDD3
S31508004BF00C5E0020186C0008085E0020C45C0020CB
S31508004C00F8B51C4E33680022426043BBEFF31184AB
S31508004C10194DE4B20CB3C4F307173C01E4B2103FD4
S31508004C20002333602B6883F3118803689A685868F1
S31508004C30904733683BB9EFF311835A1E0F2A12D8EF
S31508004C4001222B6032603368002F08BF002473B13D
S31508004C502C60102383F31188F8BD2746E0E7064D3C
S31508004C602C68E4B2D6E7102282F31188E8E784F3C9
S31508004C701188F8BD0C5E0020085E0020084B1968F4
S31508004C8069B1084B084A01EB810103EB8101002059
S31508004C901A60586014338B4202F10C02F8D170473F
S31508004CA0006C0008545D0020F46B00082DE9F84FED
S31508004CB0EFF314839B0703D46FF01800BDE8F88F51
S31508004CC0264F3B68002BF7D100283FDD244B1B6895
S31508004CD098423BDC00293DDB441EA6003019214DD5
S31508004CE0800005EB0009EFF311835A1E0F2A22D81C
S31508004CF0DFF87C808A460121C8F80030396032190D
S31508004D0005EB820208305368CBB928445160164A2D
S31508004D1033191168154A05EB83035144C3F81090FB
S31508004D20DA60FEF7B7FA00203860D8F8003083F367
S31508004D301188BDE8F88F102282F31188D8E705EBB1
S31508004D40000B5846FEF7ECFA5846E0E76FF01100FC
S31508004D50BDE8F88F6FF01000BDE8F88F0C5E0020F4
S31508004D60006C0008545D0020B45E0020014C000869
S31508004D70085E00202DE9F84FEFF314839B0703D54F
S31508004D806FF01800BDE8F88F264F3B68002BF7D167
S31508004D9000283FDD244B1B6898423BDC00293DDB9D
S31508004DA0441EA6003019214D800005EB0009EFF3DB
S31508004DB011835A1E0F2A22D8DFF87C808A460121E1
S31508004DC0C8F800303960321905EB8202083053689A
S31508004DD0CBB928445160164A33191168154A05EBB0
S31508004DE083035144C3F81090DA60FEF753FA0020A3
S31508004DF03860D8F8003083F31188BDE8F88F1022A0
S31508004E0082F31188D8E705EB000B5846FEF788FAB7
S31508004E105846E0E76FF01100BDE8F88F6FF0100014
S31508004E20BDE8F88F0C5E0020006C0008545D002079
S31508004E30B45E0020014C0008085E002038B5EFF388
S31508004E4014839B0702D46FF0180038BD174C2368EB
S31508004E50002BF8D1002825DD154B1B68984221DC6C
S31508004E600138EFF311835A1E0F2A10D8114D01226B
S31508004E702B602260104A00EB8000800013185968E6
S31508004E8049B9002020602B6883F3118838BD1022A9
S31508004E9082F31188EAE70830104400225A60FEF7C8
S31508004EA03FFAEEE76FF0110038BD00BF0C5E002038
S31508004EB0006C0008085E0020545D002038B5EFF34A
S31508004EC014839B0702D56FF0180038BD174C23686A
S31508004ED0002BF8D1002825DD154B1B68984221DCEC
S31508004EE00138EFF311835A1E0F2A10D8114D0122EB
S31508004EF02B602260104A00EB800080001318596866
S31508004F0049B9002020602B6883F3118838BD102228
S31508004F1082F31188EAE70830104400225A60FEF747
S31508004F20FFF9EEE76FF0110038BD00BF0C5E0020F8
S31508004F30006C0008085E0020545D0020EFF314831F
S31508004F409B0702D46FF01800704770B5194C236898
S31508004F506BBB002828DD184B1B68984224DC0138F7
S31508004F60EFF311835A1E0F2A11D8144D01222B6014
S31508004F702260134B00EB800080001E18766856B935
S31508004F800A60002020602B6883F3118870BD102208
S31508004F9082F31188E9E70222083018440A600E46AF
S31508004FA0FEF72AFA7060ECE76FF0110070BD6FF03B
S31508004FB0180070BD0C5E0020006C0008085E00201A
S31508004FC0545D002038B5EFF314839B0702D46FF0C5
S31508004FD0180038BD144C2368002BF8D1102820D8A7
S31508004FE0EFF311835A1E0F2A02D9102282F3118871
S31508004FF00E4D01222B60226048B10138FEF70AF8EF
S3150800500060B9002020602B6883F3118838BD084BEF
S315080050101B68587BFDF7FEFF0028F2D0FDF7B8FAAB
S31508005020EFE76FF0100038BD0C5E0020085E002028
S31508005030A45E0020EFF314839B071DD470B5134CB0
S315080050402368E3B901380F281CD8EFF311835A1ED9
S315080050500F2A02D9102282F311880D4D01262B60E2
S315080050602660FDF7D7FF08B10A4B1E6000202060B6
S315080050702B6883F3118870BD6FF0180070476FF0C6
S31508005080180070BD6FF0100070BD00BF0C5E0020E8
S31508005090085E0020145E0020EFF314839B0702D4F9
S315080050A06FF018007047104A1368002BF8D110B437
S315080050B0EFF31183591E0F2902D9102181F31188A4
S315080050C00A4901240B601460094B0A4C1B681B1B18
S315080050D05B1101330360002010600B6883F31188AD
S315080050E05DF8044B704700BF0C5E0020085E002088
S315080050F0A45E0020685D0020EFF314839B0702D5A9
S315080051006FF018007047114A1368002BF8D110B4D5
S31508005110EFF31183591E0F2913D80D4901240B608B
S3150800512014600C4B1B681BB10B4C1B1B5B1101332A
S315080051300360002010600B6883F311885DF8044B48
S315080051407047102181F31188E7E700BF0C5E002045
S31508005150085E0020A45E0020685D0020EFF314833B
S315080051609B0702D46FF018007047094B1A686AB992
S31508005170EFF31182511E0F2902D9102181F31188EC
S31508005180044801210260196000207047002070471A
S315080051900C5E0020085E0020EFF3148010F0020079
S315080051A002D06FF018007047084B1A686AB9EFF317
S315080051B01182511E0F2902D9102181F31188044842
S315080051C00121026019600020704770470C5E0020BC
S315080051D0085E0020EFF314839B0702D46FF01800D3
S315080051E07047054B186830B10020044A18601368E8
S315080051F083F31188704770470C5E0020085E002014
S31508005200EFF3148010F0020002D06FF01800704718
S31508005210054B1A682AB1054A1860136883F3118882
S3150800522070471046704700BF0C5E0020085E0020DD
S31508005230EFF314839B0702D46FF0180070470E4BE8
S315080052401A68002AF8D110B4EFF31180421E0F2A0B
S3150800525002D9102282F31188084A012110601960C8
S315080052600748084C0160002020601860136883F323
S3150800527011885DF8044B70470C5E0020085E00201C
S31508005280A05E0020985E002038B5EFF314839B07D4
S3150800529002D46FF0180038BD124C2368002BF8D1E1
S315080052A0EFF311835A1E0F2A02D9102282F31188AE
S315080052B00D4D01222B6022600C4B0D491B68002006
S315080052C008604BB10B490C4B09681B680B4899429F
S315080052D0026001D0FDF75CF9002020602B6883F39B
S315080052E0118838BD0C5E0020085E0020A85E0020EC
S315080052F0A05E0020A45E0020105E0020985E0020BC
S31508005300EFF3148080F00200C0F34000704700BF3E
S31508005310024B1868003018BF012070470C5E002049
S31508005320014B1868704700BFA05E0020EFF3148396
S315080053309B0708D5054B1B682BB9054B1868B0FAAF
S3150800534080F0400970470120704700BF0C5E0020BE
S31508005350985E0020024B1868B0FA80F04009704742
S31508005360905C0020074B70B51E6856B1064C0025A8
S31508005370A268616854F80C0B0135FDF761FBB5426C
S31508005380F6D170BDC86B0008A46B0008EFF3148350
S315080053909B0702D46FF018007047A0F10F03532B38
S315080053A042D825490A68F0B452BBEFF311856B1E43
S315080053B00F2B02D9102383F31188204C0123256073
S315080053C00B601F4D470900F01F0655F82750B340DC
S315080053D02B422ED00F2821D0A0F1100303F01F0571
S315080053E001205B09174CA84044F82300FAB9134C6E
S315080053F0104600230B60236883F31188F0BC7047BE
S315080054000F4B440900F01F0553F824400123AB4015
S315080054102342DFD16FF02800F0BC70470A480368C2
S3150800542023F002030360E1E76FF0100070470020E5
S31508005430F2E76FF02800DCE70C5E0020085E00202B
S31508005440E069000880E100E010E000E0EFF3148373
S315080054509B0702D46FF018007047A0F10F03532B77
S3150800546046D8F0B4264C216871BBEFF311856B1E44
S315080054700F2B02D9102383F31188224A01231560C2
S315080054802360214D470900F01F0655F82750B34001
S315080054902B4232D00F2825D0A0F1100253099B00C9
S315080054A003F1604303F5614302F01F02012000FA8D
S315080054B002F21A60F9B9134A0846002323601368F2
S315080054C083F31188F0BC70470F4B420900F01F05A3
S315080054D053F822200123AB401342DBD16FF028009A
S315080054E0F0BC7047094A136843F002031360E1E70A
S315080054F06FF0100070470020F2E76FF02800DCE735
S315080055000C5E0020085E0020E069000810E000E05C
