S00B00006173702E73726563D5
S31508000000581600208D010008912400089124000844
S3150800001091240008912400089124000891240008DE
S315080000209124000891240008912400082726000836
S315080000309124000891240008912400081F2500082F
S315080000401F2500081F2500081F2500081F25000872
S315080000501F2500081F2500081F2500081F25000862
S315080000601F2500081F2500081F2500081F25000852
S315080000701F2500081F2500081F2500081F25000842
S315080000801F2500081F2500081F2500081F25000832
S315080000901F2500081F2500081F2500081F25000822
S315080000A01F2500081F2500081F2500081F25000812
S315080000B01F2500081F2500081F2500081F25000802
S315080000C01F2500081F2500081F2500081F250008F2
S315080000D01F2500081F2500081F2500081F250008E2
S315080000E01F2500081F2500081F2500081F250008D2
S315080000F01F2500081F2500081F2500081F250008C2
S315080001001F2500081F2500081F2500081F250008B1
S315080001101F2500081F2500081F2500081F250008A1
S315080001201F2500081F2500081F2500081F25000891
S315080001301F2500081F2500081F2500081F25000881
S315080001401F2500081F2500081F2500081F25000871
S315080001501F2500081F2500081F2500081F25000861
S315080001601F2500081F2500081F2500081F25000851
S315080001701F2500081F2500081F2500081F25000841
S315080001801F2500081F2500081F25000871B64FF017
S31508000190000080F31488BFF36F8F1948016881F354
S315080001A0088818481849026842EA01020260174896
S315080001B017490860174800B180474FF000001649F4
S315080001C0164A914280F00680086001F104019142C6
S315080001D0FFF4FAAF1249134A914280F00A80124B93
S315080001E00868186001F1040103F104039142FFF461
S315080001F0F7AF0E4800B1804702F048FCFFF7FEBF94
S315080002009068000888ED00E00000F000000000C0DB
S3150800021034EF00E02113000800000020585C00209D
S31508000220206C0008206C0008000000200000000078
S315080002302DE9F04F994B064693E807008FB003ABBC
S3150800024083E8070003F0D6FE002806DA00909449F2
S31508000250944B0320972201F035F8751E0EAA02EB7F
S315080002608503DFF8849253F82C8C8F4FDFF830B271
S31508000270DFF878A20024013423463246CDF8008000
S3150800028005208A4900F0CEFF00230293029BD9F885
S3150800029000209A4205D9029B01330293029B93429E
S315080002A0F9D37B5D0022533B7A55272BE3D801A26D
S315080002B052F823F0210400087702000877020008A4
S315080002C0770200087702000877020008FD03000895
S315080002D0CD030008770200087702000877020008B5
S315080002E077020008770200087702000877020008FC
S315080002F07702000877020008A503000855030008DE
S3150800030077020008770200087702000877020008DB
S3150800031077020008770200087702000877020008CB
S3150800032077020008770200087702000877020008BB
S3150800033077020008810300087702000877020008A0
S3150800034077020008770200087702000859040008B7
S315080003504904000806205649324600F063FF03F0B8
S31508000360E5F80028C0F292800222A223002006A9FE
S31508000370CDF820B0CDF828A00692099301F06AFBC3
S3150800038006204C49324600F04DFF03F049FA002892
S31508000390BFF671AF00904249474B0320A52200F0F3
S315080003A091FF68E706204549324600F03BFF42F2D6
S315080003B0107003F0E1FC0028BFF65DAF00903849E5
S315080003C03F4B0320AD2200F07DFF54E704F0A8FD63
S315080003D0002853DB05203B49324600F023FF02EE96
S315080003E0101F04F0D9FD0028BFF645AF00902C4930
S315080003F0354B0320C02200F065FF3CE70620334951
S31508000400324600F00FFF03F0F5FD0028BFF633AFC4
S3150800041000902349234B0320B52200F053FF2AE717
S3150800042006202B49324600F0FDFE42F2107003F01A
S3150800043039FA0028BFF61FAF00901949254B03204B
S31508000440A92200F03FFF16E705201E49324600F0B4
S31508000450E9FE02EE101F0EE706201F49324600F09D
S31508000460E1FE03F097FD0028BFF605AF00900C49A2
S315080004701A4B0320B12200F025FFFCE6009008493C
S31508000480174B0320BD2200F01DFFA3E70090044987
S31508000490144B0320A12200F015FF65E760580008F9
S315080004A06C580008F8580008685A00207858000860
S315080004B098580008AC580008B0580008D0580008EA
S315080004C0D45800080459000828590008F4580008A8
S315080004D0BC580008C0580008E4580008E858000846
S315080004E01C5900089C5800086C5A0020A858000897
S315080004F0F0B50A468DB0034606460F46052019494B
S3150800050000F090FE0023184A0393039B1568AB423C
S3150800051005D2039C01340394039CAC42F9D33304FB
S3150800052001D40DB0F0BD3A460620104900F07AFE17
S3150800053002F0FCFF00280DDB02220D4B04920D4C45
S315080005400694D72204A900200792089301F082FA9C
S315080005500DB0F0BD00900749074B0320D62200F0E6
S31508000560B1FEE9E734590008645A00209858000893
S31508000570A85800086C5800089C58000870B5024630
S315080005808AB03B490446052000F04CFE04F0A0FD65
S31508000590012803D00420374900F044FE04F0AEFDDC
S315080005A0012803D00420344900F03CFE04F098FDED
S315080005B0064604F09DFD054603F058FD2B463246D7
S315080005C02E490090062000F02DFE204604F018FF64
S315080005D00546204604F030FF2A46034628490620E9
S315080005E000F020FE204604F027FF70B902AC204632
S315080005F004F062FC002822DB02984FF4004103F065
S315080006006BFC002823DB0AB070BD05201D4900F0ED
S3150800061009FE02F04BFA002822DB02AC02221A4B32
S3150800062002922146F622194D05920020069304955A
S3150800063001F010FA204604F03FFC0028DCDA0090AE
S315080006401249134B0320F92200F03CFED4E7009030
S315080006500E49104B0320FA2200F034FE0AB070BD92
S3150800066000900A490C4B0320F52200F02BFED4E734
S315080006705859000884590008B4590008E459000874
S315080006800C5A0008285A0008A85800086C58000890
S31508000690585A00086C5A00084C5A000800B5092038
S315080006A083B004F0A3FB002817DB0A2004F09EFBA6
S315080006B000281FDB0B2004F099FB002802DB03B09F
S315080006C05DF804FB00901049104B032040F2091214
S315080006D000F0F8FD03B05DF804FB00900A490C4BE6
S315080006E0032040F2071200F0EDFD0A2004F07EFB1D
S315080006F00028DFDA00900449064B03204FF4847281
S3150800070000F0E0FDD6E700BF6C580008B85A0008AC
S31508000710885A0008A05A000800B5092083B004F0DA
S3150800072065FB002817DB0A2004F060FB00281FDBA6
S315080007300B2004F05BFB002802DB03B05DF804FB2A
S3150800074000901049104B03204FF48B7200F0BAFD4D
S3150800075003B05DF804FB00900A490C4B03204FF4E4
S315080007608A7200F0AFFD0A2004F040FB0028DFDAA9
S3150800077000900449064B032040F2151200F0A2FD32
S31508000780D6E700BF6C580008B85A0008885A00080F
S31508000790A05A000830B5012193B004467F2001F025
S315080007A0F7F90028C0F2BD8322460520CC4900F09F
S315080007B039FD012001F074FA041EC0F216830120E7
S315080007C04FF4A26101F02AFC0028C0F29883C54CB8
S315080007D0C54B236006A803F017FF0028C0F29883CC
S315080007E000230593059B2268934205D2059B013396
S315080007F00593059B9342F9D307A803F005FF002844
S31508000800C0F209830799069AB84BB94D8A1AB3FB01
S31508000810F2F39A08022023602A6002F0A9FD002854
S31508000820C0F24883032002F0A3FD0028C0F25083DB
S31508000830042002F09DFD0028C0F2588301240225F9
S31508000840012002460DF10F0101F020FB0028C0F23D
S315080008509F809DF80F10A1F13103492B00F2C38246
S3150800086001A252F823F000BF3D080008A3090008BA
S31508000870E10D0008E70D0008E70D0008E70D000880
S31508000880E70D0008E70D0008E70D0008E70D00086A
S31508000890E70D0008B30D0008850D0008570D000880
S315080008A0E70D0008E70D0008310D0008070D0008E0
S315080008B0E10C0008E70D0008E70D0008E70D000841
S315080008C0B70C0008E70D0008E70D0008E70D00085B
S315080008D0E70D0008E70D0008E70D0008E70D00081A
S315080008E0E70D0008E70D0008E70D0008E70D00080A
S315080008F0AB0C0008E70D0008E70D0008810C00089E
S315080009005B0C00082D0C0008AB0C0008AB0C0008AB
S31508000910E70D0008E70D0008E70D0008E70D0008D9
S31508000920E70D0008E70D0008010C0008D30B0008C6
S31508000930A90B0008AB0C0008AB0C0008E70D000873
S31508000940E70D0008E70D0008E70D0008E70D0008A9
S31508000950E70D00087D0B0008510B0008E70D00089D
S31508000960E70D0008E70D00082D0B00089F0A000890
S31508000970AB0C0008750A00084B0A0008290A00088B
S31508000980FF090008A9090008AB0C0008AB0C000811
S3150800099000905849584B032040F27B1200F092FC15
S315080009A057E7022403254BE706205449224600F060
S315080009B039FC2846012103F031FA0028C0F2FF82EB
S315080009C09DF80F30032B02D0512B7FF439AF052049
S315080009D04B4900F027FC02F069F80028C0F21282A1
S315080009E00222484B0A92434C0C9440F215220AA95B
S315080009F000200D920E9301F02DF813B030BD06209D
S31508000A004149224600F00EFC284602F093FF0028D2
S31508000A10D6DA00903D4B3749032040F2B71200F072
S31508000A2051FC9DF80F30CDE77F20012101F0B0F889
S31508000A300028C5DA0090364B2E4903204FF4FC7285
S31508000A4000F040FC9DF80F30BCE7062031492246ED
S31508000A5000F0E8FB284603F0E1F80028B0DA009039
S31508000A602D4B244903204FF4E37200F02BFC9DF82C
S31508000A700F30A7E706202949224600F0D3FB28466F
S31508000A8002F0A0FD00289BDA0090254B19490320A7
S31508000A904FF4D07200F016FC9DF80F3092E706204E
S31508000AA0204900F0BFFB092004F068F90028C0F2CD
S31508000AB07D820A2004F062F90028C0F26E820B20BB
S31508000AC004F05CF90028BFF67BAF0090164B094985
S31508000AD003204FF4EC7200F0F5FB9DF80F3071E738
S31508000AE0085B00086C5A002040420F000084D717A4
S31508000AF0645A00206C580008F45B0008145E00086D
S31508000B00E45F0008A85800086C5D00087C5D0008D2
S31508000B10D05A0008D45D0008E45D0008605C00084F
S31508000B20705C0008745E0008C05E00083F20012162
S31508000B3001F02EF80028BFF643AF0090BA4BBB4928
S31508000B4003204FF4FE7200F0BDFB9DF80F3039E725
S31508000B500620B749224600F065FB284603F0C0F890
S31508000B600028BFF62DAF0090B24BB04903204FF4D2
S31508000B70E57200F0A7FB9DF80F3023E70620AE4983
S31508000B80224600F04FFB284602F0C4FF0028BFF6B5
S31508000B9017AF0090A94BA54903204FF4E17200F066
S31508000BA091FB9DF80F300DE70620A54900F03AFBAA
S31508000BB0012003F031FE0028BFF602AF0090A14BDA
S31508000BC09A4903204FF4EE7200F07CFB9DF80F3033
S31508000BD0F8E606209C4900F025FB012041F2883101
S31508000BE003F054FF0028BFF6EBAE0090974B8F49F1
S31508000BF003204FF4F27200F065FB9DF80F30E1E632
S31508000C0006209349224600F00DFB284602F0B0FB69
S31508000C100028BFF6D5AE00908E4B8449032040F2DB
S31508000C20951200F04FFB9DF80F30CBE606208A4957
S31508000C30224600F0F7FA2846022103F0EFF80028CA
S31508000C40BFF6BEAE0090854B784903204FF4E97293
S31508000C5000F038FB9DF80F30B4E60620804922469E
S31508000C6000F0E0FA284602F00BFF031EC0F28A8164
S31508000C7005207C49224600F0D5FA9DF80F30A1E6FA
S31508000C8008A803F0EFFC0028C0F2738109A803F056
S31508000C90E9FC0028C0F26481099B7349089A05207B
S31508000CA000F0C0FA9DF80F308CE6704A22440B46D5
S31508000CB002F8011C88E606206D49224600F0B2FAC1
S31508000CC0284604A902F038FD0028C0F23E81049B9C
S31508000CD068490520224600F0A5FA9DF80F3071E60E
S31508000CE00620654900F09EFA012003F0F1FD002870
S31508000CF0BFF666AE00904D49604B03204FF4F07284
S31508000D0000F0E0FA5CE606205D4900F08BFA012067
S31508000D1003F072FF0028BFF653AE0090594B4349C3
S31508000D2003204FF4F47200F0CDFA9DF80F3049E62F
S31508000D3006205549224600F075FA284602F0B0FB0F
S31508000D40031EC0F2F78005205049224600F06AFAD1
S31508000D509DF80F3036E606204D49224600F062FA25
S31508000D602846092102F096FC0028BFF629AE009015
S31508000D70484B2E4903204FF4D27200F0A3FA9DF88F
S31508000D800F301FE606204449224600F04BFA284653
S31508000D900A2102F07FFC0028BFF612AE00903F4BF6
S31508000DA0224903204FF4D47200F08CFA9DF80F30D4
S31508000DB008E606203A49224600F034FA28460B216E
S31508000DC002F068FC0028BFF6FBAD0090354B1749CA
S31508000DD003204FF4D67200F075FA9DF80F30F1E54E
S31508000DE0032404252CE50B46ECE563B229333FF4CE
S31508000DF0E6AC00F087FA231202462B49032000F0DE
S31508000E0011FADCE400900949284B03204FF40572D7
S31508000E1000F058FAE4E500900449254B03204FF406
S31508000E20B57200F04FFAEDE4A85F00086C580008A8
S31508000E30F45D0008045E0008B45D0008C45D00089F
S31508000E40D85E0008E45E0008185F00082C5F0008FA
S31508000E50185C0008285C0008445E00085C5E000810
S31508000E608C5D0008306000088C5F0008685A002016
S31508000E70345D000814600008F85E0008045F000886
S31508000E80445F0008505F0008385C0008FC5F0008F3
S31508000E90805C00089C5C0008BC5C0008D85C000804
S31508000EA0F85C0008145D00082C5B00084C5A000822
S31508000EB0B05B000800904749474B032040F2731285
S31508000EC000F000FA032002F053FA0028BFF6B0AC8F
S31508000ED000904049414B03204FF4BA7200F0F2F9F2
S31508000EE0042002F045FA0028BFF6A8AC009039495C
S31508000EF03B4B032040F2751200F0E4F99EE40090A3
S31508000F003449384B032040F23B1200F0DBF95EE42B
S31508000F1000903049344B03204FF4B47200F0D2F9F4
S31508000F205EE400902B49314B032040F22B1200F06F
S31508000F30C9F939E4009303202D4B264940F299124A
S31508000F4000F0C0F99DF80F303CE50090294B214987
S31508000F5003204FF4D87200F0B5F99DF80F3031E54B
S31508000F6000901C49244B03204FF4F77200F0AAF9AD
S31508000F7092E600901749214B032040F2ED1200F04B
S31508000F80A1F983E6009303201D4B124940F2BB12D8
S31508000F9000F098F99DF80F3014E500900D49194BAB
S31508000FA0032040F2D71200F08DF988E50090094930
S31508000FB0154B03204FF4EB7200F084F979E50090A5
S31508000FC0124B044903204FF4E77200F07BF99DF8B1
S31508000FD00F30F7E46C580008C45B0008D45B0008BF
S31508000FE0E45B0008545B00089C5B0008D05A0008C4
S31508000FF0485C00084C5D0008785F0008645F0008DC
S315080010009C5D0008A85E0008905E00082C5E00083B
S315080010102DE9F047B0FBF1F484B001FB140004AFEE
S31508001020105C07F80C0DDDF830A0DDF834900E9E44
S31508001030204698463D46012450B1B0FBF1F301FB2A
S3150800104013000134105C05F8010F0B2C1846F3D178
S31508001050BAF1000F07D0B8F1000F01D008F1FF3838
S31508001060B9F1000F22D1444538BF254608D2B9F157
S31508001070000F14BF302020200135B0474545F6D370
S31508001080BAF1000F02D0B9F1000F07D0013C385D64
S31508001090B047002CFAD104B0BDE8F087013C2D20FA
S315080010A0B047385DB047002CF0D1F4E72D20B047A3
S315080010B0D9E700BFF0B5054685B00F46164628782D
S315080010C030B1252806D00135B04728780028F8D150
S315080010D005B0F0BD6C78302C36D002350021A4F16D
S315080010E03003092B4FF000030BD803EB830304EB03
S315080010F0430315F8014BA4F130000928A3F1300386
S31508001100F3D96C2C04BF2C780135642C24D00BD869
S31508001110252C2FD01CD9582C2FD0632CCFD138781A
S315080011203C1DB0472746CAE7732C31D040D9752CE9
S3150800113039D13868019100210091244A02960A2182
S315080011400437FFF765FFBAE7AC7801210335C6E730
S31508001150002CB4D1013DB2E73868002807F104072E
S3150800116029DB00220191009202960A21174AFFF70D
S315080011704FFFA4E72046B047A1E73868144A019113
S3150800118000210091029610210437FFF741FF96E7E8
S315080011903C6820780437002891D0B04714F8010F2E
S315080011A00028FAD18BE7782C89D13868094AE6E70E
S315080011B0702CFAD083E701220191009202964042F0
S315080011C00A21024AFFF724FF79E700BF58600008A2
S315080011D078600008646000080346006801280A462B
S315080011E007D0022804D103F108010448FFF762BFBB
S315080011F07047986803F10C01FFF75CBF8C60000824
S3150800120010B582B002AB0A4643F8040D0C460448F2
S315080012101946FFF74FFF0A20A04702B010BD00BFCE
S31508001220AC6000080EB430B58AB00DAD012455F88F
S31508001230043B0493019502941A4612F8011B49B11E
S31508001240052C07D825290DD013461A4612F8011B76
S315080012500029F5D102A900F0FDFB0AB0BDE830402F
S3150800126003B070475A78A2F13001092903F1020345
S3150800127005D813F8012BA2F130010929F9D96C2AEE
S3150800128004BF1A780133642A05D00DD9732A02D00F
S3150800129012D8702AD0D10AAA02EB84012A6841F82A
S315080012A0182C01340435C7E7582AF4D0632AF2D03B
S315080012B0002AC1D1013BBFE7752AECD0782AEAD0CB
S315080012C0BAE700BF2DE9F04389B08046109C0C4D63
S315080012D020460E461746994600F014F82412039045
S315080012E0012340466946CDF814900494069707965C
S315080012F00295009300F0AEFB09B0BDE8F08300BF8D
S31508001300C46000083A30C0B23A289ABF024B53F874
S3150800131020000248704700BFF4600008E06100083A
S31508001320F8B5484B484C1868484EDFF840C1484F56
S315080013304849494A40F001000025186025601868A8
S3150800134020F0847020F480301860C6F800C0186851
S3150800135020F4802018603D600B6843F080530B60D2
S315080013600B68136823F4404343F40043136013687F
S31508001370236813F00C0334D0082B2FD0324B1B688C
S3150800138003F00C03082B20D0344B2E4D00221A6094
S3150800139040F2E93403E001F0ADF9013C1DD02B68B9
S315080013A02F489901F7D4294A2C4B2E49116001225E
S315080013B01A6040F2E934234D03E001F09BF9013C41
S315080013C00BD02B6826489A01F7D5274B02221A70AC
S315080013D01B6803F0070393420BD0F8BD3368580225
S315080013E0CCD4184B1A6822F0F80242F080021A6030
S315080013F0C4E7154D134B2A6822F0F0022A601B68D1
S315080014009B01EAD52B6823F0030343F002032B6004
S315080014104CF2513403E001F06DF9013CDDD02B6844
S315080014200F48094A03F00C03082BF4D1136823F478
S31508001430E05343F480531360136823F46043136046
S31508001440F8BD00BF003802400838024004380240A0
S315080014500C380240403802400070004060004742A5
S31508001460A086010010540107003C024010300024F9
S3150800147038B540B20D4601F0A3F9202001F0A0F9D5
S315080014801C2445FA04F000F00F000928CCBF3730B9
S315080014903030043C01F094F9231DF2D10A20BDE84E
S315080014A0384001F08DB900BF044A054B02F1080027
S315080014B0002158601A60D960704700BFA062000812
S315080014C0705A0020834B013800012DE9F04FC418EB
S315080014D0C5586368A1601A69996BE66889B0002ADD
S315080014E000F0CA80002900F0C780D3F800905F6832
S315080014F0D9F80000DFF8F4C1DFF8F4813843C9F8F9
S315080015000000D3F80890DF68D9F800003843C9F816
S315080015100000D2F80090986909EA0007D8690743DD
S315080015201760D2F80890186A09EA0007586A07434C
S315080015309760D2F80490986A09EA0007D86A0743C0
S315080015405760D2F80C90186B09EA0007586B0743E6
S31508001550D760D1F80090186C09EA0007586C074361
S315080015600F60986CD1F8089009EA0007D86C074311
S315080015708F60186DD1F8049009EA0007586D074383
S315080015804F60D2F80C90986D09EA0007D86D0743AA
S31508001590D76093F814A04FEA5A0000F004002030F0
S315080015A00AF0070A87584FEA8A0A4FF00F0909FA1C
S315080015B00AFB27EA0B0B072707FA0AFA4BEA0A0A75
S315080015C040F802A093F83C204348530803F004036C
S315080015D020333A4053F801A0920009FA02F99740DD
S315080015E02AEA09023A435A502F68BB8923F4005362
S315080015F01B041B0CBB813B8A23F440531B041B0CA6
S315080016003B82BB899BB223F4B05323F00C0343F00F
S315080016100C03BB81BB8A23F440731B041B0CBB82DF
S31508001620BB8927F480621BB262450CBFC446844658
S31508001630002B38DB29482A4AA0FB0C10800CA2FB99
S3150800164000135B09642103FB110000013230A2FB81
S315080016500012C2F3431242EA03139BB23B81BA89D2
S3150800166092B242F020020123BA81E36046B1BB89F7
S315080016709BB243F40053BB81204609B0BDE8F08F06
S31508001680686803F0BFFD0028F1D00222154D164BFD
S315080016900092304640F26D12694602950392049311
S315080016A000F0D8F9E3E70D4A0D4BA2FB0C1C4FEAF4
S315080016B05C4CA3FB0C214909642201FB12CC4FEABE
S315080016C0CC0C0CF1320CA3FB0C03C3F3421343EA14
S315080016D00113C2E7705A002080BA953EC5B3A2919D
S315080016E01F85EB51086300083863000800100140A5
S315080016F000752B7DC36810B504461BB1036858688E
S3150800170003F02EFD0023E36010BD00BF013870B55D
S315080017100501144C2B591B689889198889B211F050
S315080017200F0F1A4680B203F10C0305EB040601D12C
S3150800173080060DD41B881288190692B206D5530660
S3150800174005D5B068BDE8704000F0A6BC70BD70BD98
S315080017508806EFD5B06800F0D5FC2B591A6802F157
S315080017600C03E7E7705A002003681B6898891A88F3
S3150800177000F0800080B292B228B102F0400290B226
S3150800178008B199800120704703681B6899891A88EF
S3150800179092B2100789B206D1890604D5920602D5F7
S315080017A09888C0B270474FF0FF30704701290AD0B9
S315080017B0022907D103681B689A8992B242F020026F
S315080017C09A817047704703681B689A8992B242F0FB
S315080017D080029A81704700BF01290BD0022908D1DF
S315080017E003681A68938923F020031B041B0C938152
S315080017F07047704703681A68938923F080031B04AF
S315080018001B0C9381704700BF0139094B53F83120EF
S3150800181080B282B0908013885B06FCD540F62C23F4
S315080018200193019B5A1E0192002BFAD102B0704710
S31508001830A06200082DE9F00F0138704C704FDFF8F0
S31508001840CCC1DFF8CC8100EB4002520104F108015B
S315080018508B188E585D68D6F800901A69996B49EA14
S315080018600509C6F80090D3F80890DE68D9F8005044
S315080018703543C9F80050D2F800909D6909EA050673
S31508001880DD692E431660D2F808901D6A09EA050636
S315080018905D6A2E439660D2F804909D6A09EA0506A9
S315080018A0DD6A2E435660D2F80C901D6B09EA0506D0
S315080018B05D6B2E43D660D1F800901D6C09EA0506CB
S315080018C05D6C2E430E60D1F808909D6C09EA0506FA
S315080018D0DD6C2E438E60D1F804901D6D09EA05066D
S315080018E05D6D2E434E60D2F80C909D6D09EA050693
S315080018F0DD6D2E43D66093F814A04FEA5A0909F015
S31508001900040909F120090AF0070A59F802504FEAB2
S315080019108A0A0F2606FA0AFB25EA0B0B072505FA9B
S315080019200AFA4BEA0A0A49F802A093F83C20530837
S3150800193003F0040320332A4053F80190920096409E
S31508001940954029EA06022A435A5054F830301A8A32
S3150800195022F440521204120C1A829A8992B222F484
S31508001960B05222F00C0242F00C029A819A8A22F4B2
S3150800197040721204120C9A829A8923F4806112B278
S31508001980B9420CBF67464746002A22DB1D4A1E4954
S31508001990A2FB0767BF0CA1FB07025209642002FBE2
S315080019A010773F013237A1FB0751C1F3431141EAD2
S315080019B0021292B21A819A8922F0A0021204120C1B
S315080019C09A819A8992B242F400529A81BDE8F00F40
S315080019D070470C490C4CA1FB07677F0CA4FB07104A
S315080019E04009642200FB1272D2003232A4FB025272
S315080019F0C2F3421242EA0012DBE700BFA062000807
S31508001A0000100140C5B3A2911F85EB5100752B7DCF
S31508001A1080BA953E30B589B001230222064D00935F
S31508001A20092469460520039302950494059200F05B
S31508001A3011F809B030BD00BF48630008044B002206
S31508001A401A605A609A60DA601A615A61704700BF74
S31508001A50000000202DE9F0478C46EFF31183102B88
S31508001A60274E4AD01022B36182F311884FF000093D
S31508001A70244A33691268CCF80420012787401F429C
S31508001A80DFF87C801AD065460FCDD8F808A008EB99
S31508001A904A141C340FC495E80F000AF101051F2DDE
S31508001AA084E80F00326892BFC8F808500023C8F8C7
S31508001AB008301F2A124B16D801321A60736937EAA2
S31508001AC0030308D1B9F1000F02D1B36983F3118872
S31508001AD00020BDE8F08760460B49FFF77DFB0A202A
S31508001AE000F06EFEEEE7DA68996859600132DA604E
S31508001AF0736937EA0303E5D0EDE74FF00109B7E765
S31508001B00000000204C5C0020C12700082DE9F003E6
S31508001B100446EFF31183102B1C4E30D01022B3610C
S31508001B2082F311884FF00009D6F800C0174FBCF1B0
S31508001B30000F27D0D7F8048007EB48151C350FCDC2
S31508001B400FC495E80F0008F101051F2D84E80F0062
S31508001B5088BF00230CF1FF3C88BF7B604FF0000371
S31508001B60F068C7F800C098BF7D60F360B9F1000F50
S31508001B7002D1B36983F31188BDE8F00370474FF0CB
S31508001B800109D1E76FF02800F0E700BF0000002048
S31508001B90024BC943186159610020704700000020B4
S31508001BA030B4EFF31183102B14D0114910228B6136
S31508001BB082F311880B464C690D681A69C968056075
S31508001BC0E44341608260C4609B6983F31188002006
S31508001BD030BC7047064B5C691968DA6801601B6996
S31508001BE04260E143C160836030BC0020704700BF9B
S31508001BF0000000200A2970B50D4604462CD003F0D3
S31508001C008FF900283DDB236BC3B12268E36A52696A
S31508001C10D5542268E36A106901338342E36204BF3C
S31508001C200023E362236B01332363C31A5E425E41DA
S31508001C3003F0B2F9002824DB304670BD666B002E2F
S31508001C40E3D160682946FFF78FFD0028F0D1606868
S31508001C500121FFF7ABFDD8E70369DA06CFD50D21D9
S31508001C60FFF7C8FF061EE7DBC9D02368586802F0ED
S31508001C7045FB061EC3DA73B213F1330FDCD03133DA
S31508001C80DAD00123E3606FF00406D5E7024B034A76
S31508001C901A6000229A6070471C040020FC64000841
S31508001CA070B5064603F02AFA002843D1012E36D12C
S31508001CB003F0A2F900280ADB204CA56865B16FF08D
S31508001CC0280503F0C7F900282CDB284670BD1B4BF6
S31508001CD06FF00400DE6070BD40F211536561A561C6
S31508001CE0E56184F820506562A562E562256365634F
S31508001CF0236103F015F9002819DB21463046FFF762
S31508001D00E1FB02216060FFF751FDA660E56003F084
S31508001D1043F90028D5DAE6606FF00405D1E76FF0DD
S31508001D20110070BD0123E3606FF0040070BD6FF011
S31508001D300405C6E76FF0180070BD00BF1C0400203C
S31508001D40F8B5044603F0DAF9054600283DD1012C1A
S31508001D5033D103F051F900280ADB1F4EB36863B983
S31508001D606FF0280403F076F9002829DB2046F8BD31
S31508001D70194B6FF00400DC60F8BD03F0D1F8074694
S31508001D807068FFF7B7FCB56003F006F93368124DC3
S31508001D9000285868A8BFFC0F02F094FB2B6800289F
S31508001DA0186815DB02F08EFB002801DB002CD9D061
S31508001DB00123F3606FF00404D4E76FF01100F8BD57
S31508001DC00123F3606FF00400F8BD6FF01800F8BD4A
S31508001DD002F078FBECE700BF1C0400202DE9F8436D
S31508001DE005460F46164603F089F9002841D1012D0C
S31508001DF03BD1DFF89490D9F80830002B3DD0D9F8BC
S31508001E000C0000283DD1AEB10446284602E0013454
S31508001E10B44211D01C4D30B1D9F80030586802F0E0
S31508001E206DFA002814DB2846395DFFF7E3FE002823
S31508001E30EDDA54B9BDE8F88338B92B68586802F06A
S31508001E408DF9002801DA0123EB602046BDE8F88306
S31508001E5042B212F1330FECD03132EAD00123EB60F3
S31508001E606FF00400002CE5D0EFE76FF01100BDE835
S31508001E70F8836FF01800BDE8F8836FF02800BDE816
S31508001E80F8836FF00400D5E71C0400202DE9F84F0D
S31508001E9006468946904603F031F9002840F0B0809E
S31508001EA0012E40F0A280DFF870B1DBF80820002A86
S31508001EB000F0AA80DBF80C00002840F0A980B8F1F1
S31508001EC0000F67D00446DA463EB1DBF80020524DD3
S31508001ED0106802F013FA002850DB03F021F80028F6
S31508001EE070DBDBF80010DBF81450C8686A1C455D27
S31508001EF0CBF8142088688242DBF81C20DBF8240023
S31508001F0008BF002302F1FF3208BFCAF81430D2F125
S31508001F100106CBF81C2038BF002618B18968B2EB39
S31508001F20510F39D903F038F800284BDB09F804506B
S31508001F30DBF81020384FD30704F1010406D44445D2
S31508001F40C2D1002E46D02046BDE8F88FDAF8002028
S31508001F50506802F0D3F900284BDB29463846FFF7CC
S31508001F6049FE0028EFDBEAD1DAF80020506802F0D3
S31508001F70F5F80028E3DA0123FB60E4E743B213F13E
S31508001F80330F05D0313303D00123EB606FF0040023
S31508001F90002CD8D1BDE8F88FDAF804001121FFF734
S31508001FA0E3FB40B9DAF804000121FFF7FFFB4FF025
S31508001FB011038AF820300023CBF8243002F0ECFF16
S31508001FC00028B3DA0122CBF80C206FF00400002CAD
S31508001FD0E0D0B8E7DBF800300F4D186802F0BEF81D
S31508001FE00028B0DA0123EB60ADE76FF01100BDE819
S31508001FF0F88F40B210F1330FA5D03130BBD1A2E72C
S315080020006FF01800BDE8F88F6FF02800BDE8F88F6C
S315080020106FF00400BDE8F88F1C04002038B50446AC
S315080020200D4603F06BF858B9012C06D1094B9A688E
S315080020304AB1D86850B91D6138BD6FF0110038BD76
S315080020406FF0180038BD6FF0280038BD6FF0040037
S3150800205038BD00BF1C04002038B505460C4603F001
S315080020604DF870B9012D09D10A4B9A6862B1D86842
S3150800207068B9DA6922601B6B636038BD6FF01100BE
S3150800208038BD6FF0180038BD6FF0280038BD6FF006
S31508002090040038BD1C04002038B590F8201004460A
S315080020A049B9456B0DB9036B63B960680121BDE891
S315080020B03840FFF791BB4068FFF756FB002384F8CA
S315080020C0203038BD0268836A52694068D15CFFF7E0
S315080020D04BFB2168A36A0A6901339342A362236B07
S315080020E008BFA5629A4202D0013B236338BD4868FF
S315080020F002F098F80028B7BF0122236B236BE26031
S31508002100F2E700BF38B504464068FFF73DFB236990
S31508002110DD05C0B20BD4626B82B1112801D09905D6
S315080021200CD5236B00256563002B32D138BD1328E7
S3150800213044D0626B002AF0D11128F7D02368E169F0
S315080021409A689142F2D0DA68A369D0542268A369E2
S31508002150916801338B42A36104BF0023A361E3693D
S31508002160002B2ED0226901335205E361DED5626A5F
S31508002170002ADBD12268926802EB4202B3EB920F87
S31508002180D4D360681321FFF7EFFA20B30123636203
S3150800219038BD2268A36A52696068D15CFFF7E4FA21
S315080021A018B32168A36A0A6901339342A3621AD055
S315080021B0236B9A421FD0013B236338BD0123636317
S315080021C038BD106802F02EF80028B7BF0122E3696F
S315080021D0E369E260C6E760680121FFF7E7FA1323BF
S315080021E084F82030D2E7A562E2E760680121BDE8FD
S315080021F03840FFF7DBBA486802F014F80028B7BF82
S315080022000122236B236BE260D5E700BF012801D0CA
S31508002210002070470C4B98680028FAD0186B0028E5
S31508002220F7D018689A6A4069825C0A709A6A1968CF
S3150800223001329A6209698A4204BF00229A621A6BBD
S31508002240013A1A63012070471C04002000B583B0C8
S3150800225002A9054B01F8010D01221868FFF7BEFD1A
S3150800226003B05DF804FB00BF5406002030B587B004
S31508002270044602F043FF30BB144D0FE0029BA34215
S3150800228007D8ACB92868FFF7E7FE00280CDB019BE6
S3150800229073B1012001F070FD00280CDB02A8FFF7DE
S315080022A07FFC00286946E9DA6FF0040007B030BD04
S315080022B0002007B030BD313014BF6FF004006FF056
S315080022C0300007B030BD6FF01800EFE75406002065
S315080022D070B5214D8AB02860FFF7E2FC01213F2046
S315080022E0FFF756FC2B681D4A059302A90123052012
S315080022F002930492FFF7AEFB00240A2602A8FFF712
S3150800230005FC002817DB029B0444002BF6D0C4B951
S3150800231002A81349FEF760FF0DF10701012228689C
S315080023208DF80760FFF75AFD02A8FFF7EFFB0028B4
S315080023304FF00004E7DA4CB90A2001F01DFD00242D
S31508002340DCE720460649FEF75BFFE1E7204604493D
S31508002350FEF756FFF0E700BF540600201465000894
S315080023604D22000830B5174C8BB003E09DF90700E5
S3150800237000F026FA20680DF10701FFF747FF00284D
S31508002380F4D1054607E020460F490CB1FEF738FFA1
S31508002390029B6BB9012502A8FFF7B8FB041E0FDBE9
S315080023A0002DF0D129460948074AFEF783FEEAE7D9
S315080023B002A80549FEF710FF0A2000F001FAE9E72E
S315080023C00BB030BD54060020C12700084065000840
S315080023D00120FFF79BB900BF08B500F05DFC01F0CE
S315080023E0A1FE02F0D9F902F035FB02F0A5FEBDE820
S315080023F0084002F0F1BF00BF08B5002000F0AAF9B6
S315080024000020FFF71BFB0020FFF704FB0020FFF767
S315080024104BF80020BDE80840FFF738BC08B5002097
S31508002420FFF7A0FF0020BDE8084000F0ADB900BFE7
S315080024302DE9F04FEFF3148010F0040F00F002803E
S315080024402DED108A01B4B0480168C1F818D0DFF83C
S31508002450BCE2C1F81CE000F004B908BC13F0040F94
S3150800246000F00280BDEC108ABDE8F04F887B10F0C2
S31508002470040F00F00B800869004200F00780A449A9
S315080024800868004200F00280A2480047704700BF73
S31508002490EFF31382E2B9EFF31180102800F01880E9
S315080024A01EF0040F00F00A80EFF3098323E90140C8
S315080024B083F3098801B5184600F002B801B56846E5
S315080024C0EFF30583944951F82320904700F044B868
S315080024D01EF0040F00F00A80EFF3098323E9014098
S315080024E083F3098801B5184600F002B801B56846B5
S315080024F0EFF30583884951F82320904771B60ABC43
S3150800250013F0040F40F0028000F006B8EFF30982DA
S3150800251002F1080282F3098881F311881847EFF35C
S3150800252011801EF0040F00F00A80EFF3098323E9F7
S31508002530014083F3098801B5184600F002B801B5D1
S315080025406846EFF30583744951F82320734951F817
S3150800255023E08EF31188904771B60ABC13F0040F76
S3150800256040F0028000F009B86D48026842B9EFF3FE
S31508002570098202F1080282F3098881F31188184753
S315080025804FF000010160674981F311884FF001019E
S315080025906548016065496648016066486649EFF323
S315080025A0098222E90300183A82F309886FF00200CB
S315080025B000475548016861480268FAB160480268F0
S315080025C0914200F01B80019B13F0100F40F002802F
S315080025D02DED108A08B42DE9F00FC1F818D0DFF8F0
S315080025E064E1C1F81CE000F03CB8BDE8F00F08BC97
S315080025F013F0100F40F00280BDEC108A887B10F0B3
S31508002600040F00F00980086930B14149086818B11B
S3150800261017EE903A00F0A0FCEFF3148323F00403BE
S3150800262083F3148800DF71B6EFF309802030B0E831
S31508002630024080F309884FF000003B4908603B4997
S3150800264081F3118870474048016881F30888354945
S3150800265081F3118861B64FF0020080F31488BFF346
S315080026606F8FEFF3148323F0040383F3148834483D
S315080026700168254A116019B1D1F818D0D1F81CF0B3
S315080026804FF0000080F31488BFF36F8F4FF00004FB
S31508002690244D234E244F3C6072B684F3118830BF14
S315080026A062B685F31188306800283FF4F5AF3460C8
S315080026B04FF0020080F31488BFF36F8F4FF00102CA
S315080026C03A601B480460FFF7D2BF4FF0000080F362
S315080026D01488BFF36F8F1D4800474FF00000124C57
S315080026E0206080F31188DFF868E08A68506891688E
S315080026F0084700BF6438002800F301807047663831
S3150800270000283FF7FCAF7047405C00205B240008B8
S31508002710445C0020592F0008046700085C6500081F
S31508002720B05B002010000000A85B0020000000003D
S31508002730A45B0020B225000800000001345C0020DC
S31508002740AC5B0020EB25000890680008CD2A00083D
S315080027502D350008084B094809490A4A10B41C686F
S3150800276024F001041C6002600A601A685DF8044BD4
S3150800277042F005021A60704710E000E014E000E03D
S3150800278018E000E01F480100014B00221A6070475C
S3150800279010E000E0014B1B6800F056BD10E000E0B9
S315080027A008B500F07DF80120FFF744F8014BE02258
S315080027B01A7008BD23ED00E008B500F0A1F8FEE7A1
S315080027C00A2810B5044605D020460121BDE8104068
S315080027D0FFF71AB80D200121FFF716F82046012148
S315080027E0BDE81040FFF710B8031F0B2B10B411D823
S315080027F00E4B820853F8223000F00300C0001A6816
S31508002800FF248440814022EA0400084318605DF8EA
S31508002810044B7047A0F11003522BF8D823F003039A
S3150800282003F1604303F56443E6E700BFF469000873
S31508002830052810D0062808D0042800D07047094B70
S315080028401A6842F480321A607047064B1A6842F4D6
S3150800285080221A607047034B1A6842F400321A60E5
S31508002860704700BF24ED00E0052810D0062808D0E0
S31508002870042800D07047094B1A6822F480321A607F
S315080028807047064B1A6822F480221A607047034B79
S315080028901A6822F400321A60704700BF24ED00E07F
S315080028A008B5134B134A1A6003200021FFF79CFF53
S315080028B004200021FFF798FF05200021FFF794FF69
S315080028C006200021FFF790FF0B200021FFF78CFF61
S315080028D00C200021FFF788FF0E200021FFF784FF58
S315080028E00549064B0120002208601A6008BD00BF92
S315080028F008ED00E000000008A85B0020A45B0020AB
S3150800290000B583B0044B0193019B0BB1019B98471B
S3150800291003B05DF804FB00BF000000002DE9F0439A
S31508002920A0F10F03532B89B00446894615464BD8A8
S3150800293005F10F030E2B3AD84FEA54182F4F04F01F
S315080029401F0657F82820012303FA06F616420AD06E
S315080029500F2C46D0A4F1100202F01F002849520994
S31508002960834041F822306942C9B2C1F11001090118
S315080029702046FFF739FF19F0010F02D109B0BDE86B
S31508002980F08357F828301E42F8D00F2C2FD0103C71
S3150800299063099B0003F1604303F56143012204F0D8
S315080029A01F0402FA04F41C6009B0BDE8F083022291
S315080029B0144E154B00926946F522002002960392A2
S315080029C00493FFF747F8B7E702220E4E0F4B009223
S315080029D06946F4220020029603920493FFF73AF818
S315080029E0A6E70B4B1A6822F002021A60BBE7084BEF
S315080029F01A6842F002021A60C0E700BFE8660008DB
S31508002A0080E100E0046A0008506A0008346A000899
S31508002A1010E000E02DE9F041044684B00668056A36
S31508002A20476AEFF3058800200749FEF7FBFBC8F362
S31508002A3008022B4600200549009701960294FEF7E6
S31508002A40F1FBFFF7B9FE00BF806A0008A06A00081C
S31508002A502DE9F041044684B00668056A476AEFF333
S31508002A60058800200749FEF7DDFBC8F308022B4658
S31508002A7000200549009701960294FEF7D3FBFFF75D
S31508002A809BFE00BFF06A0008A06A000808B5FFF7B9
S31508002A9087FE00F0DBFAFFF79FFCFFF7ADFC024B61
S31508002AA001221A60FFF7CFFD585A002008B5EFF348
S31508002AB01182102A044B03D010215A6081F3118821
S31508002AC000221A60FFF701FE585A002008B5FFF7E2
S31508002AD0A5FCFFF771FE00BF30B5144B1C8889B002
S31508002AE0A4B114F0FF0F1DD0002314F00F021048F4
S31508002AF0104908BFC4F30312024408BF043312F88E
S31508002B00012C134451F8330009B030BD02220A4D96
S31508002B100A4B00922046AC2269460295039204931A
S31508002B20FEF798FF240A0823DFE700BF385C002079
S31508002B30106B0008B45B0020206B0008386B000897
S31508002B402DE9F001114B427B1149124DB1F800C035
S31508002B502C6803EBC2034FF001085E6846605F68A5
S31508002B60036008FA02F646EA0C06386058600E80DA
S31508002B7014B1637B9A4205D2074B28601868BDE8F2
S31508002B80F00170470020BDE8F0017047B45B0020F3
S31508002B90385C0020AC5B0020345C0020F0B543684C
S31508002BA00268457B264E1A60016856F835204B6048
S31508002BB006EBC503934289B0044606D0214B196833
S31508002BC0814237D0002009B0F0BD5A6893420BD035
S31508002BD002221D4F1D4B009200209722694602973C
S31508002BE003920493FEF736FF194B164A18881168A4
S31508002BF0012707FA05F520EA0505A1421D80E1D15E
S31508002C009DB115F0FF0F06BF2D0A082300231148B2
S31508002C1015F00F0108BFC5F30311014408BF0433BB
S31508002C2011F8011C0B4456F833500B4B1560186805
S31508002C3009B0F0BD08491A60086809B0F0BD00BFC0
S31508002C40B45B0020AC5B0020486B0008646B00088E
S31508002C50385C0020106B0008345C0020827B816899
S31508002C600023037302F0FD02C968417363F382020D
S31508002C7003618273704700BF826851691269114403
S31508002C80012210B4034C0273C46181615DF8044BE0
S31508002C90FFF756BFDB2600082DE9F047DFF8B8C076
S31508002CA0234F244E244D254C2548264B002201212E
S31508002CB0CCF800203A6032602A602160016003F196
S31508002CC080025B601B6008339342FAD11E4A1F4B91
S31508002CD0D2F8008000241C80B8F1000F25D01C4FC4
S31508002CE0DFF878901B4E254601E044451DD057F87D
S31508002CF0043F013B5B0109EB0300F21890F80EA0B4
S31508002D00F158D2F80CC005730AF0FC036FF382037E
S31508002D1083738B0704F101040561826080F80DC096
S31508002D20E3D5FFF7A9FF4445E1D1BDE8F08700BF29
S31508002D30AC5B0020B05B00203C5C0020445C0020BB
S31508002D40345C0020B45B0020F0690008385C002081
S31508002D503869000850690008405C0020045B0020C0
S31508002D602DE9F047037B467B0446DA0788B00D4613
S31508002D70617330D590E80C004F4F1A60026857F817
S31508002D803610536007EBC6038B424CD04B4A10886B
S31508002D9007EBC503DFF83C91596861604FF0010AFB
S31508002DA0D9F80080596823600AFA05FA40EA0A0A3F
S31508002DB01FFA8AFAA0450C605C60A2F800A04AD007
S31508002DC098F80D309D420AD23D4BC9F80040186864
S31508002DD008B0BDE8F08703F078031F2B03D800205E
S31508002DE008B0BDE8F087436959688B681B68DB073C
S31508002DF0F5D542680368136000680B68426099421B
S31508002E00607B03D105E01B68994202D05A7B824257
S31508002E10F9D95A6862605A682360002014605C60B9
S31508002E2008B0BDE8F0875A6893420DD00222DFF851
S31508002E30A8E0244B0092002097226946CDF808E0C6
S31508002E4003920493FEF706FE1C4A01201388B0403D
S31508002E5023EA00009CE7AE42C1D8BAF1000F1BD0A6
S31508002E601AF0FF0F24D000231AF00F02164908BFE4
S31508002E70CAF303120A4408BF043312F8012C134498
S31508002E8057F83330C9F800309845A8D00C4B186865
S31508002E90003018BF0120A3E702220C4C0C4B00920D
S31508002EA05046AC226946029403920493FEF7D2FD7B
S31508002EB04FEA1A2A0823D7E7B45B0020385C0020BB
S31508002EC0345C0020646B0008106B0008206B000857
S31508002ED0386B0008AC5B0020486B0008194970B5D0
S31508002EE051F8303001EBC0029A4288B01AD01C68FB
S31508002EF094420DD041F830401D68134C6A605568FD
S31508002F005D60256856681A609D423360536002D03A
S31508002F10002008B070BD0D4A51F8303010682360A3
S31508002F2008B070BD53689A42F2D00222084C094B89
S31508002F300092694697220020029403920493FEF7B2
S31508002F4089FDE5E7B45B0020AC5B0020345C00201B
S31508002F50486B0008646B00082DE9F04FDFF8DCA029
S31508002F60334ADAF800301268997B324C1869DFF870
S31508002F70D080DFF8D090DFF8D0B083B06FF382014D
S31508002F80D2F101070192997338BF0027264600251A
S31508002F9017E082F311880123C9F80030DAF8003007
S31508002FA02348019A0260DBF800109A7B22486FF3E7
S31508002FB082028B4207609A7300D057BB18690028B3
S31508002FC02ED01D612560D8F8003083F31188DAF811
S31508002FD00030184C9B68DA695968904733685BB9C2
S31508002FE0EFF311835A1E0F2A02D9102282F3118891
S31508002FF00122C8F800303260D9F80030002BCDD154
S315080030003268002AC5D0C8F80030102383F3118827
S31508003010C1E7FFF70DFA09490B6818690028D0D1EE
S315080030209A7B42F004029A7303B0BDE8F08F00BFA2
S315080030303C5C0020A85B0020345C0020405C00203B
S31508003040A45B0020445C0020AC5B002030B406483A
S31508003050064D074C074A002301212B6023600360B5
S31508003060116030BC704700BF545C00204C5C0020E7
S31508003070485C0020505C002001282DE9F003024638
S3150800308029D943085C1E154F154D57F83400D5F855
S3150800309000C0CCEB0000CCEB010840451BD9B94673
S315080030A007E059F83420CCEB020242450FD91A46FC
S315080030B0334607EBC40003C8551E5E0807EBC50573
S315080030C0012B85E8030006F1FF340A60E9D11846AA
S315080030D0BDE8F00370471346F9E700BFB85A002069
S315080030E0485C00201E4B2DE9F0031F6843009F42F1
S315080030F0054630D31B4A1C4CD2F800C0CCEB01085D
S3150800310015E054F83210CCEB01016E1E884504EB2D
S31508003110C20204EBC6064FEA43091CD992E803002B
S31508003120B94586E803000D601D4614D84B4603F1E1
S315080031300109B94503F1FF32E3D854F8326054F86F
S315080031403300CCEB0601CCEB00008842DDD21A46F0
S3150800315001464B46D9E72846BDE8F003704700BF4D
S31508003160545C0020485C0020B85A002038B5094B4A
S315080031701A680132044610461A600D46FFF77CFFAE
S31508003180054B421E03EBC20143F832504C602060E7
S3150800319038BD00BF545C0020B85A0020F8B51A4D57
S315080031A01A4C2B680268013B2B6054F83360DBB17C
S315080031B0012A09D95708791E154B54F831001B689E
S315080031C0C01AF31A834210D310463146FFF78AFF16
S315080031D002462B6804EBC30393E80300531E04EB73
S315080031E0C30484E803000A60F8BD04EBC10103C9FF
S315080031F0531E04EBC30383E803000A6038463146CE
S31508003200FFF73AFF0246E4E7545C0020B85A00206C
S31508003210485C002010B40468084B0948094A1B6832
S315080032201268013CD11A50F834005DF8044BC31AF1
S315080032308B428CBFC2EB000000207047485C002020
S31508003240B85A0020505C00202DE9F04F89B0EFF302
S3150800325014839B070CD502223B4C3C4B0092002062
S315080032604FF4B2726946029403920493FEF7F2FB96
S31508003270DFF8F490D9F80030002B56D1EFF311831C
S315080032805A1E0F2A02D9102282F3118830490122C8
S315080032900B60C9F800202F4A2F4C10682F4E236860
S315080032A03060411C11602E4D002B33D0DFF8BCB0C6
S315080032B02968DBF80020471A521ABA422AD85F460C
S315080032C0A04607E02A68DBF800103068891A821AD7
S315080032D091421FD8013B23605BF83310DBF804A04A
S315080032E07BB10120FFF7FEFED8F8001007EBC101FD
S315080032F0034603C903F1FF3E07EBCE0E8EE8030033
S315080033000B60DAF80430DAF8080098472368002BCF
S31508003310D8D13068286000230D4AC9F800301368F0
S3150800332083F3118809B0BDE8F08F0222064C0D4BD5
S315080033300092694640F265120020029403920493B3
S31508003340FEF788FB9AE700BF806B0008B06B0008A1
S31508003350A45B0020505C0020545C00204C5C0020DC
S31508003360485C0020A06B0008A85B0020B85A002023
S3150800337070B5EFF314839B072AD51E4C23683BBB15
S31508003380002833DD1C4B1B68984224DC1B4B013894
S3150800339003EB4010EFF311835A1E0F2A02D91022AD
S315080033A082F31188164D01222B602260067BAEB18E
S315080033B0837B13F0010205BF43F0010383736FF0AB
S315080033C02A001046002323602B6883F3118870BDFA
S315080033D06FF0180070BD6FF0110070BDFFF74CFC60
S315080033E00028EFD0FFF724F83046EBE7F3D1054B7A
S315080033F01868CFE7A85B0020F0690008045B002086
S31508003400A45B0020405C002070B5EFF314839B0793
S3150800341002D56FF0180070BD1C4C2368002BF8D13C
S3150800342000282FDD1A4B1B6898422BDC194B0138F4
S3150800343003EB4010EFF311835A1E0F2A15D8164DC9
S3150800344001222B602260067B9EB1837B13F001026A
S3150800345005BF43F0010383736FF02A00104600236B
S3150800346023602B6883F3118870BD102282F31188BC
S31508003470E5E7FFF701FC0028F1D0084B01223046AA
S315080034801A60ECE76FF0110070BD00BFA85B002062
S31508003490F0690008045B0020A45B0020B05B0020F4
S315080034A010B4EFF314839B0728D51B490B682BBB75
S315080034B000282DDD194B1B68984224DC184B01386F
S315080034C003EB4013EFF31182501E0F2802D9102088
S315080034D080F31188134C012022600860987B02460D
S315080034E06FF300029A7300F001000B4A0021116085
S315080034F0236883F311885DF8044B70476FF0180052
S315080035005DF8044B70476FF011005DF8044B704787
S31508003510F9D1054B1B68D5E7A85B0020F0690008C0
S31508003520045B0020A45B0020405C002010B5EFF38C
S315080035301483990723D51D4B1A681AB31C4A1168B8
S3150800354009B1002111601B4A116841B91B6813B102
S3150800355019481023016083F3118801231360174C5F
S31508003560174B206801221A60FFF718FB2068FFF73F
S3150800357075FB2068837BDA0711D4FFF772F86FF0C2
S31508003580180010BDEFF31182511E0F2902D9102120
S3150800359081F311880848012102601960CEE76FF3AC
S315080035A000038373FFF768FBE7E700BFA85B00200B
S315080035B03C5C0020445C0020A45B0020405C0020AA
S315080035C0345C002070B5EFF314839C0726D52C4D88
S315080035D02B681BBB00284DDD2A4B1B68984249DC2B
S315080035E0294B2A4A1B680138400184189C4244D05A
S315080035F0EFF31183591E0F2902D9102181F311887F
S31508003600234E012133602960237B53B96FF02800CC
S3150800361000232B60336883F3118870BD6FF01800A0
S3150800362070BDD90717D499070DD503F078030F2B6A
S3150800363004D96368815819608258536063691868A9
S3150800364008B1FFF7ABFD2046FFF708FBA37BDA07B7
S3150800365005D40020DCE72046FFF7A0FAF3E76FF36E
S3150800366000032046A373FFF707FB0028F1D0FEF7F7
S31508003670DFFEEEE76FF0110070BD6FF01B0070BD46
S31508003680A85B0020F0690008405C0020045B00206D
S31508003690A45B002038B5EFF314839B0727D5214C8C
S315080036A0236823BB002828DD1F4B1B68984221DCB2
S315080036B0102933D81D4B013803EB401021BB836812
S315080036C0D968EFF311835A1E0F2A02D9102282F302
S315080036D01188174D01222B602260037BB3B96FF066
S315080036E02800002323602B6883F3118838BD6FF008
S315080036F0180038BD6FF0110038BDFBD110290DD860
S315080037000C4B18680029DAD00139DAE7FFF728FBED
S315080037100028E6D0FEF78CFE0020E2E76FF01000E6
S3150800372038BD00BFA85B0020F0690008045B0020D4
S31508003730A45B0020405C002030B4EFF314839B07A1
S3150800374025D51A4B1A6812BB00282BDD184A1268B1
S31508003750904220DC174A013802EB4010EFF311843F
S31508003760621E0F2A02D9102282F31188124A0125F5
S3150800377014601D60047B94B1407B01300860002012
S3150800378000211960136883F3118830BC70476FF005
S31508003790180030BC70476FF0110030BC70476FF0EE
S315080037A02800EDE7F7D1054A1068D7E7A85B00209F
S315080037B0F0690008045B0020A45B0020405C002040
S315080037C010B4EFF314839B071AD5124A1368BBB9D2
S315080037D0EFF31183591E0F2917D80F4C01212360C7
S315080037E011600E4B1B689B685B680360094A0021E1
S315080037F01160236883F3118800205DF8044B704735
S315080038006FF018005DF8044B7047102181F311889A
S31508003810E3E700BFA85B0020A45B0020405C002013
S31508003820F0B583B0EFF314839B071FD5194C2368B3
S31508003830E3B9194B1B68CBB1EFF311835A1E0F2A54
S3150800384018D8164D01222B602260154F3868837BE5
S31508003850C3F3400696B16FF3410383730020002338
S3150800386023602B6883F3118803B0F0BD6FF018004E
S3150800387003B0F0BD102282F31188E2E70A2303732E
S31508003880FFF78CF93B68019601AA5A61FEF7D0FD4D
S315080038900198E4E7A85B0020345C0020A45B0020C4
S315080038A0405C002030B585B0EFF314839B0722D522
S315080038B01C4C2368FBB91C4B1B68E3B1451C2EDB6B
S315080038C0EFF311835A1E0F2A02D9102282F31188A8
S315080038D0164D01222B602260154B1B689A7B9107B7
S315080038E00DD488B96FF03100002323602B6883F369
S315080038F0118805B030BD6FF0180005B030BD6FF304
S3150800390041029A730020EFE70A21024619736846B6
S3150800391001A901F001FEFEF78BFD0098E4E76FF0C0
S315080039201000EAE7A85B0020345C0020A45B0020B6
S31508003930405C002038B5EFF314839B0726D5224C4C
S3150800394023681BBB00282FDD204B1B68984220DC10
S315080039501F4B013803EB4012EFF31183591E0F2951
S3150800396002D9102181F311881A4D01212B6021609B
S31508003970137B8BB103F07803082B1CD0937BC3F31E
S315080039804000A8B943F00203937307E06FF01800EC
S3150800399038BD6FF0110038BD6FF028000023236092
S315080039A02B6883F3118838BDF3D10B4B1A68D3E71C
S315080039B06FF02A00F2E7104601F0E4FD0028EDD08A
S315080039C0FEF736FD0020E9E7A85B0020F06900084D
S315080039D0045B0020A45B0020405C002038B5EFF3B0
S315080039E014839B0702D56FF0180038BD1F4C236857
S315080039F0002BF8D1002836DD1D4B1B68984232DCB7
S31508003A001C4B013803EB4012EFF31183591E0F29A3
S31508003A1002D9102181F31188174D01212B602160ED
S31508003A20137B3BB96FF02800002323602B6883F3D0
S31508003A30118838BD03F07803082B0AD0937BC3F3AB
S31508003A40400018B943F002039373EDE76FF02A00BC
S31508003A50EAE7104601F096FD0028E5D0074B01225B
S31508003A601A600020E0E76FF0110038BDA85B00205F
S31508003A70F0690008045B0020A45B0020B05B00200E
S31508003A8010B4EFF314839B0729D51D4B1A6832BB74
S31508003A90002831DD1B4A1268904225DC1A4A013893
S31508003AA002EB4011EFF31180421E0F2A02D91022B1
S31508003AB082F31188154A012410601C60087BC0B186
S31508003AC0887B04466FF341048C73C0F340000021E1
S31508003AD01960136883F311885DF8044B70476FF01B
S31508003AE018005DF8044B70476FF011005DF8044B41
S31508003AF070476FF02800EAE7F6D1054A1168D1E762
S31508003B00A85B0020F0690008045B0020A45B002085
S31508003B10405C002038B5EFF314839A0720D5194C7A
S31508003B202368EBB900282ADD174B1B68984226DC68
S31508003B30164B013803EB4010EFF311835A1E0F2A78
S31508003B4011D8134D01222B602260037B9B070ED4EC
S31508003B506FF02800002323602B6883F3118838BD93
S31508003B606FF0180038BD102282F31188E9E701F0DA
S31508003B7081FD0028EED0FEF75BFC0020EAE76FF037
S31508003B80110038BDA85B0020F0690008045B00201E
S31508003B90A45B002038B5EFF314839A0702D56FF0BB
S31508003BA0180038BD184C2368002BF8D1002828DDEA
S31508003BB0164B1B68984224DC154B013803EB401062
S31508003BC0EFF311835A1E0F2A0ED8124D01222B60CD
S31508003BD02260037B9B070BD46FF028000023236029
S31508003BE02B6883F3118838BD102282F31188ECE71D
S31508003BF001F040FD0028F1D0074B01221A60002091
S31508003C00ECE76FF0110038BDA85B0020F0690008EA
S31508003C10045B0020A45B0020B05B002038B5EFF3FE
S31508003C201483990728D5284C23682BBB002831DD37
S31508003C30264B1B68984222DC254B264A013803EBA3
S31508003C404010EFF31183591E0F2902D9102181F371
S31508003C501188214D01212B6021601368984222D0DA
S31508003C60037B7BB1DA0725D403F0040202F0FF01D7
S31508003C70A2B16FF02A0007E06FF0180038BD6FF0A8
S31508003C80110038BD6FF02800002323602B6883F3EA
S31508003C90118838BDF3D10F4A1068D2E743F0040300
S31508003CA003730846F0E70D4B1B68002BD8D16FF05D
S31508003CB01800E9E704230373FEF770FF0028E3D032
S31508003CC0FEF7B6FB0020DFE7A85B0020F0690008D6
S31508003CD0045B0020405C0020A45B0020345C0020CC
S31508003CE070B5EFF314839C0723D51F4C236803BBD9
S31508003CF0002836DD1D4B1B68984232DC1C4B013808
S31508003D0003EB4012EFF31183591E0F2902D9102134
S31508003D1081F31188174D01212B602160137B590708
S31508003D200AD46FF02800002323602B6883F31188D8
S31508003D3070BD6FF0180070BD03F0020101F0FF06B8
S31508003D4021B123F0040313730020ECE70123104686
S31508003D501373FEF7F5FE0028E5D0FEF769FB30463B
S31508003D60E1E76FF0110070BDA85B0020F06900085C
S31508003D70045B0020A45B002030B5044685B0EFF351
S31508003D8014839B0732D51F4A1368002B2ED11E4B6E
S31508003D901B68002B2AD0002C30DBEFF31183591E49
S31508003DA00F2927D81948012103601160184D286882
S31508003DB002230373FEF7F2FE164B2A681968164D9E
S31508003DC0039201AB00A8506121441846009302955E
S31508003DD0FFF7CCF9FEF72CFB00980A4A0B4B00219B
S31508003DE011601B6883F3118805B030BD6FF01800A9
S31508003DF005B030BD102181F31188D3E76FF01000AC
S31508003E00F2E700BFA85B0020345C0020A45B00201A
S31508003E10405C0020505C0020E955000838B5EFF3F7
S31508003E2014839B070FD5264C236863B9002810DD39
S31508003E30244B1B68984209DC00293ED0224B0138E6
S31508003E4003EB40100AE06FF0180038BD6FF0110060
S31508003E5038BDFBD1002930D01C4B1868EFF311830D
S31508003E605A1E0F2A02D9102282F31188184D0122F0
S31508003E702B602260037B83B18368DB696BB1134ACD
S31508003E800369126819439042016109D00020002392
S31508003E9023602B6883F3118838BD6FF02800F6E796
S31508003EA0807BC0F380000028F1D00A4B18680028F0
S31508003EB0EDD0FFF751F80020E9E76FF0100038BDA4
S31508003EC0A85B0020F0690008045B0020405C002025
S31508003ED0A45B0020445C002030B4EFF314839B07F6
S31508003EE003D56FF0180030BC7047234B1A68002AB8
S31508003EF0F7D100283ADD214A1268904236DC0029BB
S31508003F0037D01F4A013802EB4010EFF31184621EC6
S31508003F100F2A02D9102282F311881A4A0125146041
S31508003F201D60047B5CB18468E46944B1164D04697C
S31508003F302D682143A84201610AD0002001E06FF0F4
S31508003F40280000211960136883F3118830BC704774
S31508003F50807BC0F380000028F3D00C49086800284D
S31508003F60EFD00B49012008600020EAE76FF0110046
S31508003F70B9E76FF01000B6E7A85B0020F069000803
S31508003F80045B0020A45B0020405C0020445C002009
S31508003F90B05B0020EFF314839B071BD5124A136806
S31508003FA0C3B9EFF31183591E0F2916D80F490120FB
S31508003FB00B6010600E4B1B689868C06988B1987BC7
S31508003FC06FF3820098730020002313600B6883F355
S31508003FD0118870476FF018007047102181F3118817
S31508003FE0E4E76FF02800EFE7A85B0020A45B002059
S31508003FF0405C002038B5EFF314839B071FD5174C98
S315080040002368E3B9EFF311835A1E0F2A1AD8144D01
S3150800401001222B602260134B1B689A68D269CAB1C9
S315080040209A7B186942F004029A7310B10E4B18680D
S3150800403060B9002323602B6883F3118838BD6FF0BD
S31508004040180038BD102282F31188E0E7FEF784FFD6
S315080040500020EEE76FF02800EBE700BFA85B002022
S31508004060A45B0020405C0020445C0020054B1B68D4
S315080040702BB1987B80F00400C0F3800070470120C4
S31508004080704700BF405C002030B4EFF314839B07F1
S315080040902ED51F4B1A685ABB002834DD1D4A1268F4
S315080040A0904229DC1C4A013802EB4010EFF31184D8
S315080040B0621E0F2A02D9102282F31188174A012597
S315080040C014601D60047BDCB18468E469C4B1847B38
S315080040D00069486014F0040F0CBF02200120086034
S315080040E0002000211960136883F3118830BC7047DB
S315080040F06FF0180030BC70476FF0110030BC704785
S315080041006FF02800EDE7F7D1054A1068CEE700BF43
S31508004110A85B0020F0690008045B0020A45B00206F
S31508004120405C00200A4B10B41C6874B1094B0A4A5B
S315080041300021013150689A60A1425B601B60D8601B
S3150800414002F10C0203F11003F3D15DF8044B70473A
S3150800415038690008985A002020690008F0B589B027
S31508004160EFF314839B0726D5284D2B681BBB002825
S3150800417048DD274B1B68984244DC0138254B020171
S31508004180D418EFF31181481E0F2818D8224E0120A3
S3150800419031602860D058844215D00168D150036830
S315080041A05C6001F0EFF948BB00232B60336883F3AA
S315080041B0118809B0F0BD6FF0180009B0F0BD1020E5
S315080041C080F31188E2E763689C420BD00222134F02
S315080041D0134B009200209722694602970392049394
S315080041E0FDF738FCA268E3689268934202D36FF041
S315080041F02A00D9E70133E3600020D5E7FEF718F96E
S315080042000020D1E76FF01100D3E700BFA85B0020BC
S3150800421038690008985A0020A45B0020486B0008FB
S31508004220646B0008F0B589B0EFF314839B0703D5D8
S315080042306FF0180009B0F0BD294D2B68002BF7D197
S31508004240002849DD274B1B68984245DC0138264B78
S315080042500201D418EFF31181481E0F2818D8234EEF
S31508004260012031602860D058844215D00168D150A9
S3150800427003685C6001F086F918B11D4B01221A60CB
S31508004280002000232B60336883F3118809B0F0BD42
S31508004290102080F31188E2E763689C420BD0022263
S315080042A0144F154B009200209722694602970392F5
S315080042B00493FDF7CFFBA268E3689268934202D3A2
S315080042C06FF02A00DDE70133E360002000232B604E
S315080042D0336883F31188D9E76FF01100AAE700BFA6
S315080042E0A85B002038690008985A0020A45B0020C3
S315080042F0B05B0020486B0008646B000830B583B0DB
S31508004300EFF314839B0724D51D4C23680BBB1D4B69
S315080043101B68F3B100282FDD1B4B1B6898422BDC6A
S315080043201A4B013803EB0010EFF311835A1E0F2ABC
S3150800433013D8174D01222B602260C3688BB1013B4D
S31508004340C3600020002323602B6883F3118803B021
S3150800435030BD6FF0180003B030BD102282F311880B
S31508004360E7E70C4B1B6822221A73694601F0C0F96D
S31508004370FEF75EF80098E5E76FF01100E7E700BF83
S31508004380A85B0020345C002038690008985A002091
S31508004390A45B0020405C002010B4EFF314839B0755
S315080043A024D5184B1A680ABB002828DD164A126855
S315080043B0904224DC154A013802EB0010EFF3118114
S315080043C04A1E0F2A02D9102282F31188104A0124A4
S315080043D011601C60C16871B96FF031000021196065
S315080043E0136883F311885DF8044B70476FF0180063
S315080043F05DF8044B70470139C1600020EEE76FF0A5
S315080044001100F5E7A85B002038690008985A0020D3
S31508004410A45B002070B586B0EFF314839A0729D5FC
S31508004420224C236833BB224B1B681BB3002836DD9E
S31508004430204B1B68984232DC4B1C33DB1E4B013881
S3150800444003EB0010EFF31182531E0F2B02D9102332
S3150800445083F31188194D01232A602360C3686BB959
S3150800446081B96FF03100002323602B6883F311882C
S3150800447006B070BD6FF0180006B070BD013BC36092
S315080044800020F0E70E4B1A6822260B46167301A980
S3150800449003AA01F05BF9FDF7CBFF0198E3E76FF09C
S315080044A01100E9E76FF01000E6E700BFA85B0020FF
S315080044B0345C002038690008985A0020A45B002064
S315080044C0405C002070B5EFF314839B0723D5184D85
S315080044D02B6803BB002828DD164B1B68984224DC92
S315080044E0154B013803EB0014EFF311835A1E0F2AFC
S315080044F014D8124E012233602A60204601F054F97E
S31508004500A3685B68E36068B900232B60336883F3AC
S315080045101188002070BD6FF0180070BD102282F35C
S315080045201188E6E7FDF784FFEEE76FF0110070BD2E
S31508004530A85B002038690008985A0020A45B002070
S315080045402DE9F0410D4688B0EFF314839B072FD56C
S31508004550264ED6F80080B8F1000F29D1002842DD92
S31508004560234B1B6898423EDC224B01380001C418D5
S31508004570EFF31182511E0F291FD81F4F01213A60F0
S315080045803160C3589C421CD01C4AC2EB03084FEA50
S31508004590681808F10108E3686B60C5F80080002315
S315080045A033603B6883F31188002008B0BDE8F081CA
S315080045B06FF0180008B0BDE8F081102181F311886A
S315080045C0DBE763689C42E6D00222DFF838E00C4B52
S315080045D00092694697220020CDF808E003920493DA
S315080045E0FDF738FAD7E76FF01100DEE7A85B002081
S315080045F038690008985A0020A45B0020045B002054
S31508004600646B0008486B000810B4EFF314839B072B
S3150800461018D5114A1368ABB9EFF31183591E0F2940
S3150800462015D80E4C0121236011600D4B1B680360E1
S31508004630094A00211160236883F3118800205DF878
S31508004640044B70476FF018005DF8044B7047102153
S3150800465081F31188E5E700BFA85B0020A45B002072
S315080046604C5C002030B4EFF31183102B2DD01F497A
S3150800467010220B6082F311881D4A1E4913680C68C4
S3150800468011681A4D1C4A2D681268C3F5A433C1F582
S31508004690A4312033203104F0806485F311884FF467
S315080046A07A7505FB02F20CB18B4201D9A2F57A7232
S315080046B04FF47A74114904FB03F3A1FB034302EB9D
S315080046C09332026030BC00207047094A09491368D2
S315080046D00C681168084AC3F5A433C1F5A431203320
S315080046E0203104F080641268D9E700BF605A0020C0
S315080046F018E000E004ED00E0505C002009A4EE316B
S3150800470002682249F8B58368D56804461D44606185
S31508004710016129460C30FEF729FD1D4BA5601A6874
S315080047204ABBEFF311821B4DD2B20AB31209A2F1AA
S315080047301007160100221A602B6883F31188236874
S315080047409A6858689047124B1A683AB9EFF311827B
S31508004750511E0F2913D801212A6019601B68002FE2
S3150800476008BF00267BB12E60102383F31188F8BD9D
S3150800477016461746DEE7074D2A68D2B2D5E7102156
S3150800478081F31188E7E786F31188F8BD0147000829
S31508004790A85B0020A45B00202DE9F84FDFF874B071
S315080047A0DBF8003073B3184F184D3C46A7F10C09D7
S315080047B000264FF001080AE044F8083CDBF8003010
S315080047C00136B34205F1140504F118041AD92B6809
S315080047D044F80C5C13F00203A4F10C02ECD0C9EB0C
S315080047E0040ED5F810A00A4B44F8088CBE4451466E
S315080047F020464EF8083C4EF8042CFEF7B7FC44F861
S3150800480004ACDBE7BDE8F88F8C5A0020F468000892
S3150800481001470008086900082DE9F843EFF31483F7
S315080048209B0736D5244D2B68002B32D100283EDD58
S31508004830224B1B6898423ADC013800EB4000204FB7
S315080048404FEAC00808EB0704EFF311835A1E0F2A34
S3150800485023D81C4E012233602A6063680BBB0123F0
S31508004860636004F10C0958F80720174B12691F6892
S31508004870164B64611744484639462361FEF776FCB1
S31508004880A76000232B60336883F311880020BDE8F6
S31508004890F8836FF01800BDE8F883102282F31188B8
S315080048A0D7E704F10C094846FEF778FCDBE76FF01A
S315080048B01100BDE8F88300BFA85B0020086900085E
S315080048C0805A0020A45B0020505C002001470008A5
S315080048D038B5EFF314839B0720D5194C2368EBB939
S315080048E0002829DD174B1B68984225DC164B013832
S315080048F000EB400003EBC002EFF31183591E0F29AA
S315080049000FD8124D01212B60216053686BB9002323
S3150800491023602B6883F31188002038BD6FF01800D8
S3150800492038BD102181F31188EBE7002302F10C0052
S315080049305360FEF733FCEAE76FF0110038BD00BF9D
S31508004940A85B002008690008805A0020A45B0020A4
S3150800495070B50E46EFF314839B0722D5194C2368CE
S31508004960FBB900282BDD184B1B68984227DC174B30
S31508004970013800EB400003EBC000EFF311835A1E29
S315080049800F2A11D8124D01222B60226043687BB989
S3150800499001233360002323602B6883F311880020EA
S315080049A070BD6FF0180070BD102282F31188E9E718
S315080049B002230C303360FEF72DFC7060EAE76FF0D7
S315080049C0110070BDA85B002008690008805A002005
S315080049D0A45B00201D4B1A68002170B541604ABBD4
S315080049E0EFF311821A4CD2B20AB31209A2F11006D9
S315080049F0150100221A60236883F3118803689A68F0
S31508004A0058689047114B1A683AB9EFF31182511E4C
S31508004A100F2913D80121226019601B68002E08BFD0
S31508004A2000257BB12560102383F3118870BD1546D8
S31508004A301646DEE7064C2268D2B2D5E7102181F386
S31508004A401188E7E785F3118870BD00BFA85B0020D1
S31508004A50A45B00200A4B70B41D6875B10023094990
S31508004A6009481A461E46C4180132AA42C15001F125
S31508004A700C01666003F11403F5D170BC704700BFE2
S31508004A80F0680008E4680008F05A00202DE9F041B3
S31508004A900D46EFF314839B0730D5234E33686BBB63
S31508004AA0002839DD214B1B68984235DC002D37DBA1
S31508004AB01F4B013800EB800003EB8004EFF31183F2
S31508004AC05A1E0F2A1ED81B4F01223B6032606368AC
S31508004AD0E3B90123636004F10808174A174B116804
S31508004AE0246140462944E360FEF740FB0023336017
S31508004AF03B6883F311880020BDE8F0816FF0180049
S31508004B00BDE8F081102282F31188DCE704F1080879
S31508004B104046FEF743FBE0E76FF01100BDE8F08181
S31508004B206FF01000BDE8F081A85B0020F06800086F
S31508004B30F05A0020A45B0020505C0020D5490008EC
S31508004B402DE9F0410D46EFF314839B0703D56FF06B
S31508004B501800BDE8F081224E3368002BF7D10028F3
S31508004B6035DD204B1B68984231DC002D33DB1E4BAC
S31508004B70013800EB800003EB8004EFF311835A1E23
S31508004B800F2A1AD8194F01223B6032606368C3B9ED
S31508004B900123636004F10808154A164B116824615D
S31508004BA040462944E360FEF7E1FA002333603B6898
S31508004BB083F311880020BDE8F081102282F3118862
S31508004BC0E0E704F108084046FEF7E8FAE4E76FF084
S31508004BD01100BDE8F0816FF01000BDE8F08100BF5C
S31508004BE0A85B0020F0680008F05A0020A45B0020AB
S31508004BF0505C0020D549000838B5EFF314839B07AD
S31508004C0020D5194C2368EBB9002829DD174B1B68FA
S31508004C10984225DC164B013800EB800003EB800236
S31508004C20EFF31183591E0F290FD8124D01212B605E
S31508004C30216053686BB9002323602B6883F31188BE
S31508004C40002038BD6FF0180038BD102181F3118897
S31508004C50EBE7002302F108005360FEF79FFAEAE744
S31508004C606FF0110038BD00BFA85B0020F06800088F
S31508004C70F05A0020A45B002038B5EFF314839B0795
S31508004C8002D56FF0180038BD174C2368002BF8D1F1
S31508004C90002826DD154B1B68984222DC144B013888
S31508004CA000EB800003EB8002EFF31183591E0F29F6
S31508004CB00CD8104D01212B602160536853B900238D
S31508004CC023602B6883F31188002038BD102181F3F7
S31508004CD01188EEE7002302F108005360FEF75EFA3A
S31508004CE0EDE76FF0110038BDA85B0020F0680008FA
S31508004CF0F05A0020A45B002070B50E46EFF314832B
S31508004D009B0722D5194C2368FBB900282BDD184BC5
S31508004D101B68984227DC174B013800EB800003EB31
S31508004D208000EFF311835A1E0F2A11D8124D012263
S31508004D302B60226043687BB901233360002323601C
S31508004D402B6883F31188002070BD6FF0180070BDC2
S31508004D50102282F31188E9E7022308303360FEF750
S31508004D6059FA7060EAE76FF0110070BDA85B002081
S31508004D70F0680008F05A0020A45B002038B5EFF36D
S31508004D8014839B071CD5164C2368CBB9102824D846
S31508004D90EFF311835A1E0F2A02D9102282F31188C3
S31508004DA0104D01222B60226068B10138FEF796F893
S31508004DB080B9002323602B6883F31188002038BD4F
S31508004DC06FF0180038BD084B1B68587BFEF786F84D
S31508004DD00028EED0FDF72CFBEBE76FF0100038BD8E
S31508004DE0A85B0020A45B0020405C002038B5EFF3E8
S31508004DF014839B0702D56FF0180038BD114C236841
S31508004E00002BF8D101380F2818D8EFF311835A1E52
S31508004E100F2A02D9102282F311880B4D01222B602A
S31508004E202260FEF75BF810B1084B01221A600023D6
S31508004E3023602B6883F31188002038BD6FF01000BB
S31508004E4038BD00BFA85B0020A45B0020B05B002033
S31508004E5010B4EFF314839B071CD5134A1368CBB918
S31508004E60EFF31183591E0F2919D8104C012123601D
S31508004E7011600F4A0F4B1268D31A5B110133036096
S31508004E80094A00211160236883F3118800205DF820
S31508004E90044B70476FF018005DF8044B70471021FB
S31508004EA081F31188E1E700BFA85B0020A45B00201E
S31508004EB0405C0020045B002010B4EFF314839B07CA
S31508004EC004D56FF018005DF8044B7047104B1A684C
S31508004ED0002AF6D1EFF311814A1E0F2A14D80D4A7B
S31508004EE0012411601C600C49096819B10B4C091B97
S31508004EF049110131016000211960136883F3118893
S31508004F0000205DF8044B7047102282F31188E6E70B
S31508004F10A85B0020A45B0020405C0020045B002006
S31508004F20EFF314839B0702D46FF018007047094A01
S31508004F3013686BB9EFF31183591E0F2902D9102193
S31508004F4081F311880448012103601160002070472D
S31508004F5000207047A85B0020A45B0020EFF31480B4
S31508004F6010F0020002D06FF018007047084A136864
S31508004F706BB9EFF31183591E0F2902D9102181F35A
S31508004F8011880448012103601160002070477047AA
S31508004F90A85B0020A45B0020EFF314839B0702D4D0
S31508004FA06FF018007047064B186838B10021054A9B
S31508004FB01960136883F3118800207047704700BF93
S31508004FC0A85B0020A45B0020EFF314839B0702D59F
S31508004FD06FF018007047064B186838B10021054A6B
S31508004FE01960136883F3118800207047704700BF63
S31508004FF0A85B0020A45B0020EFF314839B071DD554
S31508005000104A1368D3B9EFF31183591E0F2902D931
S31508005010102181F311880C480121036011600B49A6
S315080050200B4B0120002208601A60064A064B002135
S3150800503011601B6883F31188002070476FF0180011
S31508005040704700BFA85B0020A45B00203C5C0020E2
S31508005050345C002038B5EFF314839B0726D5154C2E
S3150800506023681BBBEFF311835A1E0F2A02D910229D
S3150800507082F31188104D01222B6022600F4B104AD3
S315080050801B680021116053B10E4A0F4B12681B684A
S315080050900E4901209A42086001D0FDF7C9F900239C
S315080050A023602B6883F31188002038BD6FF0180041
S315080050B038BD00BFA85B0020A45B0020445C00202C
S315080050C03C5C0020405C0020AC5B0020345C002087
S315080050D0EFF3148080F00200C0F34000704700BF71
S315080050E0024B1868003018BF01207047A85B0020E3
S315080050F0014B1868704700BF3C5C0020EFF314832F
S315080051009B0709D5054B1B6833B9054B1868D0F1C1
S31508005110010038BF0020704701207047A85B0020B7
S31508005120345C0020034B1868D0F1010038BF00201A
S31508005130704700BF585A0020074B70B51E6856B115
S31508005140064C002514E90300013554F80C2BFDF72D
S31508005150E5FBB542F6D170BDC4680008B46800081E
S3150800516030B4EFF314839B0703D46FF0180030BCF8
S315080051707047A0F10F03532B37D81D4B1A685AB93D
S31508005180EFF311814C1E0F2C02D9102484F31188D9
S31508005190184D012429601C601749440900F01F05B1
S315080051A051F82440012101FA05F5254214D00F28AB
S315080051B015D0103800F01F05104C4009A94044F8D6
S315080051C020100020002AD2D100210A4A196013684B
S315080051D083F3118830BC70476FF02800F2E708495E
S315080051E0086820F002000860EBE76FF01000BEE7E1
S315080051F0A85B0020A45B0020E866000880E100E0C8
S3150800520010E000E030B4EFF314839B0703D46FF08B
S31508005210180030BC7047A0F10F03532B3AD81F4B28
S315080052201A685AB9EFF311814C1E0F2C02D91024B3
S3150800523084F311881A4D012429601C601949440910
S3150800524000F01F0551F82440012101FA05F5254211
S3150800525017D00F2818D010384409A40004F1604468
S3150800526004F5614400F01F00814021600020002AF7
S31508005270CFD100210A4A1960136883F3118830BC1C
S3150800528070476FF02800F2E70749086840F0020007
S315080052900860EBE76FF01000BBE700BFA85B0020D3
S315080052A0A45B0020E866000810E000E070B5EFF3A4
S315080052B01483990731D5284C236873BB00F10F0373
S315080052C00F2B46D8EFF311835A1E0F2A02D9102244
S315080052D082F31188214D01222B60226000B303015D
S315080052E003F0F00322680AB12B60102383F31188B8
S315080052F0C0B91B4B1B491A6801230B60C2B11A4B74
S315080053001B689A7B520701D51B69FBB900232360EA
S315080053102B6883F31188002070BD6FF0180070BDEC
S315080053200346DFE70F49114A00230B601360EDE7D8
S315080053300D4E0F49326809680C488A42036003D04B
S31508005340FDF776F83368DCE71346DAE7FDF704FE7F
S31508005350DCE76FF0100070BDA85B0020A45B00209E
S315080053603C5C0020445C0020405C0020345C00204B
S31508005370AC5B002030B4EFF314839B0720D5144BA5
S315080053801C68ECB9EFF311814A1E0F2A02D91022C4
S3150800539082F311880F4A012511601D600C4B1968AC
S315080053A091B9EFF31181C9B209B10C09103C046037
S315080053B000211960136883F31188002030BC7047F8
S315080053C06FF0180030BC70471168C9B2ECE700BF2F
S315080053D0A85B0020A45B0020F8B5074B1E6856B1F1
S315080053E00024064F254638590135FDF721FAB542FE
S315080053F004F10C04F7D1F8BDA86800089C680008F9
S315080054000A4B1B680BB90120704743685B07FAD53E
S315080054100368002BF7D1064B1B68002BF3D1054B0D
S315080054201868003018BF0120704700BF585A00207E
S31508005430A85B00203C5C00200B4B1B680BB90120C5
S31508005440704743685B07FAD50368002BF7D1074B0B
S315080054501B68002BF3D1064B1B68987B80F0040071
S31508005460C0F38000704700BF585A0020A85B002090
S31508005470405C002030B5037B03F078030F2B89B01E
S31508005480044621D863696FF031021A60237B03F062
S31508005490020202F0FF00EAB15B0729D50423237351
S315080054A0184B194A00211960116881F31188EFF326
S315080054B01181481E0F2802D9102080F31188012077
S315080054C01160186009B030BD90E80C001A600268D7
S315080054D05360D7E702220D4B00920D4D04936D22BF
S315080054E0694602950392FCF7B5FA237B5B07D5D488
S315080054F0012525732046FDF723FB0028D0D0054B50
S315080055001D60CDE7A85B0020A45B0020D86B0008CF
