S00E0000726F6D6D6F6E2E737265637E
S3150800000044760120A5010008990F0008A90F0008E9
S31508000010B90F0008C90F0008D90F00080000000032
S31508000020000000000000000000000000F1010008C8
S31508000030E90F000800000000F90F0008F1010008A8
S31508000040F1010008F1010008F1010008F1010008BA
S31508000050F1010008F1010008F1010008F1010008AA
S31508000060F1010008F1010008F1010008F10100089A
S31508000070F1010008F1010008F1010008F10100088A
S31508000080F1010008F1010008F1010008F10100087A
S31508000090F1010008F1010008F1010008F10100086A
S315080000A0F1010008F1010008F1010008F10100085A
S315080000B0F1010008F1010008F1010008F10100084A
S315080000C0F1010008F1010008F1010008F10100083A
S315080000D0F1010008F1010008E9110008F101000822
S315080000E0F1010008F1010008F1010008F10100081A
S315080000F0F1010008F1010008F1010008F10100080A
S31508000100F1010008F1010008F1010008F1010008F9
S31508000110F1010008F1010008F1010008F1010008E9
S31508000120F1010008F1010008F1010008F1010008D9
S31508000130F1010008F1010008F1010008F1010008C9
S31508000140F1010008F1010008F1010008F1010008B9
S31508000150F1010008F1010008F1010008F1010008A9
S31508000160F1010008F1010008F1010008F101000899
S31508000170F1010008F1010008F1010008F101000889
S30D08000180F1010008F101000875
S315080001880000000000000000B01F000800700120F1
S31508000198007001200070012044720120002100F03F
S315080001A804B80C4B5B58435004310B480B4B4218A8
S315080001B89A42FFF4F6AF0A4A00F003B8002342F859
S315080001C8043B084B9A42FFF4F9AF01F08DFB00F0A7
S315080001D80DF97047B01F0008007001200070012053
S315080001E80070012044720120FFF7FEBFA0F16400E9
S315080001F8002800F301807047A0F1660000283FF741
S31508000208FBAF704738B5084C2078254601F0DAF870
S3150800021814F8010F0028F8D10A2001F0D3F8A878B5
S31508000228AC1C0028F1D138BD801B000838B50C462F
S3150800023808468021256800F041FC2368AB420ABFBE
S31508000248084B04465C6800F093FE064801F046FB36
S31508000258A04700F08DFE044801F040FBBDE8384091
S3150800026800F08EBE00000020000000082DE9F04FBF
S31508000278504BDFF8548161224FF0000B1A5483B0B3
S3150800028804465F46D946DA46204600F055FC4FF044
S31508000298FF30214600F062FC00900028F7D010F8DD
S315080002A8013B532B0090EFD1431C022101A801936F
S315080002B800F004FC019B023B054601930026022137
S315080002C801A800F0FBFB013D0644F8D5013EF6B24D
S315080002D8FD2E0AD818F80430D94633B947F2180259
S315080002E8C2F20102F1231355D946009B13F8016B94
S315080002F802216846009300F0E1FB312E054623D01B
S31508000308322E3CD0332E3ED0372E40D0382E44D00D
S31508000318392E48D0373EF6B2022EB5D83946264881
S3150800032801F0C8FA5946254801F0C4FA2448514646
S3150800033801F0C0FA18F804301BB12248494601F002
S31508000348B9FA03B0BDE8F08F6FF0010B04216846CF
S3150800035800F0B4FB6B1E5B44002F08BF0746002B52
S315080003688346D7DD03EB000B05460221684600F0F5
S31508000378A5FB05F8010B5D45F7D1AB46CAE76FF053
S31508000388020B0621E3E76FF0030B0821DFE768464F
S31508000398042100F093FB8246BCE76846062100F074
S315080003A88DFB8246B6E76846082100F087FB824639
S315080003B8B0E700BF14700120CC1D0008E41D000832
S315080003C8FC1D0008141E00081870012010B5044604
S315080003D800F06AF847F21803C2F201030022204621
S315080003E81A55BDE8104000F0A7BB00BF08B513486A
S315080003F801F074FA124B1B6803B19847002000F005
S3150800040823FC1049104B4FF000520A600F491B682D
S315080004180A600F4A6121117003B1984700F0B0FDD0
S31508000428002000F0F3FF0B4800F0B4FF0020FFF7A8
S31508000438CDFF002000F042FAFBE700BF00000008E5
S31508000448281E000810700120241E00081C700120B0
S3150800045814700120801B0008F8B50C4605460846A6
S31508000468164600F04BFB80212046276800F026FB3D
S3150800047830602368BB420DD0204600F03FFB20467B
S315080004888021256800F01AFB23689D4208BF4FF4AF
S315080004988070F8BD034B53F825304FF480703360ED
S315080004A8F8BD00BF1C70012008B5154B1B5C652BF1
S315080004B801460ED1134B1B5C012B18D0042B124B8B
S315080004C853F820100DD00A881048BDE8084001F0F6
S315080004D8F1B90F4801F0EEF93A20BDE8084000F0F6
S315080004E871BF0A680B48BDE8084001F0E3B9064B36
S315080004F853F8201008480A78BDE8084001F0DAB928
S31508000508147001200070012010700120481E000890
S315080005182C1E00083C1E0008301E000870B50D4643
S315080005280446802128462E6800F0C8FA2B68B3428C
S31508000538064B08BF53F8240043F82400044B6522E9
S315080005481A55044B01221A5570BD00BF10700120B8
S31508000558147001200070012070B50D4604468021EC
S3150800056828462E6800F0AAFA2B68B342064B08BF3D
S3150800057853F8240043F82400044B65221A55044B03
S3150800058802221A5570BD00BF107001201470012090
S315080005980070012070B50D460446802128462E684D
S315080005A800F08CFA2B68B342064B08BF53F82400B0
S315080005B843F82400044B65221A55044B04221A559D
S315080005C870BD00BF10700120147001200070012052
S315080005D82DE9F04782B001AA0446FFF73DFF002837
S315080005E8054670DD01993F4B43F8241001F00F0AC0
S315080005F821F00F013C4801F05DF90AEB4A01013187
S31508000608202000F08DFA002DCAF11008D4BF002367
S315080006180123B8F1000FD4BF002303F00103DDF866
S315080006280490002B58D047462E4613E02D2100F09B
S315080006380FFC19F8011B2D4801F03CF9013F013E52
S31508000648002FD4BF00230123002ED4BF002303F0B4
S31508000658010383B1A7F10802534243EB0203AE42F2
S315080006680CBF002303F001032046002BDED120210E
S3150800067800F0EEFBDDE70AF10201202000F050FA4F
S31508000688019B13F8011BA1F12002D2B25E2A88BF8A
S315080006982E212046019308F1FF3800F0D9FB013DC9
S315080006A8B8F1000FD4BF00230123002DD4BF0023BF
S315080006B803F00103002BE3D10A2000F083FE15B1ED
S315080006C80199C24694E70A4B64221A55094B012236
S315080006D81A5502B0BDE8F0870AF10201202000F099
S315080006E81FFAE9E71C700120541E00085C1E000862
S315080006F81470012000700120F0B583B001AA0446E1
S31508000708FFF7AAFE002855DD019D2E4B25F00101AD
S31508000718013020F0010743F82410019105F00E0571
S315080007283E4621F00F01284801F0C4F805EBD571BB
S31508000738491001EB81010131202000F0F1F9002E62
S31508000748C5F11005D4BF00230123002DD4BF00230B
S3150800075803F00103BBB926E02D2000F033FE019B08
S315080007681A48198801F0A6F8023D023E019A002D9A
S31508000778D4BF00230123002ED4BF002303F00103AE
S31508000788023201927BB1A5F108014B4243EB010302
S31508000798BE420CBF002303F00103002BDCD1202046
S315080007A800F010FEDBE70A2000F00CFE002E01DD43
S315080007B80199B6E7064B64221A55064B02221A55C2
S315080007C803B0F0BD1C700120541E0008641E000802
S315080007D81470012000700120F0B583B001AA044600
S315080007E8FFF73AFE002859DD019D304B25F0030135
S315080007F8033020F0030743F82410019105F00C058F
S315080008083E4621F00F012A4801F054F8E91C11EA7E
S31508000818250138BF2946891001EBC101013120207D
S3150800082800F07EF9002EC5F11005D4BF0023012378
S31508000838002DD4BF002303F00103BBB927E02D21FF
S3150800084800F006FB019B1A48196801F033F8043DC5
S31508000858043E019A002DD4BF00230123002ED4BFDD
S31508000868002303F001030432019283B1A5F10800BD
S31508000878434243EB0003BE420CBF002303F00103C7
S315080008882046002BDBD1202100F0E2FADAE70A201D
S3150800089800F098FD002E01DD0199B2E7054B6422A8
S315080008A81A55054B04221A5503B0F0BD1C700120D1
S315080008B8541E0008147001200070012070B5044603
S315080008C882B0214600F04AF9009090B1037893B9AE
S315080008D84A4B1B5D642B4AD0652B07D1484B494ABE
S315080008E853F82410125D8A1843F824202046FFF787
S315080008F86DFD02B070BD414A115D652944D0421CA0
S3150800090800924178D1B9404A108860B141EA03217A
S315080009180025814202D114E0994213D032F8023FE9
S315080009280135002BF8D13F2000F04CFD012137484E
S3150800093800F0C0FF2046FFF749FDDAE702300090CD
S31508000948E1E70025684600F0D9F8314B204653F808
S315080009582530694698472F4B1D5D002DC6D03F2088
S3150800096800F030FD2946294800F0A4FFBEE7254BCC
S315080009781B5D012B2BD0022B2ED0042BB6D120467B
S315080009886946FFF729FFB1E72E2B14D01D4B0190B6
S315080009981B5D1B4D012B24D08021042B01A855F87B
S315080009A824600BD000F08AF855F8243030800233DA
S315080009B845F824309AE76123135597E700F07EF83F
S315080009C855F824303060043345F824308EE720463D
S315080009D86946FFF7FDFD89E720466946FFF78CFE5D
S315080009E884E701A8802155F8246000F067F830707C
S315080009F855F82430013345F8243077E71470012078
S31508000A0810700120007001208C1D00086C1E00085B
S31508000A18A41D0008187001202DE9F04182B001AA2A
S31508000A280C46FFF719FD0746204600F067F88021AF
S31508000A382046256800F042F8266803462046AE4256
S31508000A4814BF1E46002600F059F88021204625685E
S31508000A5800F034F8226803462046AA4214BF1D4609
S31508000A68002500F04BF880212046D4F8008000F0D5
S31508000A7825F82368434517D0002812DD7C1E05FB98
S31508000A8804F4002F0ADD019B3246D91903F8012B15
S31508000A988B422A440193F9D1AE1936190138002830
S31508000AA8EFDC02B0BDE8F0810120E7E700F00F00AF
S31508000AB8092801D95730704730307047F0B40346D3
S31508000AC80468002014F8012B602A01D9203AD2B20A
S31508000AD8A2F13005EEB2A2F14107092EFFB205D9F7
S31508000AE8052F01D9F0BC7047A2F137050029F9DDB1
S31508000AF805EB00101C600139E4E700BF03681A78A3
S31508000B0862B1202A08BF194602D007E0202A05D173
S31508000B180133036011F8012F002AF7D1704700BF87
S31508000B28002938B50C46054604DD284600F04AFC77
S31508000B38013CFAD138BD00BF47F20403C2F20103EB
S31508000B4847F2200203EB8001C2F2010210B402EB5D
S31508000B58C01200241C544A6010BC70472DE9F84F8F
S31508000B682E4F4FEA81090D467B5C2D4907EB090292
S31508000B78824601EBC5185668002B4BD108F17F0B46
S31508000B88284600F099F90828044619D0B0F10D034B
S31508000B9818BF01230A280CBF002303F001032BB151
S31508000BA8F0B94F4400207E60BDE8F88F0D281FD0A5
S31508000BB8002CF6D0284600F07FF908280446E5D127
S31508000BC84645DDD90146504600F042F950462021EF
S31508000BD800F03EF95046214600F03AF9013ECFE7C3
S31508000BE85046214600F034F906F8014B5E45DFD336
S31508000BF80D21504600F02CF950460A2100F028F934
S31508000C08C8EB06037B554F440023337040467E6085
S31508000C18BDE8F88F4046BDE8F88F00BF047001208C
S31508000C2820700120002A10B40CDD013A031D22F0B9
S31508000C3803029A1800E0043351F8044B93420460FF
S31508000C481846F8D110BC70472DE9F00F47F2A405ED
S31508000C588AB0C601C2F201050396049547F2A006B2
S31508000C6847F2C815C2F20106C2F2010505960795AC
S31508000C78431C039D47F2B40147F2481247F234165B
S31508000C88DB01C2F20101C2F20102C2F201060993AE
S31508000C98089647F238136E18AD180295C2F2010382
S31508000CA8099D019347F2CC1947F2A80C47F2B004FC
S31508000CB86918AA18C2F20109019D49F82060C2F20A
S31508000CC8010CC2F2010447F2D01B47F23C1345F85F
S31508000CD8206044F82010C2F2010B04994CF82060F1
S31508000CE8C2F20103029E059C069347F2441A47F28C
S31508000CF8401847F2AC0741F82060C2F2010AC2F26E
S31508000D080108C2F201074BF8206044F82060069DE6
S31508000D18079E089945F8202000230AF8003033541E
S31508000D2808F800303B540B540AB0BDE8F00F00F041
S31508000D3867B900BF10B5044600F072FA10F47F4F81
S31508000D4823D0C0B2132821D011282BD0194A1A4902
S31508000D5852F8243003F8010B51F8241042F82430CD
S31508000D688B4222BF154B53F8243042F82430144BD3
S31508000D781A5D120603D41A5D0132D2B21A551B5DE2
S31508000D88532B02D90F4B1A5D1AB110BD0E4B1855C5
S31508000D9810BD13221A550D4B20461A55BDE81040AA
S31508000DA800F04ABA084B002220461A55BDE81040FA
S31508000DB800F042BA38710120B0700120CC710120C8
S31508000DC844710120AC70012034710120C8710120DA
S31508000DD838B5194B195C0446002927D1174D2B5CE1
S31508000DE84BB92B5D13B1164B1B5DF3B12046BDE815
S31508000DF8384000F02DBA134A134952F8203051F8F2
S31508000E08200013F8011B834242F8243024BF0F4BF5
S31508000E1853F82430204628BF42F8243000F026FA32
S31508000E282B5D013BDBB22B55DBE738BD00221A5593
S31508000E38024D00F01BFAD4E7C87101204071012061
S31508000E4834710120A47001203C710120D071012061
S31508000E58002838B504461FDB124D2B5D1806FCD44E
S31508000E68114A52F8243003F8011B104942F8243075
S31508000E7851F824108B4222BF0D4B53F8243042F800
S31508000E88243000F075F82B5D0133DBB22B5500F0E2
S31508000E9877F8084B1B5D03B138BD2046BDE83840D6
S31508000EA800F0CAB940710120A07001203C710120E8
S31508000EB8D07101203471012038B5184D0446285CD4
S31508000EC800B938BD00F054F82B5D013BDBB22B5551
S31508000ED800F056F82B5D2A2B0ED8114B1A5D5AB11D
S31508000EE800221A5500F044F80E4B11221A552046CE
S31508000EF800F0A2F900F044F80B4A0C4952F82430DD
S31508000F0851F8241013F8010B8B4242F8243022BFFB
S31508000F18074B53F8243042F8243038BD4471012071
S31508000F28AC700120C8710120A8700120B07001209A
S31508000F38CC71012010B44FF4884344F20442C4F239
S31508000F480003C4F2000210F8014B74B11988490667
S31508000F58FCD50A2C1480F6D119884906FCD50D212A
S31508000F68118010F8014B002CF0D110BC704700BF57
S31508000F784EF28413CEF2000340221A60704700BF6F
S31508000F884EF20413CEF2000340221A60704700BFDF
S31508000F9808B50248FFF7CEFFFEE700BF7C1E00082B
S31508000FA808B50248FFF7C6FFFEE700BF981E000807
S31508000FB808B50248FFF7BEFFFEE700BFB81E0008DF
S31508000FC808B50248FFF7B6FFFEE700BFDC1E0008B3
S31508000FD808B50248FFF7AEFFFEE700BFFC1E00088B
S31508000FE808B50248FFF7A6FFFEE700BF201F00085E
S31508000FF808B50248FFF79EFFFEE700BF441F000832
S3150800100830B5764B85B053F8304008B105B030BDD9
S315080010184FF46152C4F2020243F630031168C4F26F
S31508001028020341F4003111601A68C4F2020042F062
S3150800103801021A600368082123F03003C4F202018A
S3150800104843F0200303600A68042322F03002C4F23E
S31508001058020342F020020A601D680C22C4F202024A
S3150800106825F004051D60156825F0300545F01005BE
S315080010781560056825F0C00545F08005056008680F
S3150800108820F0C00040F080000860196821F00801C7
S3150800109819601168202321F0C001C4F2020341F047
S315080010A8400111601A6822F4706242F4E0621A601C
S315080010B81A6822F4704242F4E0421A60238A23F43A
S315080010C840531B041B0C2382A38923F4B05323F033
S315080010D80C031B041B0C43F00C03A381A38A23F4FB
S315080010E840731B041B0CA382684600F0DBFC4FF414
S315080010F88052C4F20102A01A42424FF4A053C4F225
S31508001108010342EB00029C4214BF134642F0010356
S31508001118002B3FD1A289029B12B203EB8303002A54
S315080011284BF2C53203EB8303C9F2A2123FDBA2FBDB
S31508001138031348F21F529B0CC5F2EB12A2FB0301DC
S315080011484909642001FB10331B013233A2FB030251
S31508001158C2F3431242EA011189B22181A0894EF6E7
S315080011680C5180B24EF2984240F02000CEF20001AF
S31508001178A081CEF200024EF204130968CEF20003EB
S315080011880021116040221A60A3899BB243F40053D8
S31508001198A3813BE7A289039B12B203EB8303002AC8
S315080011A84BF2C53203EB8303C9F2A212BFDAA2FBDC
S315080011B8031048F21F52400CC5F2EB12A2FB0013AB
S315080011C85B09642103FB1101C9003231A2FB010145
S315080011D8C1F3421141EA0311BEE700BF741E0008B5
S315080011E844F20C42C4F2000238B54FF48843148816
S315080011F8C4F20003A4B21D88A006ADB201D5A9069B
S3150800120809D4220601D52B0600D438BD0020BDE82E
S315080012183840FFF7DDBD0020FFF78CFDF1E700BF7A
S3150800122841F67463C0F6000353F83030988860F0C6
S31508001238FF0080B2704700BF41F67463C0F600032A
S3150800124853F830309A8992B242F080029A817047F0
S3150800125841F67463C0F6000353F83020938923F0E7
S3150800126880031B041B0C9381704700BF41F6746307
S31508001278C0F6000353F8303099807047034B53F88B
S31508001288302013885B06FCD5704700BF741E00081B
S3150800129800207047F8B50C460546174649B100239D
S315080012A81E46F95C28680136FFF7D2FDA642334682
S315080012B8F7D12046F8BD00BF0068C9B2FFF7C8BD18
S315080012C810B504462068FFF7F7FD0028FAD010BDC8
S315080012D82DE9F0410C460546904651B100273E4691
S315080012E82846FFF7EDFF0136A64208F807003746F5
S315080012F8F6D12046BDE8F0810A2838B505460C46D9
S3150800130805D0A069E36829469847012038BD886949
S31508001318CB680D219847A069E368294698470120B4
S3150800132838BD00BF08B547F2D4130246C2F2010316
S31508001338002808BF1A4690695368984708BD00BF31
S3150800134847F2D413C2F20103002A08BF1A4610B599
S315080013580446936890692246984710BD38B547F2FF
S31508001368D414C2F20104002B08BF234604469D691B
S315080013789B6801FB02F128462246984738BD00BFFC
S3150800138838B59D691B69044601FB02F128462246C1
S31508001398984738BD38B5054647F2D41400F0E0FB3F
S315080013A8C2F201042A460146E36A606B9847A36AB3
S315080013B805460D21606B9847606BA36A0A21984712
S315080013C8284638BD0A2838B50546094C05D0606B45
S315080013D8A36A29469847012038BD606BA36A0D2180
S315080013E89847606BA36A29469847012038BD00BF0D
S315080013F8D4710120044A08B50346002808BF1346D5
S3150800140818465B69984708BDF0710120F0B4E0B941
S315080014180F4A104BDFF850C00F4F104E104D114CA5
S31508001428106003F154014FF0FF3023F8160C43F807
S3150800143814CC43F8107C43F80C6C43F8085C43F862
S31508001448044C43F81C2B8B42EDD1F0BC704700BF07
S315080014580C700120EC710120D9120008C11200088D
S315080014689D12000899120008C912000847F2D413F9
S31508001478C2F20103C0EBC00003EB8000704700BF4F
S315080014882DE9F04F87B00026109F129C139D0DF189
S315080014980C08B0FBF1FE01FB1E0C704612F80CE0B6
S315080014A808F806E001360028F3D1002FD4BF002239
S315080014B801220092119A0196002AC7EB0309009B9C
S315080014C8D4BF4FF0000A4FF0010A01271AEA030FA2
S315080014D8834628D1B14511DD3746BAF1000F0CBF4E
S315080014E82020302029460137A0474F45F5D1F34338
S315080014F8DF190BF1010BBB440BF10107009B119A8D
S31508001508002ACCBF002303F001039BB9013E2946F4
S3150800151818F80600A047002EF8D1019B0BEB03002C
S3150800152807B0BDE8F08F2D202946A04702274FF0BF
S31508001538010BCFE72D202946A047BB46E6E700BFA3
S31508001548FFF740BF2DE9F04F00250746107885B00C
S3150800155814460E469846AA4650B125280CD0314658
S31508001568B847607804F1010901354C460028F4D1DA
S31508001578284605B0BDE8F08F6378302B00F0AA80BE
S3150800158802344FF0000CA3F13002092A88BF4FF045
S3150800159800090FD822464FF0000909EB890903EB21
S315080015A8490912F8013BA3F130010929A9F13009C3
S315080015B81446F2D9782B00F28B80DFE813F0D200B4
S315080015C889008900890089008900890089008900BD
S315080015D889008900890089008900890089008900AD
S315080015E8890089008900890089008900890089009D
S315080015F8890089008900890089008900890089008D
S315080016088900890089008900CC0089008900890039
S31508001618890089008900890089008900890089006C
S31508001628890089008900890089008900890089005C
S31508001638890089008900890089008900890089004C
S31508001648890089008900890089008900890089003C
S31508001658890089008900890089008900890089002C
S315080016688900890089008900890089008900C800DD
S31508001678890089008900890089008900890089000C
S3150800168889008900BF00F700890089008900D6000B
S31508001698F70089008900030189008900B8008900D4
S315080016A8890089009A0089009000890089007900D4
S315080016B8D8F800007C4ACDF800A010214B4608F15E
S315080016C80408CDF804C002970396FFF7D9FE2D182B
S315080016D8207841E7A3784FF0010C033453E7734A9F
S315080016E8D8F80000CDF800A00A214B4608F10408EE
S315080016F8E7E7D8F80030187808F1040848B19B4697
S315080017083146B8471BF8010F013509F1FF3900289A
S31508001718F6D1B9F1000FC8BFCB46D9DD202031462E
S31508001728B847BBF1010BF9D14D44207814E7D8F82E
S3150800173800005E4ACDF800A00821D6E798F8000010
S315080017483146B84708F104080135207804E7D8F87F
S315080017580000574AAFE725203146B84701352078B3
S31508001768FAE614F8010C013CF6E62378692B04F12D
S31508001778010B42D03DD9752B00F08580782B7FD098
S315080017886F2B2BD1B8F80000484ACDF800A00821DD
S315080017984B4608F10408CDF804C002970396FFF7EC
S315080017A86FFE0346ED1860785C46D5E6D8F8000063
S315080017B8002808F1040838DB0A213C4ACDF800A0BD
S315080017C84B467EE72378692B04F1010B21D008D90B
S315080017D8752B3ED0782B32D06F2B2DD060785C468F
S315080017E8BAE6582B49D0642B13D0002B3FF4C0AE69
S315080017F8F4E7582B37D0642BF7D1B8F9000000283E
S3150800180808F1040849DB0A21284ACDF800A04B4606
S31508001818C1E7D8F80000002808F1040836DB0A21D1
S31508001828224ACDF800A04B46B5E70123009340426B
S315080018380A211E4A4B4644E7D8F80000A4E7D8F818
S315080018480000194ACDF800A010214B4608F10408F3
S31508001858A1E7D8F80000154ACDF800A00A214B469A
S3150800186808F1040897E7B8F80000114ACDF800A06F
S3150800187810214B4608F104088DE7D8F80000F4E76C
S31508001888B8F80000DDE7B8F80000E4E7012300939C
S3150800189840420A21054A4B467DE701230093404208
S315080018A80A21024A4B4676E7701F0008641F00089B
S315080018B8841F00080FB410B582B004AC41F2495031
S315080018C854F8042B00212346C0F600000194FFF7BC
S315080018D839FE02B0BDE8104004B070474EF608530A
S315080018E8CEF20003186070474FF46053C4F202033F
S315080018F843F608011A68C4F2020170B542F00102FB
S3150800190800251A600D601C6843F6040024F08474E8
S31508001918C4F2020043F2100224F48034C2F20042F0
S315080019281C6002601E6843F60C04C4F202044FF4F5
S315080019386152C4F2020226F480261E6025601468E5
S315080019484FF4E043C4F2000344F08054146012686C
S315080019581A6822F4404242F400421A601B680B686F
S3150800196813F00C0356D0082B51D043F60803C4F2DB
S3150800197802031B6803F00C03082B36D06023C4F255
S3150800198847234FF4605500221A6040F2E934C4F23E
S31508001998020507E048F2A060C0F20100FEF726FC3F
S315080019A8013C2DD02B689901F4D443F60402C4F2FD
S315080019B80202602345F21041C4F24723C0F20171BE
S315080019C811604FF46055012240F2E9341A60C4F2F6
S315080019D8020507E048F2A060C0F20100FEF706FC1F
S315080019E8013C0DD02B689A01F4D54FF47053C4F214
S315080019F8020302221A701B6803F00703934214D0E5
S31508001A084EF60853CEF20003254A1A6070BD0368DD
S31508001A185802AAD44FF46053C4F202031A6822F093
S31508001A28F80242F080021A609FE743F60805C4F2F6
S31508001A3802054FF460532A68C4F2020322F0F00242
S31508001A482A601B689B01DBD52B6823F0030343F048
S31508001A5802032B604CF2513407E048F2A060C0F24A
S31508001A680100FEF7C3FB013CCAD02A6802F00C0243
S31508001A7843F60803082AC4F20203EED11A6822F4C8
S31508001A88E05242F480521A601A6822F460421A60D8
S31508001A984EF60853CEF20003014A1A6070BD00BF1D
S31508001AA80000000843F60803C4F2020310B41B68D2
S31508001AB803F00C03042B02BF4FF49052C0F27A02CB
S31508001AC8026007D0082B1EBF4FF41052C0F2F4026A
S31508001AD802601BD043F60803C4F202031F491C68B8
S31508001AE8C4F303140C5D22FA04F242601C68C4F3BA
S31508001AF882240C5D22FA04F484601B68C3F342331B
S31508001B08CB5C22FA03F2C26010BC704743F60403A2
S31508001B18C4F202031C68196814F4800F1C6815BF00
S31508001B284FF490534FF41053C0F27A03C0F2F403FB
S31508001B3801F03F01B3FBF1F243F60403C4F20203D2
S31508001B48C4F388141B68C3F30143013302FB04F288
S31508001B585B00B2FBF3F20260BCE700BF981F0008FF
S31508001B680023C25C0133002AFBD1581E7047C046C1
S31508001B78000000000000000053544D33324634304C
S31508001B8831204E75636C656F204D6F6E69746F7280
S31508001B982076312E30310D0A436F7079726967687D
S31508001BA8742028432920313939392D3230303420E8
S31508001BB843534520546F6D616B6F6D6169204E43C1
S31508001BC8540D0A436F707972696768742028432927
S31508001BD820323030362D20202020205249434F48C5
S31508001BE820434F4D50414E592C4C54442E002D2D10
S31508001BF82D2D2D2D2D2D2D2D2D2D2D2D2D2D2D2DFF
S31508001C082D2D2D2D2D2D2D2D2D2D2D2D2D2D2D2DEE
S31508001C182D2D2D2D2D2D2D2D2D2D2D2D2D2D2D2DDE
S31508001C282D2D2D2D2D2D2D2D2D2D2D2D2D2D2D2DCE
S31508001C382D2D2D2D2D2D2D2D2D2D006C642020209C
S31508001C48202020202020202020206C6F616420700E
S31508001C58726F6772616D20202020202020202020A6
S31508001C687C20676F5B3C61643E5D20202020202035
S31508001C7820676F2070726F6772616D0064625B3CE3
S31508001C8861643E5B3C6C6E3E5D5D2064756D7020DC
S31508001C9862797465202020202020202020202020FA
S31508001CA8207C2064775B3C61643E5B3C6C6E3E5DE1
S31508001CB85D2064756D7020776F726400646C5B3C98
S31508001CC861643E5B3C6C6E3E5D5D2064756D70209C
S31508001CD86C6F6E6720776F72642020202020202082
S31508001CE8207C2065625B3C61643E5D2020202020C4
S31508001CF82020656E74657220627974650065775B65
S31508001D083C61643E5B3C6C6E3E5D5D20656E746549
S31508001D187220776F7264202020202020202020201F
S31508001D2820207C20656C5B3C61643E5D2020202079
S31508001D38202020656E746572206C6F6E6720776F39
S31508001D4872640066625B3C61643E5B3C6C6E3E5B3B
S31508001D583C696E3E5B3C69633E5B3C72703E5D5D0A
S31508001D685D5D5D2066696C6C2062797465003F204C
S31508001D782020202020202020202020202068656C74
S31508001D88700000006C65776562656C6477646264E8
S31508001D986266646C6F67003F000000009D050008D6
S31508001DA86105000825050008E1070008010700087D
S31508001DB8D9050008210A0008750200083502000836
S31508001DC80D02000853746172742041646472657365
S31508001DD873203D20253038780A000000456E6420B7
S31508001DE8202041646472657373203D202530387855
S31508001DF80A000000456E747279204164647265733E
S31508001E0873203D20253038780A0000004572726F25
S31508001E1872203D20253038780A00000000000000AE
S31508001E2800000000257800002530386C783A2530FF
S31508001E3832783A002530386C783A253038783A00BE
S31508001E482530386C783A253034783A002530386C9D
S31508001E5878000000253032780000000025303478F4
S31508001E6800000000253032780A00000000440040CF
S31508001E78260000004E4D4920457863657074696FE1
S31508001E886E206F63637572732E20210A00000000A6
S31508001E9848617264204661756C742045786365707C
S31508001EA874696F6E206F63637572732E20210A003A
S31508001EB84D656D6F7279204D616E61676572204553
S31508001EC87863657074696F6E206F63637572732EB5
S31508001ED820210A00427573204661756C742045787E
S31508001EE863657074696F6E206F63637572732E20ED
S31508001EF8210A00005573616765204661756C742070
S31508001F08457863657074696F6E206F63637572735D
S31508001F182E20210A000000004465627567204D6F6F
S31508001F286E69746F7220457863657074696F6E2080
S31508001F386F63637572732E20210A000050656E64FC
S31508001F4820535620457863657074696F6E206F63F1
S31508001F58637572732E20210A00000000303132336F
S31508001F683435363738390000303132333435363778
S31508001F7838396162636465660000000030313233BF
S31508001F88343536373839414243444546000000005F
S31508001F9800000000010203040102030406070809F9
S30D08001FA8000000000000000023
S7050800018869
